{
	"FundMe.sol": {
		"FundMe": {
			"abi": [
				{
					"inputs": [],
					"stateMutability": "nonpayable",
					"type": "constructor"
				},
				{
					"inputs": [],
					"name": "NotOwner",
					"type": "error"
				},
				{
					"stateMutability": "payable",
					"type": "fallback"
				},
				{
					"inputs": [],
					"name": "Fund",
					"outputs": [],
					"stateMutability": "payable",
					"type": "function"
				},
				{
					"inputs": [],
					"name": "MINIMUM_USD",
					"outputs": [
						{
							"internalType": "uint256",
							"name": "",
							"type": "uint256"
						}
					],
					"stateMutability": "view",
					"type": "function"
				},
				{
					"inputs": [],
					"name": "Withdraw",
					"outputs": [],
					"stateMutability": "nonpayable",
					"type": "function"
				},
				{
					"inputs": [
						{
							"internalType": "uint256",
							"name": "",
							"type": "uint256"
						}
					],
					"name": "funders",
					"outputs": [
						{
							"internalType": "address",
							"name": "",
							"type": "address"
						}
					],
					"stateMutability": "view",
					"type": "function"
				},
				{
					"inputs": [
						{
							"internalType": "address",
							"name": "funder",
							"type": "address"
						}
					],
					"name": "fundsRaisedByAddress",
					"outputs": [
						{
							"internalType": "uint256",
							"name": "amountRaised",
							"type": "uint256"
						}
					],
					"stateMutability": "view",
					"type": "function"
				},
				{
					"inputs": [],
					"name": "getVersion",
					"outputs": [
						{
							"internalType": "uint256",
							"name": "",
							"type": "uint256"
						}
					],
					"stateMutability": "view",
					"type": "function"
				},
				{
					"inputs": [],
					"name": "i_owner",
					"outputs": [
						{
							"internalType": "address",
							"name": "",
							"type": "address"
						}
					],
					"stateMutability": "view",
					"type": "function"
				},
				{
					"stateMutability": "payable",
					"type": "receive"
				}
			],
			"devdoc": {
				"kind": "dev",
				"methods": {},
				"version": 1
			},
			"evm": {
				"assembly": "    /* \"FundMe.sol\":352:5683  contract FundMe {... */\n  mstore(0x40, 0xa0)\n    /* \"FundMe.sol\":1440:1494  constructor() {... */\n  callvalue\n  dup1\n  iszero\n  tag_1\n  jumpi\n  0x00\n  dup1\n  revert\ntag_1:\n  pop\n    /* \"FundMe.sol\":1475:1485  msg.sender */\n  caller\n    /* \"FundMe.sol\":1465:1485  i_owner = msg.sender */\n  0xffffffffffffffffffffffffffffffffffffffff\n  and\n  0x80\n  dup2\n  0xffffffffffffffffffffffffffffffffffffffff\n  and\n  dup2\n  mstore\n  pop\n  pop\n    /* \"FundMe.sol\":352:5683  contract FundMe {... */\n  mload(0x80)\n  codecopy(0x00, dataOffset(sub_0), dataSize(sub_0))\n  0x00\n  assignImmutable(\"0xcc143a676b82d5e07b2c9d57717b403ab3c58caa273a42cdb95b15980141a86c\")\n  return(0x00, dataSize(sub_0))\nstop\n\nsub_0: assembly {\n        /* \"FundMe.sol\":352:5683  contract FundMe {... */\n      mstore(0x40, 0x80)\n      jumpi(tag_1, lt(calldatasize, 0x04))\n      shr(0xe0, calldataload(0x00))\n      dup1\n      0x6ce1417e\n      gt\n      tag_10\n      jumpi\n      dup1\n      0x6ce1417e\n      eq\n      tag_6\n      jumpi\n      dup1\n      0xb804f81f\n      eq\n      tag_7\n      jumpi\n      dup1\n      0xdba6335f\n      eq\n      tag_8\n      jumpi\n      dup1\n      0xdc0d3dff\n      eq\n      tag_9\n      jumpi\n      jump(tag_2)\n    tag_10:\n      dup1\n      0x0d8e6e2c\n      eq\n      tag_3\n      jumpi\n      dup1\n      0x57ea89b6\n      eq\n      tag_4\n      jumpi\n      dup1\n      0x6b69a592\n      eq\n      tag_5\n      jumpi\n      jump(tag_2)\n    tag_1:\n      jumpi(tag_2, calldatasize)\n        /* \"FundMe.sol\":5427:5433  Fund() */\n      tag_13\n        /* \"FundMe.sol\":5427:5431  Fund */\n      tag_14\n        /* \"FundMe.sol\":5427:5433  Fund() */\n      jump\t// in\n    tag_13:\n        /* \"FundMe.sol\":352:5683  contract FundMe {... */\n      stop\n    tag_2:\n        /* \"FundMe.sol\":5574:5580  Fund() */\n      tag_17\n        /* \"FundMe.sol\":5574:5578  Fund */\n      tag_14\n        /* \"FundMe.sol\":5574:5580  Fund() */\n      jump\t// in\n    tag_17:\n        /* \"FundMe.sol\":352:5683  contract FundMe {... */\n      stop\n        /* \"FundMe.sol\":2951:3157  function getVersion() public view returns (uint256){... */\n    tag_3:\n      callvalue\n      dup1\n      iszero\n      tag_18\n      jumpi\n      0x00\n      dup1\n      revert\n    tag_18:\n      pop\n      tag_19\n      tag_20\n      jump\t// in\n    tag_19:\n      mload(0x40)\n      tag_21\n      swap2\n      swap1\n      tag_22\n      jump\t// in\n    tag_21:\n      mload(0x40)\n      dup1\n      swap2\n      sub\n      swap1\n      return\n        /* \"FundMe.sol\":3165:4951  function Withdraw() public onlyOwner {... */\n    tag_4:\n      callvalue\n      dup1\n      iszero\n      tag_23\n      jumpi\n      0x00\n      dup1\n      revert\n    tag_23:\n      pop\n      tag_24\n      tag_25\n      jump\t// in\n    tag_24:\n      stop\n        /* \"FundMe.sol\":892:934  uint256 public constant MINIMUM_USD = 5e18 */\n    tag_5:\n      callvalue\n      dup1\n      iszero\n      tag_26\n      jumpi\n      0x00\n      dup1\n      revert\n    tag_26:\n      pop\n      tag_27\n      tag_28\n      jump\t// in\n    tag_27:\n      mload(0x40)\n      tag_29\n      swap2\n      swap1\n      tag_22\n      jump\t// in\n    tag_29:\n      mload(0x40)\n      dup1\n      swap2\n      sub\n      swap1\n      return\n        /* \"FundMe.sol\":1532:2855  function Fund() public payable {... */\n    tag_6:\n      tag_30\n      tag_14\n      jump\t// in\n    tag_30:\n      stop\n        /* \"FundMe.sol\":1084:1160  mapping (address funder => uint256 amountRaised) public fundsRaisedByAddress */\n    tag_7:\n      callvalue\n      dup1\n      iszero\n      tag_31\n      jumpi\n      0x00\n      dup1\n      revert\n    tag_31:\n      pop\n      tag_32\n      0x04\n      dup1\n      calldatasize\n      sub\n      dup2\n      add\n      swap1\n      tag_33\n      swap2\n      swap1\n      tag_34\n      jump\t// in\n    tag_33:\n      tag_35\n      jump\t// in\n    tag_32:\n      mload(0x40)\n      tag_36\n      swap2\n      swap1\n      tag_22\n      jump\t// in\n    tag_36:\n      mload(0x40)\n      dup1\n      swap2\n      sub\n      swap1\n      return\n        /* \"FundMe.sol\":1291:1323  address public immutable i_owner */\n    tag_8:\n      callvalue\n      dup1\n      iszero\n      tag_37\n      jumpi\n      0x00\n      dup1\n      revert\n    tag_37:\n      pop\n      tag_38\n      tag_39\n      jump\t// in\n    tag_38:\n      mload(0x40)\n      tag_40\n      swap2\n      swap1\n      tag_41\n      jump\t// in\n    tag_40:\n      mload(0x40)\n      dup1\n      swap2\n      sub\n      swap1\n      return\n        /* \"FundMe.sol\":1013:1037  address[] public funders */\n    tag_9:\n      callvalue\n      dup1\n      iszero\n      tag_42\n      jumpi\n      0x00\n      dup1\n      revert\n    tag_42:\n      pop\n      tag_43\n      0x04\n      dup1\n      calldatasize\n      sub\n      dup2\n      add\n      swap1\n      tag_44\n      swap2\n      swap1\n      tag_45\n      jump\t// in\n    tag_44:\n      tag_46\n      jump\t// in\n    tag_43:\n      mload(0x40)\n      tag_47\n      swap2\n      swap1\n      tag_41\n      jump\t// in\n    tag_47:\n      mload(0x40)\n      dup1\n      swap2\n      sub\n      swap1\n      return\n        /* \"FundMe.sol\":1532:2855  function Fund() public payable {... */\n    tag_14:\n        /* \"FundMe.sol\":930:934  5e18 */\n      0x4563918244f40000\n        /* \"FundMe.sol\":2055:2084  msg.value.getConversionRate() */\n      tag_49\n        /* \"FundMe.sol\":2055:2064  msg.value */\n      callvalue\n        /* \"FundMe.sol\":2055:2082  msg.value.getConversionRate */\n      tag_50\n        /* \"FundMe.sol\":2055:2084  msg.value.getConversionRate() */\n      jump\t// in\n    tag_49:\n        /* \"FundMe.sol\":2055:2099  msg.value.getConversionRate() >= MINIMUM_USD */\n      lt\n      iszero\n        /* \"FundMe.sol\":2047:2126  require(msg.value.getConversionRate() >= MINIMUM_USD, \"not enough ETH amount!\") */\n      tag_51\n      jumpi\n      mload(0x40)\n      0x08c379a000000000000000000000000000000000000000000000000000000000\n      dup2\n      mstore\n      0x04\n      add\n      tag_52\n      swap1\n      tag_53\n      jump\t// in\n    tag_52:\n      mload(0x40)\n      dup1\n      swap2\n      sub\n      swap1\n      revert\n    tag_51:\n        /* \"FundMe.sol\":2432:2439  funders */\n      0x00\n        /* \"FundMe.sol\":2445:2455  msg.sender */\n      caller\n        /* \"FundMe.sol\":2432:2456  funders.push(msg.sender) */\n      swap1\n      dup1\n      0x01\n      dup2\n      sload\n      add\n      dup1\n      dup3\n      sstore\n      dup1\n      swap2\n      pop\n      pop\n      0x01\n      swap1\n      sub\n      swap1\n      0x00\n      mstore\n      keccak256(0x00, 0x20)\n      add\n      0x00\n      swap1\n      swap2\n      swap1\n      swap2\n      swap1\n      swap2\n      0x0100\n      exp\n      dup2\n      sload\n      dup2\n      0xffffffffffffffffffffffffffffffffffffffff\n      mul\n      not\n      and\n      swap1\n      dup4\n      0xffffffffffffffffffffffffffffffffffffffff\n      and\n      mul\n      or\n      swap1\n      sstore\n      pop\n        /* \"FundMe.sol\":2585:2594  msg.value */\n      callvalue\n        /* \"FundMe.sol\":2550:2570  fundsRaisedByAddress */\n      0x01\n        /* \"FundMe.sol\":2550:2582  fundsRaisedByAddress[msg.sender] */\n      0x00\n        /* \"FundMe.sol\":2571:2581  msg.sender */\n      caller\n        /* \"FundMe.sol\":2550:2582  fundsRaisedByAddress[msg.sender] */\n      0xffffffffffffffffffffffffffffffffffffffff\n      and\n      0xffffffffffffffffffffffffffffffffffffffff\n      and\n      dup2\n      mstore\n      0x20\n      add\n      swap1\n      dup2\n      mstore\n      0x20\n      add\n      0x00\n      keccak256\n      sload\n        /* \"FundMe.sol\":2550:2594  fundsRaisedByAddress[msg.sender] + msg.value */\n      tag_55\n      swap2\n      swap1\n      tag_56\n      jump\t// in\n    tag_55:\n        /* \"FundMe.sol\":2515:2535  fundsRaisedByAddress */\n      0x01\n        /* \"FundMe.sol\":2515:2547  fundsRaisedByAddress[msg.sender] */\n      0x00\n        /* \"FundMe.sol\":2536:2546  msg.sender */\n      caller\n        /* \"FundMe.sol\":2515:2547  fundsRaisedByAddress[msg.sender] */\n      0xffffffffffffffffffffffffffffffffffffffff\n      and\n      0xffffffffffffffffffffffffffffffffffffffff\n      and\n      dup2\n      mstore\n      0x20\n      add\n      swap1\n      dup2\n      mstore\n      0x20\n      add\n      0x00\n      keccak256\n        /* \"FundMe.sol\":2515:2594  fundsRaisedByAddress[msg.sender] = fundsRaisedByAddress[msg.sender] + msg.value */\n      dup2\n      swap1\n      sstore\n      pop\n        /* \"FundMe.sol\":1532:2855  function Fund() public payable {... */\n      jump\t// out\n        /* \"FundMe.sol\":2951:3157  function getVersion() public view returns (uint256){... */\n    tag_20:\n        /* \"FundMe.sol\":2994:3001  uint256 */\n      0x00\n        /* \"FundMe.sol\":3013:3044  AggregatorV3Interface priceFeed */\n      dup1\n        /* \"FundMe.sol\":3069:3111  0xfEefF7c3fB57d18C5C6Cdd71e45D2D0b4F9377bF */\n      0xfeeff7c3fb57d18c5c6cdd71e45d2d0b4f9377bf\n        /* \"FundMe.sol\":3013:3112  AggregatorV3Interface priceFeed = AggregatorV3Interface(0xfEefF7c3fB57d18C5C6Cdd71e45D2D0b4F9377bF) */\n      swap1\n      pop\n        /* \"FundMe.sol\":3130:3139  priceFeed */\n      dup1\n        /* \"FundMe.sol\":3130:3147  priceFeed.version */\n      0xffffffffffffffffffffffffffffffffffffffff\n      and\n      0x54fd4d50\n        /* \"FundMe.sol\":3130:3149  priceFeed.version() */\n      mload(0x40)\n      dup2\n      0xffffffff\n      and\n      0xe0\n      shl\n      dup2\n      mstore\n      0x04\n      add\n      0x20\n      mload(0x40)\n      dup1\n      dup4\n      sub\n      dup2\n      dup7\n      gas\n      staticcall\n      iszero\n      dup1\n      iszero\n      tag_59\n      jumpi\n      returndatasize\n      0x00\n      dup1\n      returndatacopy\n      revert(0x00, returndatasize)\n    tag_59:\n      pop\n      pop\n      pop\n      pop\n      mload(0x40)\n      returndatasize\n      not(0x1f)\n      0x1f\n      dup3\n      add\n      and\n      dup3\n      add\n      dup1\n      0x40\n      mstore\n      pop\n      dup2\n      add\n      swap1\n      tag_60\n      swap2\n      swap1\n      tag_61\n      jump\t// in\n    tag_60:\n        /* \"FundMe.sol\":3123:3149  return priceFeed.version() */\n      swap2\n      pop\n      pop\n        /* \"FundMe.sol\":2951:3157  function getVersion() public view returns (uint256){... */\n      swap1\n      jump\t// out\n        /* \"FundMe.sol\":3165:4951  function Withdraw() public onlyOwner {... */\n    tag_25:\n        /* \"FundMe.sol\":5093:5100  i_owner */\n      immutable(\"0xcc143a676b82d5e07b2c9d57717b403ab3c58caa273a42cdb95b15980141a86c\")\n        /* \"FundMe.sol\":5079:5100  msg.sender != i_owner */\n      0xffffffffffffffffffffffffffffffffffffffff\n      and\n        /* \"FundMe.sol\":5079:5089  msg.sender */\n      caller\n        /* \"FundMe.sol\":5079:5100  msg.sender != i_owner */\n      0xffffffffffffffffffffffffffffffffffffffff\n      and\n      eq\n        /* \"FundMe.sol\":5076:5225  if(msg.sender != i_owner){... */\n      tag_63\n      jumpi\n        /* \"FundMe.sol\":5123:5133  NotOwner() */\n      mload(0x40)\n      0x30cd747100000000000000000000000000000000000000000000000000000000\n      dup2\n      mstore\n      0x04\n      add\n      mload(0x40)\n      dup1\n      swap2\n      sub\n      swap1\n      revert\n        /* \"FundMe.sol\":5076:5225  if(msg.sender != i_owner){... */\n    tag_63:\n        /* \"FundMe.sol\":3218:3237  uint256 funderIndex */\n      0x00\n        /* \"FundMe.sol\":3213:3517  for (uint256 funderIndex; funderIndex < funders.length; funderIndex++) ... */\n    tag_65:\n        /* \"FundMe.sol\":3253:3260  funders */\n      0x00\n        /* \"FundMe.sol\":3253:3267  funders.length */\n      dup1\n      sload\n      swap1\n      pop\n        /* \"FundMe.sol\":3239:3250  funderIndex */\n      dup2\n        /* \"FundMe.sol\":3239:3267  funderIndex < funders.length */\n      lt\n        /* \"FundMe.sol\":3213:3517  for (uint256 funderIndex; funderIndex < funders.length; funderIndex++) ... */\n      iszero\n      tag_66\n      jumpi\n        /* \"FundMe.sol\":3309:3323  address funder */\n      0x00\n        /* \"FundMe.sol\":3326:3333  funders */\n      dup1\n        /* \"FundMe.sol\":3334:3345  funderIndex */\n      dup3\n        /* \"FundMe.sol\":3326:3346  funders[funderIndex] */\n      dup2\n      sload\n      dup2\n      lt\n      tag_68\n      jumpi\n      tag_69\n      tag_70\n      jump\t// in\n    tag_69:\n    tag_68:\n      swap1\n      0x00\n      mstore\n      keccak256(0x00, 0x20)\n      add\n      0x00\n      swap1\n      sload\n      swap1\n      0x0100\n      exp\n      swap1\n      div\n      0xffffffffffffffffffffffffffffffffffffffff\n      and\n        /* \"FundMe.sol\":3309:3346  address funder = funders[funderIndex] */\n      swap1\n      pop\n        /* \"FundMe.sol\":3430:3431  0 */\n      0x00\n        /* \"FundMe.sol\":3399:3419  fundsRaisedByAddress */\n      0x01\n        /* \"FundMe.sol\":3399:3427  fundsRaisedByAddress[funder] */\n      0x00\n        /* \"FundMe.sol\":3420:3426  funder */\n      dup4\n        /* \"FundMe.sol\":3399:3427  fundsRaisedByAddress[funder] */\n      0xffffffffffffffffffffffffffffffffffffffff\n      and\n      0xffffffffffffffffffffffffffffffffffffffff\n      and\n      dup2\n      mstore\n      0x20\n      add\n      swap1\n      dup2\n      mstore\n      0x20\n      add\n      0x00\n      keccak256\n        /* \"FundMe.sol\":3399:3431  fundsRaisedByAddress[funder] = 0 */\n      dup2\n      swap1\n      sstore\n      pop\n        /* \"FundMe.sol\":3294:3517  {... */\n      pop\n        /* \"FundMe.sol\":3269:3282  funderIndex++ */\n      dup1\n      dup1\n      0x01\n      add\n      swap2\n      pop\n      pop\n        /* \"FundMe.sol\":3213:3517  for (uint256 funderIndex; funderIndex < funders.length; funderIndex++) ... */\n      jump(tag_65)\n    tag_66:\n      pop\n        /* \"FundMe.sol\":3551:3552  0 */\n      0x00\n        /* \"FundMe.sol\":3537:3553  new address[](0) */\n      0xffffffffffffffff\n      dup2\n      gt\n      iszero\n      tag_72\n      jumpi\n      tag_73\n      tag_74\n      jump\t// in\n    tag_73:\n    tag_72:\n      mload(0x40)\n      swap1\n      dup1\n      dup3\n      mstore\n      dup1\n      0x20\n      mul\n      0x20\n      add\n      dup3\n      add\n      0x40\n      mstore\n      dup1\n      iszero\n      tag_75\n      jumpi\n      dup2\n      0x20\n      add\n      0x20\n      dup3\n      mul\n      dup1\n      calldatasize\n      dup4\n      calldatacopy\n      dup1\n      dup3\n      add\n      swap2\n      pop\n      pop\n      swap1\n      pop\n    tag_75:\n      pop\n        /* \"FundMe.sol\":3527:3534  funders */\n      0x00\n        /* \"FundMe.sol\":3527:3553  funders = new address[](0) */\n      swap1\n      dup1\n      mload\n      swap1\n      0x20\n      add\n      swap1\n      tag_76\n      swap3\n      swap2\n      swap1\n      tag_77\n      jump\t// in\n    tag_76:\n      pop\n        /* \"FundMe.sol\":4731:4747  bool callSuccess */\n      0x00\n        /* \"FundMe.sol\":4759:4769  msg.sender */\n      caller\n        /* \"FundMe.sol\":4751:4775  payable(msg.sender).call */\n      0xffffffffffffffffffffffffffffffffffffffff\n      and\n        /* \"FundMe.sol\":4783:4804  address(this).balance */\n      selfbalance\n        /* \"FundMe.sol\":4751:4809  payable(msg.sender).call{value: address(this).balance}(\"\") */\n      mload(0x40)\n      tag_78\n      swap1\n      tag_79\n      jump\t// in\n    tag_78:\n      0x00\n      mload(0x40)\n      dup1\n      dup4\n      sub\n      dup2\n      dup6\n      dup8\n      gas\n      call\n      swap3\n      pop\n      pop\n      pop\n      returndatasize\n      dup1\n      0x00\n      dup2\n      eq\n      tag_82\n      jumpi\n      mload(0x40)\n      swap2\n      pop\n      and(add(returndatasize, 0x3f), not(0x1f))\n      dup3\n      add\n      0x40\n      mstore\n      returndatasize\n      dup3\n      mstore\n      returndatasize\n      0x00\n      0x20\n      dup5\n      add\n      returndatacopy\n      jump(tag_81)\n    tag_82:\n      0x60\n      swap2\n      pop\n    tag_81:\n      pop\n        /* \"FundMe.sol\":4730:4809  (bool callSuccess,)= payable(msg.sender).call{value: address(this).balance}(\"\") */\n      pop\n      swap1\n      pop\n        /* \"FundMe.sol\":4917:4928  callSuccess */\n      dup1\n        /* \"FundMe.sol\":4909:4943  require(callSuccess,\"Call failed\") */\n      tag_83\n      jumpi\n      mload(0x40)\n      0x08c379a000000000000000000000000000000000000000000000000000000000\n      dup2\n      mstore\n      0x04\n      add\n      tag_84\n      swap1\n      tag_85\n      jump\t// in\n    tag_84:\n      mload(0x40)\n      dup1\n      swap2\n      sub\n      swap1\n      revert\n    tag_83:\n        /* \"FundMe.sol\":3202:4951  {... */\n      pop\n        /* \"FundMe.sol\":3165:4951  function Withdraw() public onlyOwner {... */\n      jump\t// out\n        /* \"FundMe.sol\":892:934  uint256 public constant MINIMUM_USD = 5e18 */\n    tag_28:\n        /* \"FundMe.sol\":930:934  5e18 */\n      0x4563918244f40000\n        /* \"FundMe.sol\":892:934  uint256 public constant MINIMUM_USD = 5e18 */\n      dup2\n      jump\t// out\n        /* \"FundMe.sol\":1084:1160  mapping (address funder => uint256 amountRaised) public fundsRaisedByAddress */\n    tag_35:\n      mstore(0x20, 0x01)\n      dup1\n      0x00\n      mstore\n      keccak256(0x00, 0x40)\n      0x00\n      swap2\n      pop\n      swap1\n      pop\n      sload\n      dup2\n      jump\t// out\n        /* \"FundMe.sol\":1291:1323  address public immutable i_owner */\n    tag_39:\n      immutable(\"0xcc143a676b82d5e07b2c9d57717b403ab3c58caa273a42cdb95b15980141a86c\")\n      dup2\n      jump\t// out\n        /* \"FundMe.sol\":1013:1037  address[] public funders */\n    tag_46:\n      0x00\n      dup2\n      dup2\n      sload\n      dup2\n      lt\n      tag_86\n      jumpi\n      0x00\n      dup1\n      revert\n    tag_86:\n      swap1\n      0x00\n      mstore\n      keccak256(0x00, 0x20)\n      add\n      0x00\n      swap2\n      pop\n      sload\n      swap1\n      0x0100\n      exp\n      swap1\n      div\n      0xffffffffffffffffffffffffffffffffffffffff\n      and\n      dup2\n      jump\t// out\n        /* \"PriceConvertor.sol\":1201:1746  function getConversionRate(uint ethAmount) internal  view returns (uint256) {... */\n    tag_50:\n        /* \"PriceConvertor.sol\":1268:1275  uint256 */\n      0x00\n        /* \"PriceConvertor.sol\":1288:1304  uint256 ethPrice */\n      dup1\n        /* \"PriceConvertor.sol\":1307:1317  getPrice() */\n      tag_89\n        /* \"PriceConvertor.sol\":1307:1315  getPrice */\n      tag_90\n        /* \"PriceConvertor.sol\":1307:1317  getPrice() */\n      jump\t// in\n    tag_89:\n        /* \"PriceConvertor.sol\":1288:1317  uint256 ethPrice = getPrice() */\n      swap1\n      pop\n        /* \"PriceConvertor.sol\":1588:1610  uint256 ethAmountInUsd */\n      0x00\n        /* \"PriceConvertor.sol\":1636:1640  1e18 */\n      0x0de0b6b3a7640000\n        /* \"PriceConvertor.sol\":1626:1634  ethPrice */\n      dup3\n        /* \"PriceConvertor.sol\":1614:1623  ethAmount */\n      dup6\n        /* \"PriceConvertor.sol\":1614:1634  ethAmount * ethPrice */\n      tag_91\n      swap2\n      swap1\n      tag_92\n      jump\t// in\n    tag_91:\n        /* \"PriceConvertor.sol\":1613:1640  (ethAmount * ethPrice)/1e18 */\n      tag_93\n      swap2\n      swap1\n      tag_94\n      jump\t// in\n    tag_93:\n        /* \"PriceConvertor.sol\":1588:1640  uint256 ethAmountInUsd = (ethAmount * ethPrice)/1e18 */\n      swap1\n      pop\n        /* \"PriceConvertor.sol\":1724:1738  ethAmountInUsd */\n      dup1\n        /* \"PriceConvertor.sol\":1717:1738  return ethAmountInUsd */\n      swap3\n      pop\n      pop\n      pop\n        /* \"PriceConvertor.sol\":1201:1746  function getConversionRate(uint ethAmount) internal  view returns (uint256) {... */\n      swap2\n      swap1\n      pop\n      jump\t// out\n        /* \"PriceConvertor.sol\":214:1193  function getPrice() internal  view returns (uint256){... */\n    tag_90:\n        /* \"PriceConvertor.sol\":258:265  uint256 */\n      0x00\n        /* \"PriceConvertor.sol\":437:468  AggregatorV3Interface priceFeed */\n      dup1\n        /* \"PriceConvertor.sol\":493:535  0x694AA1769357215DE4FAC081bf1f309aDC325306 */\n      0x694aa1769357215de4fac081bf1f309adc325306\n        /* \"PriceConvertor.sol\":437:536  AggregatorV3Interface priceFeed = AggregatorV3Interface(0x694AA1769357215DE4FAC081bf1f309aDC325306) */\n      swap1\n      pop\n        /* \"PriceConvertor.sol\":744:756  int256 price */\n      0x00\n        /* \"PriceConvertor.sol\":882:891  priceFeed */\n      dup2\n        /* \"PriceConvertor.sol\":882:907  priceFeed.latestRoundData */\n      0xffffffffffffffffffffffffffffffffffffffff\n      and\n      0xfeaf968c\n        /* \"PriceConvertor.sol\":882:909  priceFeed.latestRoundData() */\n      mload(0x40)\n      dup2\n      0xffffffff\n      and\n      0xe0\n      shl\n      dup2\n      mstore\n      0x04\n      add\n      0xa0\n      mload(0x40)\n      dup1\n      dup4\n      sub\n      dup2\n      dup7\n      gas\n      staticcall\n      iszero\n      dup1\n      iszero\n      tag_97\n      jumpi\n      returndatasize\n      0x00\n      dup1\n      returndatacopy\n      revert(0x00, returndatasize)\n    tag_97:\n      pop\n      pop\n      pop\n      pop\n      mload(0x40)\n      returndatasize\n      not(0x1f)\n      0x1f\n      dup3\n      add\n      and\n      dup3\n      add\n      dup1\n      0x40\n      mstore\n      pop\n      dup2\n      add\n      swap1\n      tag_98\n      swap2\n      swap1\n      tag_99\n      jump\t// in\n    tag_98:\n        /* \"PriceConvertor.sol\":694:909  (... */\n      pop\n      pop\n      pop\n      swap2\n      pop\n      pop\n        /* \"PriceConvertor.sol\":1156:1160  1e10 */\n      0x02540be400\n        /* \"PriceConvertor.sol\":1148:1153  price */\n      dup2\n        /* \"PriceConvertor.sol\":1148:1160  price * 1e10 */\n      tag_100\n      swap2\n      swap1\n      tag_101\n      jump\t// in\n    tag_100:\n        /* \"PriceConvertor.sol\":1133:1161  return uint256(price * 1e10) */\n      swap3\n      pop\n      pop\n      pop\n        /* \"PriceConvertor.sol\":214:1193  function getPrice() internal  view returns (uint256){... */\n      swap1\n      jump\t// out\n    tag_77:\n      dup3\n      dup1\n      sload\n      dup3\n      dup3\n      sstore\n      swap1\n      0x00\n      mstore\n      keccak256(0x00, 0x20)\n      swap1\n      dup2\n      add\n      swap3\n      dup3\n      iszero\n      tag_102\n      jumpi\n      swap2\n      0x20\n      mul\n      dup3\n      add\n    tag_103:\n      dup3\n      dup2\n      gt\n      iszero\n      tag_104\n      jumpi\n      dup3\n      mload\n      dup3\n      exp(0x0100, 0x00)\n      dup2\n      sload\n      dup2\n      0xffffffffffffffffffffffffffffffffffffffff\n      mul\n      not\n      and\n      swap1\n      dup4\n      0xffffffffffffffffffffffffffffffffffffffff\n      and\n      mul\n      or\n      swap1\n      sstore\n      pop\n      swap2\n      0x20\n      add\n      swap2\n      swap1\n      0x01\n      add\n      swap1\n      jump(tag_103)\n    tag_104:\n    tag_102:\n      pop\n      swap1\n      pop\n      tag_105\n      swap2\n      swap1\n      tag_106\n      jump\t// in\n    tag_105:\n      pop\n      swap1\n      jump\t// out\n    tag_106:\n    tag_107:\n      dup1\n      dup3\n      gt\n      iszero\n      tag_108\n      jumpi\n      0x00\n      dup2\n      0x00\n      swap1\n      sstore\n      pop\n      0x01\n      add\n      jump(tag_107)\n    tag_108:\n      pop\n      swap1\n      jump\t// out\n        /* \"#utility.yul\":7:84   */\n    tag_109:\n        /* \"#utility.yul\":44:51   */\n      0x00\n        /* \"#utility.yul\":73:78   */\n      dup2\n        /* \"#utility.yul\":62:78   */\n      swap1\n      pop\n        /* \"#utility.yul\":7:84   */\n      swap2\n      swap1\n      pop\n      jump\t// out\n        /* \"#utility.yul\":90:208   */\n    tag_110:\n        /* \"#utility.yul\":177:201   */\n      tag_141\n        /* \"#utility.yul\":195:200   */\n      dup2\n        /* \"#utility.yul\":177:201   */\n      tag_109\n      jump\t// in\n    tag_141:\n        /* \"#utility.yul\":172:175   */\n      dup3\n        /* \"#utility.yul\":165:202   */\n      mstore\n        /* \"#utility.yul\":90:208   */\n      pop\n      pop\n      jump\t// out\n        /* \"#utility.yul\":214:436   */\n    tag_22:\n        /* \"#utility.yul\":307:311   */\n      0x00\n        /* \"#utility.yul\":345:347   */\n      0x20\n        /* \"#utility.yul\":334:343   */\n      dup3\n        /* \"#utility.yul\":330:348   */\n      add\n        /* \"#utility.yul\":322:348   */\n      swap1\n      pop\n        /* \"#utility.yul\":358:429   */\n      tag_143\n        /* \"#utility.yul\":426:427   */\n      0x00\n        /* \"#utility.yul\":415:424   */\n      dup4\n        /* \"#utility.yul\":411:428   */\n      add\n        /* \"#utility.yul\":402:408   */\n      dup5\n        /* \"#utility.yul\":358:429   */\n      tag_110\n      jump\t// in\n    tag_143:\n        /* \"#utility.yul\":214:436   */\n      swap3\n      swap2\n      pop\n      pop\n      jump\t// out\n        /* \"#utility.yul\":523:640   */\n    tag_112:\n        /* \"#utility.yul\":632:633   */\n      0x00\n        /* \"#utility.yul\":629:630   */\n      dup1\n        /* \"#utility.yul\":622:634   */\n      revert\n        /* \"#utility.yul\":769:895   */\n    tag_114:\n        /* \"#utility.yul\":806:813   */\n      0x00\n        /* \"#utility.yul\":846:888   */\n      0xffffffffffffffffffffffffffffffffffffffff\n        /* \"#utility.yul\":839:844   */\n      dup3\n        /* \"#utility.yul\":835:889   */\n      and\n        /* \"#utility.yul\":824:889   */\n      swap1\n      pop\n        /* \"#utility.yul\":769:895   */\n      swap2\n      swap1\n      pop\n      jump\t// out\n        /* \"#utility.yul\":901:997   */\n    tag_115:\n        /* \"#utility.yul\":938:945   */\n      0x00\n        /* \"#utility.yul\":967:991   */\n      tag_149\n        /* \"#utility.yul\":985:990   */\n      dup3\n        /* \"#utility.yul\":967:991   */\n      tag_114\n      jump\t// in\n    tag_149:\n        /* \"#utility.yul\":956:991   */\n      swap1\n      pop\n        /* \"#utility.yul\":901:997   */\n      swap2\n      swap1\n      pop\n      jump\t// out\n        /* \"#utility.yul\":1003:1125   */\n    tag_116:\n        /* \"#utility.yul\":1076:1100   */\n      tag_151\n        /* \"#utility.yul\":1094:1099   */\n      dup2\n        /* \"#utility.yul\":1076:1100   */\n      tag_115\n      jump\t// in\n    tag_151:\n        /* \"#utility.yul\":1069:1074   */\n      dup2\n        /* \"#utility.yul\":1066:1101   */\n      eq\n        /* \"#utility.yul\":1056:1119   */\n      tag_152\n      jumpi\n        /* \"#utility.yul\":1115:1116   */\n      0x00\n        /* \"#utility.yul\":1112:1113   */\n      dup1\n        /* \"#utility.yul\":1105:1117   */\n      revert\n        /* \"#utility.yul\":1056:1119   */\n    tag_152:\n        /* \"#utility.yul\":1003:1125   */\n      pop\n      jump\t// out\n        /* \"#utility.yul\":1131:1270   */\n    tag_117:\n        /* \"#utility.yul\":1177:1182   */\n      0x00\n        /* \"#utility.yul\":1215:1221   */\n      dup2\n        /* \"#utility.yul\":1202:1222   */\n      calldataload\n        /* \"#utility.yul\":1193:1222   */\n      swap1\n      pop\n        /* \"#utility.yul\":1231:1264   */\n      tag_154\n        /* \"#utility.yul\":1258:1263   */\n      dup2\n        /* \"#utility.yul\":1231:1264   */\n      tag_116\n      jump\t// in\n    tag_154:\n        /* \"#utility.yul\":1131:1270   */\n      swap3\n      swap2\n      pop\n      pop\n      jump\t// out\n        /* \"#utility.yul\":1276:1605   */\n    tag_34:\n        /* \"#utility.yul\":1335:1341   */\n      0x00\n        /* \"#utility.yul\":1384:1386   */\n      0x20\n        /* \"#utility.yul\":1372:1381   */\n      dup3\n        /* \"#utility.yul\":1363:1370   */\n      dup5\n        /* \"#utility.yul\":1359:1382   */\n      sub\n        /* \"#utility.yul\":1355:1387   */\n      slt\n        /* \"#utility.yul\":1352:1471   */\n      iszero\n      tag_156\n      jumpi\n        /* \"#utility.yul\":1390:1469   */\n      tag_157\n      tag_112\n      jump\t// in\n    tag_157:\n        /* \"#utility.yul\":1352:1471   */\n    tag_156:\n        /* \"#utility.yul\":1510:1511   */\n      0x00\n        /* \"#utility.yul\":1535:1588   */\n      tag_158\n        /* \"#utility.yul\":1580:1587   */\n      dup5\n        /* \"#utility.yul\":1571:1577   */\n      dup3\n        /* \"#utility.yul\":1560:1569   */\n      dup6\n        /* \"#utility.yul\":1556:1578   */\n      add\n        /* \"#utility.yul\":1535:1588   */\n      tag_117\n      jump\t// in\n    tag_158:\n        /* \"#utility.yul\":1525:1588   */\n      swap2\n      pop\n        /* \"#utility.yul\":1481:1598   */\n      pop\n        /* \"#utility.yul\":1276:1605   */\n      swap3\n      swap2\n      pop\n      pop\n      jump\t// out\n        /* \"#utility.yul\":1611:1729   */\n    tag_118:\n        /* \"#utility.yul\":1698:1722   */\n      tag_160\n        /* \"#utility.yul\":1716:1721   */\n      dup2\n        /* \"#utility.yul\":1698:1722   */\n      tag_115\n      jump\t// in\n    tag_160:\n        /* \"#utility.yul\":1693:1696   */\n      dup3\n        /* \"#utility.yul\":1686:1723   */\n      mstore\n        /* \"#utility.yul\":1611:1729   */\n      pop\n      pop\n      jump\t// out\n        /* \"#utility.yul\":1735:1957   */\n    tag_41:\n        /* \"#utility.yul\":1828:1832   */\n      0x00\n        /* \"#utility.yul\":1866:1868   */\n      0x20\n        /* \"#utility.yul\":1855:1864   */\n      dup3\n        /* \"#utility.yul\":1851:1869   */\n      add\n        /* \"#utility.yul\":1843:1869   */\n      swap1\n      pop\n        /* \"#utility.yul\":1879:1950   */\n      tag_162\n        /* \"#utility.yul\":1947:1948   */\n      0x00\n        /* \"#utility.yul\":1936:1945   */\n      dup4\n        /* \"#utility.yul\":1932:1949   */\n      add\n        /* \"#utility.yul\":1923:1929   */\n      dup5\n        /* \"#utility.yul\":1879:1950   */\n      tag_118\n      jump\t// in\n    tag_162:\n        /* \"#utility.yul\":1735:1957   */\n      swap3\n      swap2\n      pop\n      pop\n      jump\t// out\n        /* \"#utility.yul\":1963:2085   */\n    tag_119:\n        /* \"#utility.yul\":2036:2060   */\n      tag_164\n        /* \"#utility.yul\":2054:2059   */\n      dup2\n        /* \"#utility.yul\":2036:2060   */\n      tag_109\n      jump\t// in\n    tag_164:\n        /* \"#utility.yul\":2029:2034   */\n      dup2\n        /* \"#utility.yul\":2026:2061   */\n      eq\n        /* \"#utility.yul\":2016:2079   */\n      tag_165\n      jumpi\n        /* \"#utility.yul\":2075:2076   */\n      0x00\n        /* \"#utility.yul\":2072:2073   */\n      dup1\n        /* \"#utility.yul\":2065:2077   */\n      revert\n        /* \"#utility.yul\":2016:2079   */\n    tag_165:\n        /* \"#utility.yul\":1963:2085   */\n      pop\n      jump\t// out\n        /* \"#utility.yul\":2091:2230   */\n    tag_120:\n        /* \"#utility.yul\":2137:2142   */\n      0x00\n        /* \"#utility.yul\":2175:2181   */\n      dup2\n        /* \"#utility.yul\":2162:2182   */\n      calldataload\n        /* \"#utility.yul\":2153:2182   */\n      swap1\n      pop\n        /* \"#utility.yul\":2191:2224   */\n      tag_167\n        /* \"#utility.yul\":2218:2223   */\n      dup2\n        /* \"#utility.yul\":2191:2224   */\n      tag_119\n      jump\t// in\n    tag_167:\n        /* \"#utility.yul\":2091:2230   */\n      swap3\n      swap2\n      pop\n      pop\n      jump\t// out\n        /* \"#utility.yul\":2236:2565   */\n    tag_45:\n        /* \"#utility.yul\":2295:2301   */\n      0x00\n        /* \"#utility.yul\":2344:2346   */\n      0x20\n        /* \"#utility.yul\":2332:2341   */\n      dup3\n        /* \"#utility.yul\":2323:2330   */\n      dup5\n        /* \"#utility.yul\":2319:2342   */\n      sub\n        /* \"#utility.yul\":2315:2347   */\n      slt\n        /* \"#utility.yul\":2312:2431   */\n      iszero\n      tag_169\n      jumpi\n        /* \"#utility.yul\":2350:2429   */\n      tag_170\n      tag_112\n      jump\t// in\n    tag_170:\n        /* \"#utility.yul\":2312:2431   */\n    tag_169:\n        /* \"#utility.yul\":2470:2471   */\n      0x00\n        /* \"#utility.yul\":2495:2548   */\n      tag_171\n        /* \"#utility.yul\":2540:2547   */\n      dup5\n        /* \"#utility.yul\":2531:2537   */\n      dup3\n        /* \"#utility.yul\":2520:2529   */\n      dup6\n        /* \"#utility.yul\":2516:2538   */\n      add\n        /* \"#utility.yul\":2495:2548   */\n      tag_120\n      jump\t// in\n    tag_171:\n        /* \"#utility.yul\":2485:2548   */\n      swap2\n      pop\n        /* \"#utility.yul\":2441:2558   */\n      pop\n        /* \"#utility.yul\":2236:2565   */\n      swap3\n      swap2\n      pop\n      pop\n      jump\t// out\n        /* \"#utility.yul\":2571:2740   */\n    tag_121:\n        /* \"#utility.yul\":2655:2666   */\n      0x00\n        /* \"#utility.yul\":2689:2695   */\n      dup3\n        /* \"#utility.yul\":2684:2687   */\n      dup3\n        /* \"#utility.yul\":2677:2696   */\n      mstore\n        /* \"#utility.yul\":2729:2733   */\n      0x20\n        /* \"#utility.yul\":2724:2727   */\n      dup3\n        /* \"#utility.yul\":2720:2734   */\n      add\n        /* \"#utility.yul\":2705:2734   */\n      swap1\n      pop\n        /* \"#utility.yul\":2571:2740   */\n      swap3\n      swap2\n      pop\n      pop\n      jump\t// out\n        /* \"#utility.yul\":2746:2918   */\n    tag_122:\n        /* \"#utility.yul\":2886:2910   */\n      0x6e6f7420656e6f7567682045544820616d6f756e742100000000000000000000\n        /* \"#utility.yul\":2882:2883   */\n      0x00\n        /* \"#utility.yul\":2874:2880   */\n      dup3\n        /* \"#utility.yul\":2870:2884   */\n      add\n        /* \"#utility.yul\":2863:2911   */\n      mstore\n        /* \"#utility.yul\":2746:2918   */\n      pop\n      jump\t// out\n        /* \"#utility.yul\":2924:3290   */\n    tag_123:\n        /* \"#utility.yul\":3066:3069   */\n      0x00\n        /* \"#utility.yul\":3087:3154   */\n      tag_175\n        /* \"#utility.yul\":3151:3153   */\n      0x16\n        /* \"#utility.yul\":3146:3149   */\n      dup4\n        /* \"#utility.yul\":3087:3154   */\n      tag_121\n      jump\t// in\n    tag_175:\n        /* \"#utility.yul\":3080:3154   */\n      swap2\n      pop\n        /* \"#utility.yul\":3163:3256   */\n      tag_176\n        /* \"#utility.yul\":3252:3255   */\n      dup3\n        /* \"#utility.yul\":3163:3256   */\n      tag_122\n      jump\t// in\n    tag_176:\n        /* \"#utility.yul\":3281:3283   */\n      0x20\n        /* \"#utility.yul\":3276:3279   */\n      dup3\n        /* \"#utility.yul\":3272:3284   */\n      add\n        /* \"#utility.yul\":3265:3284   */\n      swap1\n      pop\n        /* \"#utility.yul\":2924:3290   */\n      swap2\n      swap1\n      pop\n      jump\t// out\n        /* \"#utility.yul\":3296:3715   */\n    tag_53:\n        /* \"#utility.yul\":3462:3466   */\n      0x00\n        /* \"#utility.yul\":3500:3502   */\n      0x20\n        /* \"#utility.yul\":3489:3498   */\n      dup3\n        /* \"#utility.yul\":3485:3503   */\n      add\n        /* \"#utility.yul\":3477:3503   */\n      swap1\n      pop\n        /* \"#utility.yul\":3549:3558   */\n      dup2\n        /* \"#utility.yul\":3543:3547   */\n      dup2\n        /* \"#utility.yul\":3539:3559   */\n      sub\n        /* \"#utility.yul\":3535:3536   */\n      0x00\n        /* \"#utility.yul\":3524:3533   */\n      dup4\n        /* \"#utility.yul\":3520:3537   */\n      add\n        /* \"#utility.yul\":3513:3560   */\n      mstore\n        /* \"#utility.yul\":3577:3708   */\n      tag_178\n        /* \"#utility.yul\":3703:3707   */\n      dup2\n        /* \"#utility.yul\":3577:3708   */\n      tag_123\n      jump\t// in\n    tag_178:\n        /* \"#utility.yul\":3569:3708   */\n      swap1\n      pop\n        /* \"#utility.yul\":3296:3715   */\n      swap2\n      swap1\n      pop\n      jump\t// out\n        /* \"#utility.yul\":3721:3901   */\n    tag_124:\n        /* \"#utility.yul\":3769:3846   */\n      0x4e487b7100000000000000000000000000000000000000000000000000000000\n        /* \"#utility.yul\":3766:3767   */\n      0x00\n        /* \"#utility.yul\":3759:3847   */\n      mstore\n        /* \"#utility.yul\":3866:3870   */\n      0x11\n        /* \"#utility.yul\":3863:3864   */\n      0x04\n        /* \"#utility.yul\":3856:3871   */\n      mstore\n        /* \"#utility.yul\":3890:3894   */\n      0x24\n        /* \"#utility.yul\":3887:3888   */\n      0x00\n        /* \"#utility.yul\":3880:3895   */\n      revert\n        /* \"#utility.yul\":3907:4098   */\n    tag_56:\n        /* \"#utility.yul\":3947:3950   */\n      0x00\n        /* \"#utility.yul\":3966:3986   */\n      tag_181\n        /* \"#utility.yul\":3984:3985   */\n      dup3\n        /* \"#utility.yul\":3966:3986   */\n      tag_109\n      jump\t// in\n    tag_181:\n        /* \"#utility.yul\":3961:3986   */\n      swap2\n      pop\n        /* \"#utility.yul\":4000:4020   */\n      tag_182\n        /* \"#utility.yul\":4018:4019   */\n      dup4\n        /* \"#utility.yul\":4000:4020   */\n      tag_109\n      jump\t// in\n    tag_182:\n        /* \"#utility.yul\":3995:4020   */\n      swap3\n      pop\n        /* \"#utility.yul\":4043:4044   */\n      dup3\n        /* \"#utility.yul\":4040:4041   */\n      dup3\n        /* \"#utility.yul\":4036:4045   */\n      add\n        /* \"#utility.yul\":4029:4045   */\n      swap1\n      pop\n        /* \"#utility.yul\":4064:4067   */\n      dup1\n        /* \"#utility.yul\":4061:4062   */\n      dup3\n        /* \"#utility.yul\":4058:4068   */\n      gt\n        /* \"#utility.yul\":4055:4091   */\n      iszero\n      tag_183\n      jumpi\n        /* \"#utility.yul\":4071:4089   */\n      tag_184\n      tag_124\n      jump\t// in\n    tag_184:\n        /* \"#utility.yul\":4055:4091   */\n    tag_183:\n        /* \"#utility.yul\":3907:4098   */\n      swap3\n      swap2\n      pop\n      pop\n      jump\t// out\n        /* \"#utility.yul\":4104:4247   */\n    tag_125:\n        /* \"#utility.yul\":4161:4166   */\n      0x00\n        /* \"#utility.yul\":4192:4198   */\n      dup2\n        /* \"#utility.yul\":4186:4199   */\n      mload\n        /* \"#utility.yul\":4177:4199   */\n      swap1\n      pop\n        /* \"#utility.yul\":4208:4241   */\n      tag_186\n        /* \"#utility.yul\":4235:4240   */\n      dup2\n        /* \"#utility.yul\":4208:4241   */\n      tag_119\n      jump\t// in\n    tag_186:\n        /* \"#utility.yul\":4104:4247   */\n      swap3\n      swap2\n      pop\n      pop\n      jump\t// out\n        /* \"#utility.yul\":4253:4604   */\n    tag_61:\n        /* \"#utility.yul\":4323:4329   */\n      0x00\n        /* \"#utility.yul\":4372:4374   */\n      0x20\n        /* \"#utility.yul\":4360:4369   */\n      dup3\n        /* \"#utility.yul\":4351:4358   */\n      dup5\n        /* \"#utility.yul\":4347:4370   */\n      sub\n        /* \"#utility.yul\":4343:4375   */\n      slt\n        /* \"#utility.yul\":4340:4459   */\n      iszero\n      tag_188\n      jumpi\n        /* \"#utility.yul\":4378:4457   */\n      tag_189\n      tag_112\n      jump\t// in\n    tag_189:\n        /* \"#utility.yul\":4340:4459   */\n    tag_188:\n        /* \"#utility.yul\":4498:4499   */\n      0x00\n        /* \"#utility.yul\":4523:4587   */\n      tag_190\n        /* \"#utility.yul\":4579:4586   */\n      dup5\n        /* \"#utility.yul\":4570:4576   */\n      dup3\n        /* \"#utility.yul\":4559:4568   */\n      dup6\n        /* \"#utility.yul\":4555:4577   */\n      add\n        /* \"#utility.yul\":4523:4587   */\n      tag_125\n      jump\t// in\n    tag_190:\n        /* \"#utility.yul\":4513:4587   */\n      swap2\n      pop\n        /* \"#utility.yul\":4469:4597   */\n      pop\n        /* \"#utility.yul\":4253:4604   */\n      swap3\n      swap2\n      pop\n      pop\n      jump\t// out\n        /* \"#utility.yul\":4610:4790   */\n    tag_70:\n        /* \"#utility.yul\":4658:4735   */\n      0x4e487b7100000000000000000000000000000000000000000000000000000000\n        /* \"#utility.yul\":4655:4656   */\n      0x00\n        /* \"#utility.yul\":4648:4736   */\n      mstore\n        /* \"#utility.yul\":4755:4759   */\n      0x32\n        /* \"#utility.yul\":4752:4753   */\n      0x04\n        /* \"#utility.yul\":4745:4760   */\n      mstore\n        /* \"#utility.yul\":4779:4783   */\n      0x24\n        /* \"#utility.yul\":4776:4777   */\n      0x00\n        /* \"#utility.yul\":4769:4784   */\n      revert\n        /* \"#utility.yul\":4796:4976   */\n    tag_74:\n        /* \"#utility.yul\":4844:4921   */\n      0x4e487b7100000000000000000000000000000000000000000000000000000000\n        /* \"#utility.yul\":4841:4842   */\n      0x00\n        /* \"#utility.yul\":4834:4922   */\n      mstore\n        /* \"#utility.yul\":4941:4945   */\n      0x41\n        /* \"#utility.yul\":4938:4939   */\n      0x04\n        /* \"#utility.yul\":4931:4946   */\n      mstore\n        /* \"#utility.yul\":4965:4969   */\n      0x24\n        /* \"#utility.yul\":4962:4963   */\n      0x00\n        /* \"#utility.yul\":4955:4970   */\n      revert\n        /* \"#utility.yul\":4982:5129   */\n    tag_126:\n        /* \"#utility.yul\":5083:5094   */\n      0x00\n        /* \"#utility.yul\":5120:5123   */\n      dup2\n        /* \"#utility.yul\":5105:5123   */\n      swap1\n      pop\n        /* \"#utility.yul\":4982:5129   */\n      swap3\n      swap2\n      pop\n      pop\n      jump\t// out\n        /* \"#utility.yul\":5135:5249   */\n    tag_127:\n      pop\n      jump\t// out\n        /* \"#utility.yul\":5255:5653   */\n    tag_128:\n        /* \"#utility.yul\":5414:5417   */\n      0x00\n        /* \"#utility.yul\":5435:5518   */\n      tag_196\n        /* \"#utility.yul\":5516:5517   */\n      0x00\n        /* \"#utility.yul\":5511:5514   */\n      dup4\n        /* \"#utility.yul\":5435:5518   */\n      tag_126\n      jump\t// in\n    tag_196:\n        /* \"#utility.yul\":5428:5518   */\n      swap2\n      pop\n        /* \"#utility.yul\":5527:5620   */\n      tag_197\n        /* \"#utility.yul\":5616:5619   */\n      dup3\n        /* \"#utility.yul\":5527:5620   */\n      tag_127\n      jump\t// in\n    tag_197:\n        /* \"#utility.yul\":5645:5646   */\n      0x00\n        /* \"#utility.yul\":5640:5643   */\n      dup3\n        /* \"#utility.yul\":5636:5647   */\n      add\n        /* \"#utility.yul\":5629:5647   */\n      swap1\n      pop\n        /* \"#utility.yul\":5255:5653   */\n      swap2\n      swap1\n      pop\n      jump\t// out\n        /* \"#utility.yul\":5659:6038   */\n    tag_79:\n        /* \"#utility.yul\":5843:5846   */\n      0x00\n        /* \"#utility.yul\":5865:6012   */\n      tag_199\n        /* \"#utility.yul\":6008:6011   */\n      dup3\n        /* \"#utility.yul\":5865:6012   */\n      tag_128\n      jump\t// in\n    tag_199:\n        /* \"#utility.yul\":5858:6012   */\n      swap2\n      pop\n        /* \"#utility.yul\":6029:6032   */\n      dup2\n        /* \"#utility.yul\":6022:6032   */\n      swap1\n      pop\n        /* \"#utility.yul\":5659:6038   */\n      swap2\n      swap1\n      pop\n      jump\t// out\n        /* \"#utility.yul\":6044:6205   */\n    tag_129:\n        /* \"#utility.yul\":6184:6197   */\n      0x43616c6c206661696c6564000000000000000000000000000000000000000000\n        /* \"#utility.yul\":6180:6181   */\n      0x00\n        /* \"#utility.yul\":6172:6178   */\n      dup3\n        /* \"#utility.yul\":6168:6182   */\n      add\n        /* \"#utility.yul\":6161:6198   */\n      mstore\n        /* \"#utility.yul\":6044:6205   */\n      pop\n      jump\t// out\n        /* \"#utility.yul\":6211:6577   */\n    tag_130:\n        /* \"#utility.yul\":6353:6356   */\n      0x00\n        /* \"#utility.yul\":6374:6441   */\n      tag_202\n        /* \"#utility.yul\":6438:6440   */\n      0x0b\n        /* \"#utility.yul\":6433:6436   */\n      dup4\n        /* \"#utility.yul\":6374:6441   */\n      tag_121\n      jump\t// in\n    tag_202:\n        /* \"#utility.yul\":6367:6441   */\n      swap2\n      pop\n        /* \"#utility.yul\":6450:6543   */\n      tag_203\n        /* \"#utility.yul\":6539:6542   */\n      dup3\n        /* \"#utility.yul\":6450:6543   */\n      tag_129\n      jump\t// in\n    tag_203:\n        /* \"#utility.yul\":6568:6570   */\n      0x20\n        /* \"#utility.yul\":6563:6566   */\n      dup3\n        /* \"#utility.yul\":6559:6571   */\n      add\n        /* \"#utility.yul\":6552:6571   */\n      swap1\n      pop\n        /* \"#utility.yul\":6211:6577   */\n      swap2\n      swap1\n      pop\n      jump\t// out\n        /* \"#utility.yul\":6583:7002   */\n    tag_85:\n        /* \"#utility.yul\":6749:6753   */\n      0x00\n        /* \"#utility.yul\":6787:6789   */\n      0x20\n        /* \"#utility.yul\":6776:6785   */\n      dup3\n        /* \"#utility.yul\":6772:6790   */\n      add\n        /* \"#utility.yul\":6764:6790   */\n      swap1\n      pop\n        /* \"#utility.yul\":6836:6845   */\n      dup2\n        /* \"#utility.yul\":6830:6834   */\n      dup2\n        /* \"#utility.yul\":6826:6846   */\n      sub\n        /* \"#utility.yul\":6822:6823   */\n      0x00\n        /* \"#utility.yul\":6811:6820   */\n      dup4\n        /* \"#utility.yul\":6807:6824   */\n      add\n        /* \"#utility.yul\":6800:6847   */\n      mstore\n        /* \"#utility.yul\":6864:6995   */\n      tag_205\n        /* \"#utility.yul\":6990:6994   */\n      dup2\n        /* \"#utility.yul\":6864:6995   */\n      tag_130\n      jump\t// in\n    tag_205:\n        /* \"#utility.yul\":6856:6995   */\n      swap1\n      pop\n        /* \"#utility.yul\":6583:7002   */\n      swap2\n      swap1\n      pop\n      jump\t// out\n        /* \"#utility.yul\":7008:7418   */\n    tag_92:\n        /* \"#utility.yul\":7048:7055   */\n      0x00\n        /* \"#utility.yul\":7071:7091   */\n      tag_207\n        /* \"#utility.yul\":7089:7090   */\n      dup3\n        /* \"#utility.yul\":7071:7091   */\n      tag_109\n      jump\t// in\n    tag_207:\n        /* \"#utility.yul\":7066:7091   */\n      swap2\n      pop\n        /* \"#utility.yul\":7105:7125   */\n      tag_208\n        /* \"#utility.yul\":7123:7124   */\n      dup4\n        /* \"#utility.yul\":7105:7125   */\n      tag_109\n      jump\t// in\n    tag_208:\n        /* \"#utility.yul\":7100:7125   */\n      swap3\n      pop\n        /* \"#utility.yul\":7160:7161   */\n      dup3\n        /* \"#utility.yul\":7157:7158   */\n      dup3\n        /* \"#utility.yul\":7153:7162   */\n      mul\n        /* \"#utility.yul\":7182:7212   */\n      tag_209\n        /* \"#utility.yul\":7200:7211   */\n      dup2\n        /* \"#utility.yul\":7182:7212   */\n      tag_109\n      jump\t// in\n    tag_209:\n        /* \"#utility.yul\":7171:7212   */\n      swap2\n      pop\n        /* \"#utility.yul\":7361:7362   */\n      dup3\n        /* \"#utility.yul\":7352:7359   */\n      dup3\n        /* \"#utility.yul\":7348:7363   */\n      div\n        /* \"#utility.yul\":7345:7346   */\n      dup5\n        /* \"#utility.yul\":7342:7364   */\n      eq\n        /* \"#utility.yul\":7322:7323   */\n      dup4\n        /* \"#utility.yul\":7315:7324   */\n      iszero\n        /* \"#utility.yul\":7295:7378   */\n      or\n        /* \"#utility.yul\":7272:7411   */\n      tag_210\n      jumpi\n        /* \"#utility.yul\":7391:7409   */\n      tag_211\n      tag_124\n      jump\t// in\n    tag_211:\n        /* \"#utility.yul\":7272:7411   */\n    tag_210:\n        /* \"#utility.yul\":7056:7418   */\n      pop\n        /* \"#utility.yul\":7008:7418   */\n      swap3\n      swap2\n      pop\n      pop\n      jump\t// out\n        /* \"#utility.yul\":7424:7604   */\n    tag_131:\n        /* \"#utility.yul\":7472:7549   */\n      0x4e487b7100000000000000000000000000000000000000000000000000000000\n        /* \"#utility.yul\":7469:7470   */\n      0x00\n        /* \"#utility.yul\":7462:7550   */\n      mstore\n        /* \"#utility.yul\":7569:7573   */\n      0x12\n        /* \"#utility.yul\":7566:7567   */\n      0x04\n        /* \"#utility.yul\":7559:7574   */\n      mstore\n        /* \"#utility.yul\":7593:7597   */\n      0x24\n        /* \"#utility.yul\":7590:7591   */\n      0x00\n        /* \"#utility.yul\":7583:7598   */\n      revert\n        /* \"#utility.yul\":7610:7795   */\n    tag_94:\n        /* \"#utility.yul\":7650:7651   */\n      0x00\n        /* \"#utility.yul\":7667:7687   */\n      tag_214\n        /* \"#utility.yul\":7685:7686   */\n      dup3\n        /* \"#utility.yul\":7667:7687   */\n      tag_109\n      jump\t// in\n    tag_214:\n        /* \"#utility.yul\":7662:7687   */\n      swap2\n      pop\n        /* \"#utility.yul\":7701:7721   */\n      tag_215\n        /* \"#utility.yul\":7719:7720   */\n      dup4\n        /* \"#utility.yul\":7701:7721   */\n      tag_109\n      jump\t// in\n    tag_215:\n        /* \"#utility.yul\":7696:7721   */\n      swap3\n      pop\n        /* \"#utility.yul\":7740:7741   */\n      dup3\n        /* \"#utility.yul\":7730:7765   */\n      tag_216\n      jumpi\n        /* \"#utility.yul\":7745:7763   */\n      tag_217\n      tag_131\n      jump\t// in\n    tag_217:\n        /* \"#utility.yul\":7730:7765   */\n    tag_216:\n        /* \"#utility.yul\":7787:7788   */\n      dup3\n        /* \"#utility.yul\":7784:7785   */\n      dup3\n        /* \"#utility.yul\":7780:7789   */\n      div\n        /* \"#utility.yul\":7775:7789   */\n      swap1\n      pop\n        /* \"#utility.yul\":7610:7795   */\n      swap3\n      swap2\n      pop\n      pop\n      jump\t// out\n        /* \"#utility.yul\":7801:7906   */\n    tag_132:\n        /* \"#utility.yul\":7837:7844   */\n      0x00\n        /* \"#utility.yul\":7877:7899   */\n      0xffffffffffffffffffff\n        /* \"#utility.yul\":7870:7875   */\n      dup3\n        /* \"#utility.yul\":7866:7900   */\n      and\n        /* \"#utility.yul\":7855:7900   */\n      swap1\n      pop\n        /* \"#utility.yul\":7801:7906   */\n      swap2\n      swap1\n      pop\n      jump\t// out\n        /* \"#utility.yul\":7912:8032   */\n    tag_133:\n        /* \"#utility.yul\":7984:8007   */\n      tag_220\n        /* \"#utility.yul\":8001:8006   */\n      dup2\n        /* \"#utility.yul\":7984:8007   */\n      tag_132\n      jump\t// in\n    tag_220:\n        /* \"#utility.yul\":7977:7982   */\n      dup2\n        /* \"#utility.yul\":7974:8008   */\n      eq\n        /* \"#utility.yul\":7964:8026   */\n      tag_221\n      jumpi\n        /* \"#utility.yul\":8022:8023   */\n      0x00\n        /* \"#utility.yul\":8019:8020   */\n      dup1\n        /* \"#utility.yul\":8012:8024   */\n      revert\n        /* \"#utility.yul\":7964:8026   */\n    tag_221:\n        /* \"#utility.yul\":7912:8032   */\n      pop\n      jump\t// out\n        /* \"#utility.yul\":8038:8179   */\n    tag_134:\n        /* \"#utility.yul\":8094:8099   */\n      0x00\n        /* \"#utility.yul\":8125:8131   */\n      dup2\n        /* \"#utility.yul\":8119:8132   */\n      mload\n        /* \"#utility.yul\":8110:8132   */\n      swap1\n      pop\n        /* \"#utility.yul\":8141:8173   */\n      tag_223\n        /* \"#utility.yul\":8167:8172   */\n      dup2\n        /* \"#utility.yul\":8141:8173   */\n      tag_133\n      jump\t// in\n    tag_223:\n        /* \"#utility.yul\":8038:8179   */\n      swap3\n      swap2\n      pop\n      pop\n      jump\t// out\n        /* \"#utility.yul\":8185:8261   */\n    tag_135:\n        /* \"#utility.yul\":8221:8228   */\n      0x00\n        /* \"#utility.yul\":8250:8255   */\n      dup2\n        /* \"#utility.yul\":8239:8255   */\n      swap1\n      pop\n        /* \"#utility.yul\":8185:8261   */\n      swap2\n      swap1\n      pop\n      jump\t// out\n        /* \"#utility.yul\":8267:8387   */\n    tag_136:\n        /* \"#utility.yul\":8339:8362   */\n      tag_226\n        /* \"#utility.yul\":8356:8361   */\n      dup2\n        /* \"#utility.yul\":8339:8362   */\n      tag_135\n      jump\t// in\n    tag_226:\n        /* \"#utility.yul\":8332:8337   */\n      dup2\n        /* \"#utility.yul\":8329:8363   */\n      eq\n        /* \"#utility.yul\":8319:8381   */\n      tag_227\n      jumpi\n        /* \"#utility.yul\":8377:8378   */\n      0x00\n        /* \"#utility.yul\":8374:8375   */\n      dup1\n        /* \"#utility.yul\":8367:8379   */\n      revert\n        /* \"#utility.yul\":8319:8381   */\n    tag_227:\n        /* \"#utility.yul\":8267:8387   */\n      pop\n      jump\t// out\n        /* \"#utility.yul\":8393:8534   */\n    tag_137:\n        /* \"#utility.yul\":8449:8454   */\n      0x00\n        /* \"#utility.yul\":8480:8486   */\n      dup2\n        /* \"#utility.yul\":8474:8487   */\n      mload\n        /* \"#utility.yul\":8465:8487   */\n      swap1\n      pop\n        /* \"#utility.yul\":8496:8528   */\n      tag_229\n        /* \"#utility.yul\":8522:8527   */\n      dup2\n        /* \"#utility.yul\":8496:8528   */\n      tag_136\n      jump\t// in\n    tag_229:\n        /* \"#utility.yul\":8393:8534   */\n      swap3\n      swap2\n      pop\n      pop\n      jump\t// out\n        /* \"#utility.yul\":8540:9511   */\n    tag_99:\n        /* \"#utility.yul\":8643:8649   */\n      0x00\n        /* \"#utility.yul\":8651:8657   */\n      dup1\n        /* \"#utility.yul\":8659:8665   */\n      0x00\n        /* \"#utility.yul\":8667:8673   */\n      dup1\n        /* \"#utility.yul\":8675:8681   */\n      0x00\n        /* \"#utility.yul\":8724:8727   */\n      0xa0\n        /* \"#utility.yul\":8712:8721   */\n      dup7\n        /* \"#utility.yul\":8703:8710   */\n      dup9\n        /* \"#utility.yul\":8699:8722   */\n      sub\n        /* \"#utility.yul\":8695:8728   */\n      slt\n        /* \"#utility.yul\":8692:8812   */\n      iszero\n      tag_231\n      jumpi\n        /* \"#utility.yul\":8731:8810   */\n      tag_232\n      tag_112\n      jump\t// in\n    tag_232:\n        /* \"#utility.yul\":8692:8812   */\n    tag_231:\n        /* \"#utility.yul\":8851:8852   */\n      0x00\n        /* \"#utility.yul\":8876:8939   */\n      tag_233\n        /* \"#utility.yul\":8931:8938   */\n      dup9\n        /* \"#utility.yul\":8922:8928   */\n      dup3\n        /* \"#utility.yul\":8911:8920   */\n      dup10\n        /* \"#utility.yul\":8907:8929   */\n      add\n        /* \"#utility.yul\":8876:8939   */\n      tag_134\n      jump\t// in\n    tag_233:\n        /* \"#utility.yul\":8866:8939   */\n      swap6\n      pop\n        /* \"#utility.yul\":8822:8949   */\n      pop\n        /* \"#utility.yul\":8988:8990   */\n      0x20\n        /* \"#utility.yul\":9014:9077   */\n      tag_234\n        /* \"#utility.yul\":9069:9076   */\n      dup9\n        /* \"#utility.yul\":9060:9066   */\n      dup3\n        /* \"#utility.yul\":9049:9058   */\n      dup10\n        /* \"#utility.yul\":9045:9067   */\n      add\n        /* \"#utility.yul\":9014:9077   */\n      tag_137\n      jump\t// in\n    tag_234:\n        /* \"#utility.yul\":9004:9077   */\n      swap5\n      pop\n        /* \"#utility.yul\":8959:9087   */\n      pop\n        /* \"#utility.yul\":9126:9128   */\n      0x40\n        /* \"#utility.yul\":9152:9216   */\n      tag_235\n        /* \"#utility.yul\":9208:9215   */\n      dup9\n        /* \"#utility.yul\":9199:9205   */\n      dup3\n        /* \"#utility.yul\":9188:9197   */\n      dup10\n        /* \"#utility.yul\":9184:9206   */\n      add\n        /* \"#utility.yul\":9152:9216   */\n      tag_125\n      jump\t// in\n    tag_235:\n        /* \"#utility.yul\":9142:9216   */\n      swap4\n      pop\n        /* \"#utility.yul\":9097:9226   */\n      pop\n        /* \"#utility.yul\":9265:9267   */\n      0x60\n        /* \"#utility.yul\":9291:9355   */\n      tag_236\n        /* \"#utility.yul\":9347:9354   */\n      dup9\n        /* \"#utility.yul\":9338:9344   */\n      dup3\n        /* \"#utility.yul\":9327:9336   */\n      dup10\n        /* \"#utility.yul\":9323:9345   */\n      add\n        /* \"#utility.yul\":9291:9355   */\n      tag_125\n      jump\t// in\n    tag_236:\n        /* \"#utility.yul\":9281:9355   */\n      swap3\n      pop\n        /* \"#utility.yul\":9236:9365   */\n      pop\n        /* \"#utility.yul\":9404:9407   */\n      0x80\n        /* \"#utility.yul\":9431:9494   */\n      tag_237\n        /* \"#utility.yul\":9486:9493   */\n      dup9\n        /* \"#utility.yul\":9477:9483   */\n      dup3\n        /* \"#utility.yul\":9466:9475   */\n      dup10\n        /* \"#utility.yul\":9462:9484   */\n      add\n        /* \"#utility.yul\":9431:9494   */\n      tag_134\n      jump\t// in\n    tag_237:\n        /* \"#utility.yul\":9421:9494   */\n      swap2\n      pop\n        /* \"#utility.yul\":9375:9504   */\n      pop\n        /* \"#utility.yul\":8540:9511   */\n      swap3\n      swap6\n      pop\n      swap3\n      swap6\n      swap1\n      swap4\n      pop\n      jump\t// out\n        /* \"#utility.yul\":9517:10073   */\n    tag_101:\n        /* \"#utility.yul\":9556:9563   */\n      0x00\n        /* \"#utility.yul\":9579:9598   */\n      tag_239\n        /* \"#utility.yul\":9596:9597   */\n      dup3\n        /* \"#utility.yul\":9579:9598   */\n      tag_135\n      jump\t// in\n    tag_239:\n        /* \"#utility.yul\":9574:9598   */\n      swap2\n      pop\n        /* \"#utility.yul\":9612:9631   */\n      tag_240\n        /* \"#utility.yul\":9629:9630   */\n      dup4\n        /* \"#utility.yul\":9612:9631   */\n      tag_135\n      jump\t// in\n    tag_240:\n        /* \"#utility.yul\":9607:9631   */\n      swap3\n      pop\n        /* \"#utility.yul\":9666:9667   */\n      dup3\n        /* \"#utility.yul\":9663:9664   */\n      dup3\n        /* \"#utility.yul\":9659:9668   */\n      mul\n        /* \"#utility.yul\":9688:9717   */\n      tag_241\n        /* \"#utility.yul\":9705:9716   */\n      dup2\n        /* \"#utility.yul\":9688:9717   */\n      tag_135\n      jump\t// in\n    tag_241:\n        /* \"#utility.yul\":9677:9717   */\n      swap2\n      pop\n        /* \"#utility.yul\":9775:9841   */\n      0x8000000000000000000000000000000000000000000000000000000000000000\n        /* \"#utility.yul\":9772:9773   */\n      dup5\n        /* \"#utility.yul\":9769:9842   */\n      eq\n        /* \"#utility.yul\":9765:9766   */\n      0x00\n        /* \"#utility.yul\":9762:9763   */\n      dup5\n        /* \"#utility.yul\":9758:9767   */\n      slt\n        /* \"#utility.yul\":9754:9843   */\n      and\n        /* \"#utility.yul\":9751:9866   */\n      iszero\n      tag_242\n      jumpi\n        /* \"#utility.yul\":9846:9864   */\n      tag_243\n      tag_124\n      jump\t// in\n    tag_243:\n        /* \"#utility.yul\":9751:9866   */\n    tag_242:\n        /* \"#utility.yul\":10016:10017   */\n      dup3\n        /* \"#utility.yul\":10007:10014   */\n      dup3\n        /* \"#utility.yul\":10002:10018   */\n      sdiv\n        /* \"#utility.yul\":9999:10000   */\n      dup5\n        /* \"#utility.yul\":9996:10019   */\n      eq\n        /* \"#utility.yul\":9976:9977   */\n      dup4\n        /* \"#utility.yul\":9969:9978   */\n      iszero\n        /* \"#utility.yul\":9949:10033   */\n      or\n        /* \"#utility.yul\":9926:10066   */\n      tag_244\n      jumpi\n        /* \"#utility.yul\":10046:10064   */\n      tag_245\n      tag_124\n      jump\t// in\n    tag_245:\n        /* \"#utility.yul\":9926:10066   */\n    tag_244:\n        /* \"#utility.yul\":9564:10073   */\n      pop\n        /* \"#utility.yul\":9517:10073   */\n      swap3\n      swap2\n      pop\n      pop\n      jump\t// out\n\n    auxdata: 0xa264697066735822122026ce303f03c48539327441549ddc481ac89f14b8ca1142a8deed5bc5c4ef18bd64736f6c634300081a0033\n}\n",
				"bytecode": {
					"linkReferences": {},
					"object": "60a0604052348015600e575f80fd5b503373ffffffffffffffffffffffffffffffffffffffff1660808173ffffffffffffffffffffffffffffffffffffffff1681525050608051610d196100625f395f818161036e01526105ba0152610d195ff3fe608060405260043610610073575f3560e01c80636ce1417e1161004d5780636ce1417e146100f6578063b804f81f14610100578063dba6335f1461013c578063dc0d3dff1461016657610082565b80630d8e6e2c1461008c57806357ea89b6146100b65780636b69a592146100cc57610082565b36610082576100806101a2565b005b61008a6101a2565b005b348015610097575f80fd5b506100a06102e0565b6040516100ad91906107ad565b60405180910390f35b3480156100c1575f80fd5b506100ca61036c565b005b3480156100d7575f80fd5b506100e0610597565b6040516100ed91906107ad565b60405180910390f35b6100fe6101a2565b005b34801561010b575f80fd5b5061012660048036038101906101219190610824565b6105a3565b60405161013391906107ad565b60405180910390f35b348015610147575f80fd5b506101506105b8565b60405161015d919061085e565b60405180910390f35b348015610171575f80fd5b5061018c600480360381019061018791906108a1565b6105dc565b604051610199919061085e565b60405180910390f35b674563918244f400006101b434610616565b10156101f5576040517f08c379a00000000000000000000000000000000000000000000000000000000081526004016101ec90610926565b60405180910390fd5b5f33908060018154018082558091505060019003905f5260205f20015f9091909190916101000a81548173ffffffffffffffffffffffffffffffffffffffff021916908373ffffffffffffffffffffffffffffffffffffffff1602179055503460015f3373ffffffffffffffffffffffffffffffffffffffff1673ffffffffffffffffffffffffffffffffffffffff1681526020019081526020015f205461029d9190610971565b60015f3373ffffffffffffffffffffffffffffffffffffffff1673ffffffffffffffffffffffffffffffffffffffff1681526020019081526020015f2081905550565b5f8073feeff7c3fb57d18c5c6cdd71e45d2d0b4f9377bf90508073ffffffffffffffffffffffffffffffffffffffff166354fd4d506040518163ffffffff1660e01b8152600401602060405180830381865afa158015610342573d5f803e3d5ffd5b505050506040513d601f19601f8201168201806040525081019061036691906109b8565b91505090565b7f000000000000000000000000000000000000000000000000000000000000000073ffffffffffffffffffffffffffffffffffffffff163373ffffffffffffffffffffffffffffffffffffffff16146103f1576040517f30cd747100000000000000000000000000000000000000000000000000000000815260040160405180910390fd5b5f5b5f8054905081101561048d575f808281548110610413576104126109e3565b5b905f5260205f20015f9054906101000a900473ffffffffffffffffffffffffffffffffffffffff1690505f60015f8373ffffffffffffffffffffffffffffffffffffffff1673ffffffffffffffffffffffffffffffffffffffff1681526020019081526020015f20819055505080806001019150506103f3565b505f67ffffffffffffffff8111156104a8576104a7610a10565b5b6040519080825280602002602001820160405280156104d65781602001602082028036833780820191505090505b505f90805190602001906104eb9291906106f3565b505f3373ffffffffffffffffffffffffffffffffffffffff164760405161051190610a6a565b5f6040518083038185875af1925050503d805f811461054b576040519150601f19603f3d011682016040523d82523d5f602084013e610550565b606091505b5050905080610594576040517f08c379a000000000000000000000000000000000000000000000000000000000815260040161058b90610ac8565b60405180910390fd5b50565b674563918244f4000081565b6001602052805f5260405f205f915090505481565b7f000000000000000000000000000000000000000000000000000000000000000081565b5f81815481106105ea575f80fd5b905f5260205f20015f915054906101000a900473ffffffffffffffffffffffffffffffffffffffff1681565b5f8061062061064e565b90505f670de0b6b3a764000082856106389190610ae6565b6106429190610b54565b90508092505050919050565b5f8073694aa1769357215de4fac081bf1f309adc32530690505f8173ffffffffffffffffffffffffffffffffffffffff1663feaf968c6040518163ffffffff1660e01b815260040160a060405180830381865afa1580156106b1573d5f803e3d5ffd5b505050506040513d601f19601f820116820180604052508101906106d59190610bf6565b5050509150506402540be400816106ec9190610c6d565b9250505090565b828054828255905f5260205f20908101928215610769579160200282015b82811115610768578251825f6101000a81548173ffffffffffffffffffffffffffffffffffffffff021916908373ffffffffffffffffffffffffffffffffffffffff16021790555091602001919060010190610711565b5b509050610776919061077a565b5090565b5b80821115610791575f815f90555060010161077b565b5090565b5f819050919050565b6107a781610795565b82525050565b5f6020820190506107c05f83018461079e565b92915050565b5f80fd5b5f73ffffffffffffffffffffffffffffffffffffffff82169050919050565b5f6107f3826107ca565b9050919050565b610803816107e9565b811461080d575f80fd5b50565b5f8135905061081e816107fa565b92915050565b5f60208284031215610839576108386107c6565b5b5f61084684828501610810565b91505092915050565b610858816107e9565b82525050565b5f6020820190506108715f83018461084f565b92915050565b61088081610795565b811461088a575f80fd5b50565b5f8135905061089b81610877565b92915050565b5f602082840312156108b6576108b56107c6565b5b5f6108c38482850161088d565b91505092915050565b5f82825260208201905092915050565b7f6e6f7420656e6f7567682045544820616d6f756e7421000000000000000000005f82015250565b5f6109106016836108cc565b915061091b826108dc565b602082019050919050565b5f6020820190508181035f83015261093d81610904565b9050919050565b7f4e487b71000000000000000000000000000000000000000000000000000000005f52601160045260245ffd5b5f61097b82610795565b915061098683610795565b925082820190508082111561099e5761099d610944565b5b92915050565b5f815190506109b281610877565b92915050565b5f602082840312156109cd576109cc6107c6565b5b5f6109da848285016109a4565b91505092915050565b7f4e487b71000000000000000000000000000000000000000000000000000000005f52603260045260245ffd5b7f4e487b71000000000000000000000000000000000000000000000000000000005f52604160045260245ffd5b5f81905092915050565b50565b5f610a555f83610a3d565b9150610a6082610a47565b5f82019050919050565b5f610a7482610a4a565b9150819050919050565b7f43616c6c206661696c65640000000000000000000000000000000000000000005f82015250565b5f610ab2600b836108cc565b9150610abd82610a7e565b602082019050919050565b5f6020820190508181035f830152610adf81610aa6565b9050919050565b5f610af082610795565b9150610afb83610795565b9250828202610b0981610795565b91508282048414831517610b2057610b1f610944565b5b5092915050565b7f4e487b71000000000000000000000000000000000000000000000000000000005f52601260045260245ffd5b5f610b5e82610795565b9150610b6983610795565b925082610b7957610b78610b27565b5b828204905092915050565b5f69ffffffffffffffffffff82169050919050565b610ba281610b84565b8114610bac575f80fd5b50565b5f81519050610bbd81610b99565b92915050565b5f819050919050565b610bd581610bc3565b8114610bdf575f80fd5b50565b5f81519050610bf081610bcc565b92915050565b5f805f805f60a08688031215610c0f57610c0e6107c6565b5b5f610c1c88828901610baf565b9550506020610c2d88828901610be2565b9450506040610c3e888289016109a4565b9350506060610c4f888289016109a4565b9250506080610c6088828901610baf565b9150509295509295909350565b5f610c7782610bc3565b9150610c8283610bc3565b9250828202610c9081610bc3565b91507f800000000000000000000000000000000000000000000000000000000000000084145f84121615610cc757610cc6610944565b5b8282058414831517610cdc57610cdb610944565b5b509291505056fea264697066735822122026ce303f03c48539327441549ddc481ac89f14b8ca1142a8deed5bc5c4ef18bd64736f6c634300081a0033",
					"opcodes": "PUSH1 0xA0 PUSH1 0x40 MSTORE CALLVALUE DUP1 ISZERO PUSH1 0xE JUMPI PUSH0 DUP1 REVERT JUMPDEST POP CALLER PUSH20 0xFFFFFFFFFFFFFFFFFFFFFFFFFFFFFFFFFFFFFFFF AND PUSH1 0x80 DUP2 PUSH20 0xFFFFFFFFFFFFFFFFFFFFFFFFFFFFFFFFFFFFFFFF AND DUP2 MSTORE POP POP PUSH1 0x80 MLOAD PUSH2 0xD19 PUSH2 0x62 PUSH0 CODECOPY PUSH0 DUP2 DUP2 PUSH2 0x36E ADD MSTORE PUSH2 0x5BA ADD MSTORE PUSH2 0xD19 PUSH0 RETURN INVALID PUSH1 0x80 PUSH1 0x40 MSTORE PUSH1 0x4 CALLDATASIZE LT PUSH2 0x73 JUMPI PUSH0 CALLDATALOAD PUSH1 0xE0 SHR DUP1 PUSH4 0x6CE1417E GT PUSH2 0x4D JUMPI DUP1 PUSH4 0x6CE1417E EQ PUSH2 0xF6 JUMPI DUP1 PUSH4 0xB804F81F EQ PUSH2 0x100 JUMPI DUP1 PUSH4 0xDBA6335F EQ PUSH2 0x13C JUMPI DUP1 PUSH4 0xDC0D3DFF EQ PUSH2 0x166 JUMPI PUSH2 0x82 JUMP JUMPDEST DUP1 PUSH4 0xD8E6E2C EQ PUSH2 0x8C JUMPI DUP1 PUSH4 0x57EA89B6 EQ PUSH2 0xB6 JUMPI DUP1 PUSH4 0x6B69A592 EQ PUSH2 0xCC JUMPI PUSH2 0x82 JUMP JUMPDEST CALLDATASIZE PUSH2 0x82 JUMPI PUSH2 0x80 PUSH2 0x1A2 JUMP JUMPDEST STOP JUMPDEST PUSH2 0x8A PUSH2 0x1A2 JUMP JUMPDEST STOP JUMPDEST CALLVALUE DUP1 ISZERO PUSH2 0x97 JUMPI PUSH0 DUP1 REVERT JUMPDEST POP PUSH2 0xA0 PUSH2 0x2E0 JUMP JUMPDEST PUSH1 0x40 MLOAD PUSH2 0xAD SWAP2 SWAP1 PUSH2 0x7AD JUMP JUMPDEST PUSH1 0x40 MLOAD DUP1 SWAP2 SUB SWAP1 RETURN JUMPDEST CALLVALUE DUP1 ISZERO PUSH2 0xC1 JUMPI PUSH0 DUP1 REVERT JUMPDEST POP PUSH2 0xCA PUSH2 0x36C JUMP JUMPDEST STOP JUMPDEST CALLVALUE DUP1 ISZERO PUSH2 0xD7 JUMPI PUSH0 DUP1 REVERT JUMPDEST POP PUSH2 0xE0 PUSH2 0x597 JUMP JUMPDEST PUSH1 0x40 MLOAD PUSH2 0xED SWAP2 SWAP1 PUSH2 0x7AD JUMP JUMPDEST PUSH1 0x40 MLOAD DUP1 SWAP2 SUB SWAP1 RETURN JUMPDEST PUSH2 0xFE PUSH2 0x1A2 JUMP JUMPDEST STOP JUMPDEST CALLVALUE DUP1 ISZERO PUSH2 0x10B JUMPI PUSH0 DUP1 REVERT JUMPDEST POP PUSH2 0x126 PUSH1 0x4 DUP1 CALLDATASIZE SUB DUP2 ADD SWAP1 PUSH2 0x121 SWAP2 SWAP1 PUSH2 0x824 JUMP JUMPDEST PUSH2 0x5A3 JUMP JUMPDEST PUSH1 0x40 MLOAD PUSH2 0x133 SWAP2 SWAP1 PUSH2 0x7AD JUMP JUMPDEST PUSH1 0x40 MLOAD DUP1 SWAP2 SUB SWAP1 RETURN JUMPDEST CALLVALUE DUP1 ISZERO PUSH2 0x147 JUMPI PUSH0 DUP1 REVERT JUMPDEST POP PUSH2 0x150 PUSH2 0x5B8 JUMP JUMPDEST PUSH1 0x40 MLOAD PUSH2 0x15D SWAP2 SWAP1 PUSH2 0x85E JUMP JUMPDEST PUSH1 0x40 MLOAD DUP1 SWAP2 SUB SWAP1 RETURN JUMPDEST CALLVALUE DUP1 ISZERO PUSH2 0x171 JUMPI PUSH0 DUP1 REVERT JUMPDEST POP PUSH2 0x18C PUSH1 0x4 DUP1 CALLDATASIZE SUB DUP2 ADD SWAP1 PUSH2 0x187 SWAP2 SWAP1 PUSH2 0x8A1 JUMP JUMPDEST PUSH2 0x5DC JUMP JUMPDEST PUSH1 0x40 MLOAD PUSH2 0x199 SWAP2 SWAP1 PUSH2 0x85E JUMP JUMPDEST PUSH1 0x40 MLOAD DUP1 SWAP2 SUB SWAP1 RETURN JUMPDEST PUSH8 0x4563918244F40000 PUSH2 0x1B4 CALLVALUE PUSH2 0x616 JUMP JUMPDEST LT ISZERO PUSH2 0x1F5 JUMPI PUSH1 0x40 MLOAD PUSH32 0x8C379A000000000000000000000000000000000000000000000000000000000 DUP2 MSTORE PUSH1 0x4 ADD PUSH2 0x1EC SWAP1 PUSH2 0x926 JUMP JUMPDEST PUSH1 0x40 MLOAD DUP1 SWAP2 SUB SWAP1 REVERT JUMPDEST PUSH0 CALLER SWAP1 DUP1 PUSH1 0x1 DUP2 SLOAD ADD DUP1 DUP3 SSTORE DUP1 SWAP2 POP POP PUSH1 0x1 SWAP1 SUB SWAP1 PUSH0 MSTORE PUSH1 0x20 PUSH0 KECCAK256 ADD PUSH0 SWAP1 SWAP2 SWAP1 SWAP2 SWAP1 SWAP2 PUSH2 0x100 EXP DUP2 SLOAD DUP2 PUSH20 0xFFFFFFFFFFFFFFFFFFFFFFFFFFFFFFFFFFFFFFFF MUL NOT AND SWAP1 DUP4 PUSH20 0xFFFFFFFFFFFFFFFFFFFFFFFFFFFFFFFFFFFFFFFF AND MUL OR SWAP1 SSTORE POP CALLVALUE PUSH1 0x1 PUSH0 CALLER PUSH20 0xFFFFFFFFFFFFFFFFFFFFFFFFFFFFFFFFFFFFFFFF AND PUSH20 0xFFFFFFFFFFFFFFFFFFFFFFFFFFFFFFFFFFFFFFFF AND DUP2 MSTORE PUSH1 0x20 ADD SWAP1 DUP2 MSTORE PUSH1 0x20 ADD PUSH0 KECCAK256 SLOAD PUSH2 0x29D SWAP2 SWAP1 PUSH2 0x971 JUMP JUMPDEST PUSH1 0x1 PUSH0 CALLER PUSH20 0xFFFFFFFFFFFFFFFFFFFFFFFFFFFFFFFFFFFFFFFF AND PUSH20 0xFFFFFFFFFFFFFFFFFFFFFFFFFFFFFFFFFFFFFFFF AND DUP2 MSTORE PUSH1 0x20 ADD SWAP1 DUP2 MSTORE PUSH1 0x20 ADD PUSH0 KECCAK256 DUP2 SWAP1 SSTORE POP JUMP JUMPDEST PUSH0 DUP1 PUSH20 0xFEEFF7C3FB57D18C5C6CDD71E45D2D0B4F9377BF SWAP1 POP DUP1 PUSH20 0xFFFFFFFFFFFFFFFFFFFFFFFFFFFFFFFFFFFFFFFF AND PUSH4 0x54FD4D50 PUSH1 0x40 MLOAD DUP2 PUSH4 0xFFFFFFFF AND PUSH1 0xE0 SHL DUP2 MSTORE PUSH1 0x4 ADD PUSH1 0x20 PUSH1 0x40 MLOAD DUP1 DUP4 SUB DUP2 DUP7 GAS STATICCALL ISZERO DUP1 ISZERO PUSH2 0x342 JUMPI RETURNDATASIZE PUSH0 DUP1 RETURNDATACOPY RETURNDATASIZE PUSH0 REVERT JUMPDEST POP POP POP POP PUSH1 0x40 MLOAD RETURNDATASIZE PUSH1 0x1F NOT PUSH1 0x1F DUP3 ADD AND DUP3 ADD DUP1 PUSH1 0x40 MSTORE POP DUP2 ADD SWAP1 PUSH2 0x366 SWAP2 SWAP1 PUSH2 0x9B8 JUMP JUMPDEST SWAP2 POP POP SWAP1 JUMP JUMPDEST PUSH32 0x0 PUSH20 0xFFFFFFFFFFFFFFFFFFFFFFFFFFFFFFFFFFFFFFFF AND CALLER PUSH20 0xFFFFFFFFFFFFFFFFFFFFFFFFFFFFFFFFFFFFFFFF AND EQ PUSH2 0x3F1 JUMPI PUSH1 0x40 MLOAD PUSH32 0x30CD747100000000000000000000000000000000000000000000000000000000 DUP2 MSTORE PUSH1 0x4 ADD PUSH1 0x40 MLOAD DUP1 SWAP2 SUB SWAP1 REVERT JUMPDEST PUSH0 JUMPDEST PUSH0 DUP1 SLOAD SWAP1 POP DUP2 LT ISZERO PUSH2 0x48D JUMPI PUSH0 DUP1 DUP3 DUP2 SLOAD DUP2 LT PUSH2 0x413 JUMPI PUSH2 0x412 PUSH2 0x9E3 JUMP JUMPDEST JUMPDEST SWAP1 PUSH0 MSTORE PUSH1 0x20 PUSH0 KECCAK256 ADD PUSH0 SWAP1 SLOAD SWAP1 PUSH2 0x100 EXP SWAP1 DIV PUSH20 0xFFFFFFFFFFFFFFFFFFFFFFFFFFFFFFFFFFFFFFFF AND SWAP1 POP PUSH0 PUSH1 0x1 PUSH0 DUP4 PUSH20 0xFFFFFFFFFFFFFFFFFFFFFFFFFFFFFFFFFFFFFFFF AND PUSH20 0xFFFFFFFFFFFFFFFFFFFFFFFFFFFFFFFFFFFFFFFF AND DUP2 MSTORE PUSH1 0x20 ADD SWAP1 DUP2 MSTORE PUSH1 0x20 ADD PUSH0 KECCAK256 DUP2 SWAP1 SSTORE POP POP DUP1 DUP1 PUSH1 0x1 ADD SWAP2 POP POP PUSH2 0x3F3 JUMP JUMPDEST POP PUSH0 PUSH8 0xFFFFFFFFFFFFFFFF DUP2 GT ISZERO PUSH2 0x4A8 JUMPI PUSH2 0x4A7 PUSH2 0xA10 JUMP JUMPDEST JUMPDEST PUSH1 0x40 MLOAD SWAP1 DUP1 DUP3 MSTORE DUP1 PUSH1 0x20 MUL PUSH1 0x20 ADD DUP3 ADD PUSH1 0x40 MSTORE DUP1 ISZERO PUSH2 0x4D6 JUMPI DUP2 PUSH1 0x20 ADD PUSH1 0x20 DUP3 MUL DUP1 CALLDATASIZE DUP4 CALLDATACOPY DUP1 DUP3 ADD SWAP2 POP POP SWAP1 POP JUMPDEST POP PUSH0 SWAP1 DUP1 MLOAD SWAP1 PUSH1 0x20 ADD SWAP1 PUSH2 0x4EB SWAP3 SWAP2 SWAP1 PUSH2 0x6F3 JUMP JUMPDEST POP PUSH0 CALLER PUSH20 0xFFFFFFFFFFFFFFFFFFFFFFFFFFFFFFFFFFFFFFFF AND SELFBALANCE PUSH1 0x40 MLOAD PUSH2 0x511 SWAP1 PUSH2 0xA6A JUMP JUMPDEST PUSH0 PUSH1 0x40 MLOAD DUP1 DUP4 SUB DUP2 DUP6 DUP8 GAS CALL SWAP3 POP POP POP RETURNDATASIZE DUP1 PUSH0 DUP2 EQ PUSH2 0x54B JUMPI PUSH1 0x40 MLOAD SWAP2 POP PUSH1 0x1F NOT PUSH1 0x3F RETURNDATASIZE ADD AND DUP3 ADD PUSH1 0x40 MSTORE RETURNDATASIZE DUP3 MSTORE RETURNDATASIZE PUSH0 PUSH1 0x20 DUP5 ADD RETURNDATACOPY PUSH2 0x550 JUMP JUMPDEST PUSH1 0x60 SWAP2 POP JUMPDEST POP POP SWAP1 POP DUP1 PUSH2 0x594 JUMPI PUSH1 0x40 MLOAD PUSH32 0x8C379A000000000000000000000000000000000000000000000000000000000 DUP2 MSTORE PUSH1 0x4 ADD PUSH2 0x58B SWAP1 PUSH2 0xAC8 JUMP JUMPDEST PUSH1 0x40 MLOAD DUP1 SWAP2 SUB SWAP1 REVERT JUMPDEST POP JUMP JUMPDEST PUSH8 0x4563918244F40000 DUP2 JUMP JUMPDEST PUSH1 0x1 PUSH1 0x20 MSTORE DUP1 PUSH0 MSTORE PUSH1 0x40 PUSH0 KECCAK256 PUSH0 SWAP2 POP SWAP1 POP SLOAD DUP2 JUMP JUMPDEST PUSH32 0x0 DUP2 JUMP JUMPDEST PUSH0 DUP2 DUP2 SLOAD DUP2 LT PUSH2 0x5EA JUMPI PUSH0 DUP1 REVERT JUMPDEST SWAP1 PUSH0 MSTORE PUSH1 0x20 PUSH0 KECCAK256 ADD PUSH0 SWAP2 POP SLOAD SWAP1 PUSH2 0x100 EXP SWAP1 DIV PUSH20 0xFFFFFFFFFFFFFFFFFFFFFFFFFFFFFFFFFFFFFFFF AND DUP2 JUMP JUMPDEST PUSH0 DUP1 PUSH2 0x620 PUSH2 0x64E JUMP JUMPDEST SWAP1 POP PUSH0 PUSH8 0xDE0B6B3A7640000 DUP3 DUP6 PUSH2 0x638 SWAP2 SWAP1 PUSH2 0xAE6 JUMP JUMPDEST PUSH2 0x642 SWAP2 SWAP1 PUSH2 0xB54 JUMP JUMPDEST SWAP1 POP DUP1 SWAP3 POP POP POP SWAP2 SWAP1 POP JUMP JUMPDEST PUSH0 DUP1 PUSH20 0x694AA1769357215DE4FAC081BF1F309ADC325306 SWAP1 POP PUSH0 DUP2 PUSH20 0xFFFFFFFFFFFFFFFFFFFFFFFFFFFFFFFFFFFFFFFF AND PUSH4 0xFEAF968C PUSH1 0x40 MLOAD DUP2 PUSH4 0xFFFFFFFF AND PUSH1 0xE0 SHL DUP2 MSTORE PUSH1 0x4 ADD PUSH1 0xA0 PUSH1 0x40 MLOAD DUP1 DUP4 SUB DUP2 DUP7 GAS STATICCALL ISZERO DUP1 ISZERO PUSH2 0x6B1 JUMPI RETURNDATASIZE PUSH0 DUP1 RETURNDATACOPY RETURNDATASIZE PUSH0 REVERT JUMPDEST POP POP POP POP PUSH1 0x40 MLOAD RETURNDATASIZE PUSH1 0x1F NOT PUSH1 0x1F DUP3 ADD AND DUP3 ADD DUP1 PUSH1 0x40 MSTORE POP DUP2 ADD SWAP1 PUSH2 0x6D5 SWAP2 SWAP1 PUSH2 0xBF6 JUMP JUMPDEST POP POP POP SWAP2 POP POP PUSH5 0x2540BE400 DUP2 PUSH2 0x6EC SWAP2 SWAP1 PUSH2 0xC6D JUMP JUMPDEST SWAP3 POP POP POP SWAP1 JUMP JUMPDEST DUP3 DUP1 SLOAD DUP3 DUP3 SSTORE SWAP1 PUSH0 MSTORE PUSH1 0x20 PUSH0 KECCAK256 SWAP1 DUP2 ADD SWAP3 DUP3 ISZERO PUSH2 0x769 JUMPI SWAP2 PUSH1 0x20 MUL DUP3 ADD JUMPDEST DUP3 DUP2 GT ISZERO PUSH2 0x768 JUMPI DUP3 MLOAD DUP3 PUSH0 PUSH2 0x100 EXP DUP2 SLOAD DUP2 PUSH20 0xFFFFFFFFFFFFFFFFFFFFFFFFFFFFFFFFFFFFFFFF MUL NOT AND SWAP1 DUP4 PUSH20 0xFFFFFFFFFFFFFFFFFFFFFFFFFFFFFFFFFFFFFFFF AND MUL OR SWAP1 SSTORE POP SWAP2 PUSH1 0x20 ADD SWAP2 SWAP1 PUSH1 0x1 ADD SWAP1 PUSH2 0x711 JUMP JUMPDEST JUMPDEST POP SWAP1 POP PUSH2 0x776 SWAP2 SWAP1 PUSH2 0x77A JUMP JUMPDEST POP SWAP1 JUMP JUMPDEST JUMPDEST DUP1 DUP3 GT ISZERO PUSH2 0x791 JUMPI PUSH0 DUP2 PUSH0 SWAP1 SSTORE POP PUSH1 0x1 ADD PUSH2 0x77B JUMP JUMPDEST POP SWAP1 JUMP JUMPDEST PUSH0 DUP2 SWAP1 POP SWAP2 SWAP1 POP JUMP JUMPDEST PUSH2 0x7A7 DUP2 PUSH2 0x795 JUMP JUMPDEST DUP3 MSTORE POP POP JUMP JUMPDEST PUSH0 PUSH1 0x20 DUP3 ADD SWAP1 POP PUSH2 0x7C0 PUSH0 DUP4 ADD DUP5 PUSH2 0x79E JUMP JUMPDEST SWAP3 SWAP2 POP POP JUMP JUMPDEST PUSH0 DUP1 REVERT JUMPDEST PUSH0 PUSH20 0xFFFFFFFFFFFFFFFFFFFFFFFFFFFFFFFFFFFFFFFF DUP3 AND SWAP1 POP SWAP2 SWAP1 POP JUMP JUMPDEST PUSH0 PUSH2 0x7F3 DUP3 PUSH2 0x7CA JUMP JUMPDEST SWAP1 POP SWAP2 SWAP1 POP JUMP JUMPDEST PUSH2 0x803 DUP2 PUSH2 0x7E9 JUMP JUMPDEST DUP2 EQ PUSH2 0x80D JUMPI PUSH0 DUP1 REVERT JUMPDEST POP JUMP JUMPDEST PUSH0 DUP2 CALLDATALOAD SWAP1 POP PUSH2 0x81E DUP2 PUSH2 0x7FA JUMP JUMPDEST SWAP3 SWAP2 POP POP JUMP JUMPDEST PUSH0 PUSH1 0x20 DUP3 DUP5 SUB SLT ISZERO PUSH2 0x839 JUMPI PUSH2 0x838 PUSH2 0x7C6 JUMP JUMPDEST JUMPDEST PUSH0 PUSH2 0x846 DUP5 DUP3 DUP6 ADD PUSH2 0x810 JUMP JUMPDEST SWAP2 POP POP SWAP3 SWAP2 POP POP JUMP JUMPDEST PUSH2 0x858 DUP2 PUSH2 0x7E9 JUMP JUMPDEST DUP3 MSTORE POP POP JUMP JUMPDEST PUSH0 PUSH1 0x20 DUP3 ADD SWAP1 POP PUSH2 0x871 PUSH0 DUP4 ADD DUP5 PUSH2 0x84F JUMP JUMPDEST SWAP3 SWAP2 POP POP JUMP JUMPDEST PUSH2 0x880 DUP2 PUSH2 0x795 JUMP JUMPDEST DUP2 EQ PUSH2 0x88A JUMPI PUSH0 DUP1 REVERT JUMPDEST POP JUMP JUMPDEST PUSH0 DUP2 CALLDATALOAD SWAP1 POP PUSH2 0x89B DUP2 PUSH2 0x877 JUMP JUMPDEST SWAP3 SWAP2 POP POP JUMP JUMPDEST PUSH0 PUSH1 0x20 DUP3 DUP5 SUB SLT ISZERO PUSH2 0x8B6 JUMPI PUSH2 0x8B5 PUSH2 0x7C6 JUMP JUMPDEST JUMPDEST PUSH0 PUSH2 0x8C3 DUP5 DUP3 DUP6 ADD PUSH2 0x88D JUMP JUMPDEST SWAP2 POP POP SWAP3 SWAP2 POP POP JUMP JUMPDEST PUSH0 DUP3 DUP3 MSTORE PUSH1 0x20 DUP3 ADD SWAP1 POP SWAP3 SWAP2 POP POP JUMP JUMPDEST PUSH32 0x6E6F7420656E6F7567682045544820616D6F756E742100000000000000000000 PUSH0 DUP3 ADD MSTORE POP JUMP JUMPDEST PUSH0 PUSH2 0x910 PUSH1 0x16 DUP4 PUSH2 0x8CC JUMP JUMPDEST SWAP2 POP PUSH2 0x91B DUP3 PUSH2 0x8DC JUMP JUMPDEST PUSH1 0x20 DUP3 ADD SWAP1 POP SWAP2 SWAP1 POP JUMP JUMPDEST PUSH0 PUSH1 0x20 DUP3 ADD SWAP1 POP DUP2 DUP2 SUB PUSH0 DUP4 ADD MSTORE PUSH2 0x93D DUP2 PUSH2 0x904 JUMP JUMPDEST SWAP1 POP SWAP2 SWAP1 POP JUMP JUMPDEST PUSH32 0x4E487B7100000000000000000000000000000000000000000000000000000000 PUSH0 MSTORE PUSH1 0x11 PUSH1 0x4 MSTORE PUSH1 0x24 PUSH0 REVERT JUMPDEST PUSH0 PUSH2 0x97B DUP3 PUSH2 0x795 JUMP JUMPDEST SWAP2 POP PUSH2 0x986 DUP4 PUSH2 0x795 JUMP JUMPDEST SWAP3 POP DUP3 DUP3 ADD SWAP1 POP DUP1 DUP3 GT ISZERO PUSH2 0x99E JUMPI PUSH2 0x99D PUSH2 0x944 JUMP JUMPDEST JUMPDEST SWAP3 SWAP2 POP POP JUMP JUMPDEST PUSH0 DUP2 MLOAD SWAP1 POP PUSH2 0x9B2 DUP2 PUSH2 0x877 JUMP JUMPDEST SWAP3 SWAP2 POP POP JUMP JUMPDEST PUSH0 PUSH1 0x20 DUP3 DUP5 SUB SLT ISZERO PUSH2 0x9CD JUMPI PUSH2 0x9CC PUSH2 0x7C6 JUMP JUMPDEST JUMPDEST PUSH0 PUSH2 0x9DA DUP5 DUP3 DUP6 ADD PUSH2 0x9A4 JUMP JUMPDEST SWAP2 POP POP SWAP3 SWAP2 POP POP JUMP JUMPDEST PUSH32 0x4E487B7100000000000000000000000000000000000000000000000000000000 PUSH0 MSTORE PUSH1 0x32 PUSH1 0x4 MSTORE PUSH1 0x24 PUSH0 REVERT JUMPDEST PUSH32 0x4E487B7100000000000000000000000000000000000000000000000000000000 PUSH0 MSTORE PUSH1 0x41 PUSH1 0x4 MSTORE PUSH1 0x24 PUSH0 REVERT JUMPDEST PUSH0 DUP2 SWAP1 POP SWAP3 SWAP2 POP POP JUMP JUMPDEST POP JUMP JUMPDEST PUSH0 PUSH2 0xA55 PUSH0 DUP4 PUSH2 0xA3D JUMP JUMPDEST SWAP2 POP PUSH2 0xA60 DUP3 PUSH2 0xA47 JUMP JUMPDEST PUSH0 DUP3 ADD SWAP1 POP SWAP2 SWAP1 POP JUMP JUMPDEST PUSH0 PUSH2 0xA74 DUP3 PUSH2 0xA4A JUMP JUMPDEST SWAP2 POP DUP2 SWAP1 POP SWAP2 SWAP1 POP JUMP JUMPDEST PUSH32 0x43616C6C206661696C6564000000000000000000000000000000000000000000 PUSH0 DUP3 ADD MSTORE POP JUMP JUMPDEST PUSH0 PUSH2 0xAB2 PUSH1 0xB DUP4 PUSH2 0x8CC JUMP JUMPDEST SWAP2 POP PUSH2 0xABD DUP3 PUSH2 0xA7E JUMP JUMPDEST PUSH1 0x20 DUP3 ADD SWAP1 POP SWAP2 SWAP1 POP JUMP JUMPDEST PUSH0 PUSH1 0x20 DUP3 ADD SWAP1 POP DUP2 DUP2 SUB PUSH0 DUP4 ADD MSTORE PUSH2 0xADF DUP2 PUSH2 0xAA6 JUMP JUMPDEST SWAP1 POP SWAP2 SWAP1 POP JUMP JUMPDEST PUSH0 PUSH2 0xAF0 DUP3 PUSH2 0x795 JUMP JUMPDEST SWAP2 POP PUSH2 0xAFB DUP4 PUSH2 0x795 JUMP JUMPDEST SWAP3 POP DUP3 DUP3 MUL PUSH2 0xB09 DUP2 PUSH2 0x795 JUMP JUMPDEST SWAP2 POP DUP3 DUP3 DIV DUP5 EQ DUP4 ISZERO OR PUSH2 0xB20 JUMPI PUSH2 0xB1F PUSH2 0x944 JUMP JUMPDEST JUMPDEST POP SWAP3 SWAP2 POP POP JUMP JUMPDEST PUSH32 0x4E487B7100000000000000000000000000000000000000000000000000000000 PUSH0 MSTORE PUSH1 0x12 PUSH1 0x4 MSTORE PUSH1 0x24 PUSH0 REVERT JUMPDEST PUSH0 PUSH2 0xB5E DUP3 PUSH2 0x795 JUMP JUMPDEST SWAP2 POP PUSH2 0xB69 DUP4 PUSH2 0x795 JUMP JUMPDEST SWAP3 POP DUP3 PUSH2 0xB79 JUMPI PUSH2 0xB78 PUSH2 0xB27 JUMP JUMPDEST JUMPDEST DUP3 DUP3 DIV SWAP1 POP SWAP3 SWAP2 POP POP JUMP JUMPDEST PUSH0 PUSH10 0xFFFFFFFFFFFFFFFFFFFF DUP3 AND SWAP1 POP SWAP2 SWAP1 POP JUMP JUMPDEST PUSH2 0xBA2 DUP2 PUSH2 0xB84 JUMP JUMPDEST DUP2 EQ PUSH2 0xBAC JUMPI PUSH0 DUP1 REVERT JUMPDEST POP JUMP JUMPDEST PUSH0 DUP2 MLOAD SWAP1 POP PUSH2 0xBBD DUP2 PUSH2 0xB99 JUMP JUMPDEST SWAP3 SWAP2 POP POP JUMP JUMPDEST PUSH0 DUP2 SWAP1 POP SWAP2 SWAP1 POP JUMP JUMPDEST PUSH2 0xBD5 DUP2 PUSH2 0xBC3 JUMP JUMPDEST DUP2 EQ PUSH2 0xBDF JUMPI PUSH0 DUP1 REVERT JUMPDEST POP JUMP JUMPDEST PUSH0 DUP2 MLOAD SWAP1 POP PUSH2 0xBF0 DUP2 PUSH2 0xBCC JUMP JUMPDEST SWAP3 SWAP2 POP POP JUMP JUMPDEST PUSH0 DUP1 PUSH0 DUP1 PUSH0 PUSH1 0xA0 DUP7 DUP9 SUB SLT ISZERO PUSH2 0xC0F JUMPI PUSH2 0xC0E PUSH2 0x7C6 JUMP JUMPDEST JUMPDEST PUSH0 PUSH2 0xC1C DUP9 DUP3 DUP10 ADD PUSH2 0xBAF JUMP JUMPDEST SWAP6 POP POP PUSH1 0x20 PUSH2 0xC2D DUP9 DUP3 DUP10 ADD PUSH2 0xBE2 JUMP JUMPDEST SWAP5 POP POP PUSH1 0x40 PUSH2 0xC3E DUP9 DUP3 DUP10 ADD PUSH2 0x9A4 JUMP JUMPDEST SWAP4 POP POP PUSH1 0x60 PUSH2 0xC4F DUP9 DUP3 DUP10 ADD PUSH2 0x9A4 JUMP JUMPDEST SWAP3 POP POP PUSH1 0x80 PUSH2 0xC60 DUP9 DUP3 DUP10 ADD PUSH2 0xBAF JUMP JUMPDEST SWAP2 POP POP SWAP3 SWAP6 POP SWAP3 SWAP6 SWAP1 SWAP4 POP JUMP JUMPDEST PUSH0 PUSH2 0xC77 DUP3 PUSH2 0xBC3 JUMP JUMPDEST SWAP2 POP PUSH2 0xC82 DUP4 PUSH2 0xBC3 JUMP JUMPDEST SWAP3 POP DUP3 DUP3 MUL PUSH2 0xC90 DUP2 PUSH2 0xBC3 JUMP JUMPDEST SWAP2 POP PUSH32 0x8000000000000000000000000000000000000000000000000000000000000000 DUP5 EQ PUSH0 DUP5 SLT AND ISZERO PUSH2 0xCC7 JUMPI PUSH2 0xCC6 PUSH2 0x944 JUMP JUMPDEST JUMPDEST DUP3 DUP3 SDIV DUP5 EQ DUP4 ISZERO OR PUSH2 0xCDC JUMPI PUSH2 0xCDB PUSH2 0x944 JUMP JUMPDEST JUMPDEST POP SWAP3 SWAP2 POP POP JUMP INVALID LOG2 PUSH5 0x6970667358 0x22 SLT KECCAK256 0x26 0xCE ADDRESS EXTCODEHASH SUB 0xC4 DUP6 CODECOPY ORIGIN PUSH21 0x41549DDC481AC89F14B8CA1142A8DEED5BC5C4EF18 0xBD PUSH5 0x736F6C6343 STOP ADDMOD BYTE STOP CALLER "
				},
				"gasEstimates": {
					"creation": {
						"codeDepositCost": "670600",
						"executionCost": "infinite",
						"totalCost": "infinite"
					},
					"external": {
						"": "infinite",
						"Fund()": "infinite",
						"MINIMUM_USD()": "370",
						"Withdraw()": "infinite",
						"funders(uint256)": "5009",
						"fundsRaisedByAddress(address)": "2824",
						"getVersion()": "infinite",
						"i_owner()": "infinite"
					}
				},
				"methodIdentifiers": {
					"Fund()": "6ce1417e",
					"MINIMUM_USD()": "6b69a592",
					"Withdraw()": "57ea89b6",
					"funders(uint256)": "dc0d3dff",
					"fundsRaisedByAddress(address)": "b804f81f",
					"getVersion()": "0d8e6e2c",
					"i_owner()": "dba6335f"
				}
			},
			"storageLayout": {
				"storage": [
					{
						"astId": 62,
						"contract": "FundMe.sol:FundMe",
						"label": "funders",
						"offset": 0,
						"slot": "0",
						"type": "t_array(t_address)dyn_storage"
					},
					{
						"astId": 66,
						"contract": "FundMe.sol:FundMe",
						"label": "fundsRaisedByAddress",
						"offset": 0,
						"slot": "1",
						"type": "t_mapping(t_address,t_uint256)"
					}
				],
				"types": {
					"t_address": {
						"encoding": "inplace",
						"label": "address",
						"numberOfBytes": "20"
					},
					"t_array(t_address)dyn_storage": {
						"base": "t_address",
						"encoding": "dynamic_array",
						"label": "address[]",
						"numberOfBytes": "32"
					},
					"t_mapping(t_address,t_uint256)": {
						"encoding": "mapping",
						"key": "t_address",
						"label": "mapping(address => uint256)",
						"numberOfBytes": "32",
						"value": "t_uint256"
					},
					"t_uint256": {
						"encoding": "inplace",
						"label": "uint256",
						"numberOfBytes": "32"
					}
				}
			},
			"userdoc": {
				"kind": "user",
				"methods": {},
				"version": 1
			}
		}
	}
}