{
	"FundMe.sol": {
		"FundMe": {
			"abi": [
				{
					"inputs": [],
					"name": "Fund",
					"outputs": [],
					"stateMutability": "payable",
					"type": "function"
				},
				{
					"inputs": [],
					"name": "Withdraw",
					"outputs": [],
					"stateMutability": "nonpayable",
					"type": "function"
				},
				{
					"inputs": [
						{
							"internalType": "uint256",
							"name": "",
							"type": "uint256"
						}
					],
					"name": "funders",
					"outputs": [
						{
							"internalType": "address",
							"name": "",
							"type": "address"
						}
					],
					"stateMutability": "view",
					"type": "function"
				},
				{
					"inputs": [
						{
							"internalType": "address",
							"name": "funder",
							"type": "address"
						}
					],
					"name": "fundsRaisedByAddress",
					"outputs": [
						{
							"internalType": "uint256",
							"name": "amountRaised",
							"type": "uint256"
						}
					],
					"stateMutability": "view",
					"type": "function"
				},
				{
					"inputs": [],
					"name": "minimumUsd",
					"outputs": [
						{
							"internalType": "uint256",
							"name": "",
							"type": "uint256"
						}
					],
					"stateMutability": "view",
					"type": "function"
				},
				{
					"inputs": [],
					"name": "myValue",
					"outputs": [
						{
							"internalType": "uint256",
							"name": "",
							"type": "uint256"
						}
					],
					"stateMutability": "view",
					"type": "function"
				}
			],
			"devdoc": {
				"kind": "dev",
				"methods": {},
				"version": 1
			},
			"evm": {
				"assembly": "    /* \"FundMe.sol\":147:2890  contract FundMe {... */\n  mstore(0x40, 0x80)\n    /* \"FundMe.sol\":545:546  1 */\n  0x01\n    /* \"FundMe.sol\":520:546  uint256 public myValue = 1 */\n  0x00\n  sstore\n    /* \"FundMe.sol\":621:625  5e18 */\n  0x4563918244f40000\n    /* \"FundMe.sol\":593:625  uint256 public minimumUsd = 5e18 */\n  0x01\n  sstore\n    /* \"FundMe.sol\":147:2890  contract FundMe {... */\n  callvalue\n  dup1\n  iszero\n  tag_1\n  jumpi\n  0x00\n  dup1\n  revert\ntag_1:\n  pop\n  dataSize(sub_0)\n  dup1\n  dataOffset(sub_0)\n  0x00\n  codecopy\n  0x00\n  return\nstop\n\nsub_0: assembly {\n        /* \"FundMe.sol\":147:2890  contract FundMe {... */\n      mstore(0x40, 0x80)\n      jumpi(tag_1, lt(calldatasize, 0x04))\n      shr(0xe0, calldataload(0x00))\n      dup1\n      0x098de820\n      eq\n      tag_2\n      jumpi\n      dup1\n      0x47f1aae7\n      eq\n      tag_3\n      jumpi\n      dup1\n      0x57ea89b6\n      eq\n      tag_4\n      jumpi\n      dup1\n      0x6ce1417e\n      eq\n      tag_5\n      jumpi\n      dup1\n      0xb804f81f\n      eq\n      tag_6\n      jumpi\n      dup1\n      0xdc0d3dff\n      eq\n      tag_7\n      jumpi\n    tag_1:\n      0x00\n      dup1\n      revert\n        /* \"FundMe.sol\":593:625  uint256 public minimumUsd = 5e18 */\n    tag_2:\n      callvalue\n      dup1\n      iszero\n      tag_8\n      jumpi\n      0x00\n      dup1\n      revert\n    tag_8:\n      pop\n      tag_9\n      tag_10\n      jump\t// in\n    tag_9:\n      mload(0x40)\n      tag_11\n      swap2\n      swap1\n      tag_12\n      jump\t// in\n    tag_11:\n      mload(0x40)\n      dup1\n      swap2\n      sub\n      swap1\n      return\n        /* \"FundMe.sol\":520:546  uint256 public myValue = 1 */\n    tag_3:\n      callvalue\n      dup1\n      iszero\n      tag_13\n      jumpi\n      0x00\n      dup1\n      revert\n    tag_13:\n      pop\n      tag_14\n      tag_15\n      jump\t// in\n    tag_14:\n      mload(0x40)\n      tag_16\n      swap2\n      swap1\n      tag_12\n      jump\t// in\n    tag_16:\n      mload(0x40)\n      dup1\n      swap2\n      sub\n      swap1\n      return\n        /* \"FundMe.sol\":2303:2880  function Withdraw() public  {... */\n    tag_4:\n      callvalue\n      dup1\n      iszero\n      tag_17\n      jumpi\n      0x00\n      dup1\n      revert\n    tag_17:\n      pop\n      tag_18\n      tag_19\n      jump\t// in\n    tag_18:\n      stop\n        /* \"FundMe.sol\":976:2295  function Fund() public payable {... */\n    tag_5:\n      tag_20\n      tag_21\n      jump\t// in\n    tag_20:\n      stop\n        /* \"FundMe.sol\":775:851  mapping (address funder => uint256 amountRaised) public fundsRaisedByAddress */\n    tag_6:\n      callvalue\n      dup1\n      iszero\n      tag_22\n      jumpi\n      0x00\n      dup1\n      revert\n    tag_22:\n      pop\n      tag_23\n      0x04\n      dup1\n      calldatasize\n      sub\n      dup2\n      add\n      swap1\n      tag_24\n      swap2\n      swap1\n      tag_25\n      jump\t// in\n    tag_24:\n      tag_26\n      jump\t// in\n    tag_23:\n      mload(0x40)\n      tag_27\n      swap2\n      swap1\n      tag_12\n      jump\t// in\n    tag_27:\n      mload(0x40)\n      dup1\n      swap2\n      sub\n      swap1\n      return\n        /* \"FundMe.sol\":704:728  address[] public funders */\n    tag_7:\n      callvalue\n      dup1\n      iszero\n      tag_28\n      jumpi\n      0x00\n      dup1\n      revert\n    tag_28:\n      pop\n      tag_29\n      0x04\n      dup1\n      calldatasize\n      sub\n      dup2\n      add\n      swap1\n      tag_30\n      swap2\n      swap1\n      tag_31\n      jump\t// in\n    tag_30:\n      tag_32\n      jump\t// in\n    tag_29:\n      mload(0x40)\n      tag_33\n      swap2\n      swap1\n      tag_34\n      jump\t// in\n    tag_33:\n      mload(0x40)\n      dup1\n      swap2\n      sub\n      swap1\n      return\n        /* \"FundMe.sol\":593:625  uint256 public minimumUsd = 5e18 */\n    tag_10:\n      sload(0x01)\n      dup2\n      jump\t// out\n        /* \"FundMe.sol\":520:546  uint256 public myValue = 1 */\n    tag_15:\n      sload(0x00)\n      dup2\n      jump\t// out\n        /* \"FundMe.sol\":2303:2880  function Withdraw() public  {... */\n    tag_19:\n        /* \"FundMe.sol\":2347:2366  uint256 funderIndex */\n      0x00\n        /* \"FundMe.sol\":2342:2646  for (uint256 funderIndex; funderIndex < funders.length; funderIndex++) ... */\n    tag_36:\n        /* \"FundMe.sol\":2382:2389  funders */\n      0x02\n        /* \"FundMe.sol\":2382:2396  funders.length */\n      dup1\n      sload\n      swap1\n      pop\n        /* \"FundMe.sol\":2368:2379  funderIndex */\n      dup2\n        /* \"FundMe.sol\":2368:2396  funderIndex < funders.length */\n      lt\n        /* \"FundMe.sol\":2342:2646  for (uint256 funderIndex; funderIndex < funders.length; funderIndex++) ... */\n      iszero\n      tag_37\n      jumpi\n        /* \"FundMe.sol\":2438:2452  address funder */\n      0x00\n        /* \"FundMe.sol\":2455:2462  funders */\n      0x02\n        /* \"FundMe.sol\":2463:2474  funderIndex */\n      dup3\n        /* \"FundMe.sol\":2455:2475  funders[funderIndex] */\n      dup2\n      sload\n      dup2\n      lt\n      tag_39\n      jumpi\n      tag_40\n      tag_41\n      jump\t// in\n    tag_40:\n    tag_39:\n      swap1\n      0x00\n      mstore\n      keccak256(0x00, 0x20)\n      add\n      0x00\n      swap1\n      sload\n      swap1\n      0x0100\n      exp\n      swap1\n      div\n      0xffffffffffffffffffffffffffffffffffffffff\n      and\n        /* \"FundMe.sol\":2438:2475  address funder = funders[funderIndex] */\n      swap1\n      pop\n        /* \"FundMe.sol\":2559:2560  0 */\n      0x00\n        /* \"FundMe.sol\":2528:2548  fundsRaisedByAddress */\n      0x03\n        /* \"FundMe.sol\":2528:2556  fundsRaisedByAddress[funder] */\n      0x00\n        /* \"FundMe.sol\":2549:2555  funder */\n      dup4\n        /* \"FundMe.sol\":2528:2556  fundsRaisedByAddress[funder] */\n      0xffffffffffffffffffffffffffffffffffffffff\n      and\n      0xffffffffffffffffffffffffffffffffffffffff\n      and\n      dup2\n      mstore\n      0x20\n      add\n      swap1\n      dup2\n      mstore\n      0x20\n      add\n      0x00\n      keccak256\n        /* \"FundMe.sol\":2528:2560  fundsRaisedByAddress[funder] = 0 */\n      dup2\n      swap1\n      sstore\n      pop\n        /* \"FundMe.sol\":2423:2646  {... */\n      pop\n        /* \"FundMe.sol\":2398:2411  funderIndex++ */\n      dup1\n      dup1\n      0x01\n      add\n      swap2\n      pop\n      pop\n        /* \"FundMe.sol\":2342:2646  for (uint256 funderIndex; funderIndex < funders.length; funderIndex++) ... */\n      jump(tag_36)\n    tag_37:\n      pop\n        /* \"FundMe.sol\":2680:2681  0 */\n      0x00\n        /* \"FundMe.sol\":2666:2682  new address[](0) */\n      0xffffffffffffffff\n      dup2\n      gt\n      iszero\n      tag_43\n      jumpi\n      tag_44\n      tag_45\n      jump\t// in\n    tag_44:\n    tag_43:\n      mload(0x40)\n      swap1\n      dup1\n      dup3\n      mstore\n      dup1\n      0x20\n      mul\n      0x20\n      add\n      dup3\n      add\n      0x40\n      mstore\n      dup1\n      iszero\n      tag_46\n      jumpi\n      dup2\n      0x20\n      add\n      0x20\n      dup3\n      mul\n      dup1\n      calldatasize\n      dup4\n      calldatacopy\n      dup1\n      dup3\n      add\n      swap2\n      pop\n      pop\n      swap1\n      pop\n    tag_46:\n      pop\n        /* \"FundMe.sol\":2656:2663  funders */\n      0x02\n        /* \"FundMe.sol\":2656:2682  funders = new address[](0) */\n      swap1\n      dup1\n      mload\n      swap1\n      0x20\n      add\n      swap1\n      tag_47\n      swap3\n      swap2\n      swap1\n      tag_48\n      jump\t// in\n    tag_47:\n      pop\n        /* \"FundMe.sol\":2303:2880  function Withdraw() public  {... */\n      jump\t// out\n        /* \"FundMe.sol\":976:2295  function Fund() public payable {... */\n    tag_21:\n        /* \"FundMe.sol\":1108:1109  2 */\n      0x02\n        /* \"FundMe.sol\":1099:1106  myValue */\n      sload(0x00)\n        /* \"FundMe.sol\":1099:1109  myValue +2 */\n      tag_50\n      swap2\n      swap1\n      tag_51\n      jump\t// in\n    tag_50:\n        /* \"FundMe.sol\":1089:1096  myValue */\n      0x00\n        /* \"FundMe.sol\":1089:1109  myValue = myValue +2 */\n      dup2\n      swap1\n      sstore\n      pop\n        /* \"FundMe.sol\":1529:1539  minimumUsd */\n      sload(0x01)\n        /* \"FundMe.sol\":1496:1525  msg.value.getConversionRate() */\n      tag_52\n        /* \"FundMe.sol\":1496:1505  msg.value */\n      callvalue\n        /* \"FundMe.sol\":1496:1523  msg.value.getConversionRate */\n      tag_53\n        /* \"FundMe.sol\":1496:1525  msg.value.getConversionRate() */\n      jump\t// in\n    tag_52:\n        /* \"FundMe.sol\":1496:1539  msg.value.getConversionRate() >= minimumUsd */\n      lt\n      iszero\n        /* \"FundMe.sol\":1488:1566  require(msg.value.getConversionRate() >= minimumUsd, \"not enough ETH amount!\") */\n      tag_54\n      jumpi\n      mload(0x40)\n      0x08c379a000000000000000000000000000000000000000000000000000000000\n      dup2\n      mstore\n      0x04\n      add\n      tag_55\n      swap1\n      tag_56\n      jump\t// in\n    tag_55:\n      mload(0x40)\n      dup1\n      swap2\n      sub\n      swap1\n      revert\n    tag_54:\n        /* \"FundMe.sol\":1872:1879  funders */\n      0x02\n        /* \"FundMe.sol\":1885:1895  msg.sender */\n      caller\n        /* \"FundMe.sol\":1872:1896  funders.push(msg.sender) */\n      swap1\n      dup1\n      0x01\n      dup2\n      sload\n      add\n      dup1\n      dup3\n      sstore\n      dup1\n      swap2\n      pop\n      pop\n      0x01\n      swap1\n      sub\n      swap1\n      0x00\n      mstore\n      keccak256(0x00, 0x20)\n      add\n      0x00\n      swap1\n      swap2\n      swap1\n      swap2\n      swap1\n      swap2\n      0x0100\n      exp\n      dup2\n      sload\n      dup2\n      0xffffffffffffffffffffffffffffffffffffffff\n      mul\n      not\n      and\n      swap1\n      dup4\n      0xffffffffffffffffffffffffffffffffffffffff\n      and\n      mul\n      or\n      swap1\n      sstore\n      pop\n        /* \"FundMe.sol\":2025:2034  msg.value */\n      callvalue\n        /* \"FundMe.sol\":1990:2010  fundsRaisedByAddress */\n      0x03\n        /* \"FundMe.sol\":1990:2022  fundsRaisedByAddress[msg.sender] */\n      0x00\n        /* \"FundMe.sol\":2011:2021  msg.sender */\n      caller\n        /* \"FundMe.sol\":1990:2022  fundsRaisedByAddress[msg.sender] */\n      0xffffffffffffffffffffffffffffffffffffffff\n      and\n      0xffffffffffffffffffffffffffffffffffffffff\n      and\n      dup2\n      mstore\n      0x20\n      add\n      swap1\n      dup2\n      mstore\n      0x20\n      add\n      0x00\n      keccak256\n      sload\n        /* \"FundMe.sol\":1990:2034  fundsRaisedByAddress[msg.sender] + msg.value */\n      tag_58\n      swap2\n      swap1\n      tag_51\n      jump\t// in\n    tag_58:\n        /* \"FundMe.sol\":1955:1975  fundsRaisedByAddress */\n      0x03\n        /* \"FundMe.sol\":1955:1987  fundsRaisedByAddress[msg.sender] */\n      0x00\n        /* \"FundMe.sol\":1976:1986  msg.sender */\n      caller\n        /* \"FundMe.sol\":1955:1987  fundsRaisedByAddress[msg.sender] */\n      0xffffffffffffffffffffffffffffffffffffffff\n      and\n      0xffffffffffffffffffffffffffffffffffffffff\n      and\n      dup2\n      mstore\n      0x20\n      add\n      swap1\n      dup2\n      mstore\n      0x20\n      add\n      0x00\n      keccak256\n        /* \"FundMe.sol\":1955:2034  fundsRaisedByAddress[msg.sender] = fundsRaisedByAddress[msg.sender] + msg.value */\n      dup2\n      swap1\n      sstore\n      pop\n        /* \"FundMe.sol\":976:2295  function Fund() public payable {... */\n      jump\t// out\n        /* \"FundMe.sol\":775:851  mapping (address funder => uint256 amountRaised) public fundsRaisedByAddress */\n    tag_26:\n      mstore(0x20, 0x03)\n      dup1\n      0x00\n      mstore\n      keccak256(0x00, 0x40)\n      0x00\n      swap2\n      pop\n      swap1\n      pop\n      sload\n      dup2\n      jump\t// out\n        /* \"FundMe.sol\":704:728  address[] public funders */\n    tag_32:\n      0x02\n      dup2\n      dup2\n      sload\n      dup2\n      lt\n      tag_59\n      jumpi\n      0x00\n      dup1\n      revert\n    tag_59:\n      swap1\n      0x00\n      mstore\n      keccak256(0x00, 0x20)\n      add\n      0x00\n      swap2\n      pop\n      sload\n      swap1\n      0x0100\n      exp\n      swap1\n      div\n      0xffffffffffffffffffffffffffffffffffffffff\n      and\n      dup2\n      jump\t// out\n        /* \"PriceConvertor.sol\":1201:1746  function getConversionRate(uint ethAmount) internal  view returns (uint256) {... */\n    tag_53:\n        /* \"PriceConvertor.sol\":1268:1275  uint256 */\n      0x00\n        /* \"PriceConvertor.sol\":1288:1304  uint256 ethPrice */\n      dup1\n        /* \"PriceConvertor.sol\":1307:1317  getPrice() */\n      tag_62\n        /* \"PriceConvertor.sol\":1307:1315  getPrice */\n      tag_63\n        /* \"PriceConvertor.sol\":1307:1317  getPrice() */\n      jump\t// in\n    tag_62:\n        /* \"PriceConvertor.sol\":1288:1317  uint256 ethPrice = getPrice() */\n      swap1\n      pop\n        /* \"PriceConvertor.sol\":1588:1610  uint256 ethAmountInUsd */\n      0x00\n        /* \"PriceConvertor.sol\":1636:1640  1e18 */\n      0x0de0b6b3a7640000\n        /* \"PriceConvertor.sol\":1626:1634  ethPrice */\n      dup3\n        /* \"PriceConvertor.sol\":1614:1623  ethAmount */\n      dup6\n        /* \"PriceConvertor.sol\":1614:1634  ethAmount * ethPrice */\n      tag_64\n      swap2\n      swap1\n      tag_65\n      jump\t// in\n    tag_64:\n        /* \"PriceConvertor.sol\":1613:1640  (ethAmount * ethPrice)/1e18 */\n      tag_66\n      swap2\n      swap1\n      tag_67\n      jump\t// in\n    tag_66:\n        /* \"PriceConvertor.sol\":1588:1640  uint256 ethAmountInUsd = (ethAmount * ethPrice)/1e18 */\n      swap1\n      pop\n        /* \"PriceConvertor.sol\":1724:1738  ethAmountInUsd */\n      dup1\n        /* \"PriceConvertor.sol\":1717:1738  return ethAmountInUsd */\n      swap3\n      pop\n      pop\n      pop\n        /* \"PriceConvertor.sol\":1201:1746  function getConversionRate(uint ethAmount) internal  view returns (uint256) {... */\n      swap2\n      swap1\n      pop\n      jump\t// out\n        /* \"PriceConvertor.sol\":214:1193  function getPrice() internal  view returns (uint256){... */\n    tag_63:\n        /* \"PriceConvertor.sol\":258:265  uint256 */\n      0x00\n        /* \"PriceConvertor.sol\":437:468  AggregatorV3Interface priceFeed */\n      dup1\n        /* \"PriceConvertor.sol\":493:535  0x694AA1769357215DE4FAC081bf1f309aDC325306 */\n      0x694aa1769357215de4fac081bf1f309adc325306\n        /* \"PriceConvertor.sol\":437:536  AggregatorV3Interface priceFeed = AggregatorV3Interface(0x694AA1769357215DE4FAC081bf1f309aDC325306) */\n      swap1\n      pop\n        /* \"PriceConvertor.sol\":744:756  int256 price */\n      0x00\n        /* \"PriceConvertor.sol\":882:891  priceFeed */\n      dup2\n        /* \"PriceConvertor.sol\":882:907  priceFeed.latestRoundData */\n      0xffffffffffffffffffffffffffffffffffffffff\n      and\n      0xfeaf968c\n        /* \"PriceConvertor.sol\":882:909  priceFeed.latestRoundData() */\n      mload(0x40)\n      dup2\n      0xffffffff\n      and\n      0xe0\n      shl\n      dup2\n      mstore\n      0x04\n      add\n      0xa0\n      mload(0x40)\n      dup1\n      dup4\n      sub\n      dup2\n      dup7\n      gas\n      staticcall\n      iszero\n      dup1\n      iszero\n      tag_70\n      jumpi\n      returndatasize\n      0x00\n      dup1\n      returndatacopy\n      revert(0x00, returndatasize)\n    tag_70:\n      pop\n      pop\n      pop\n      pop\n      mload(0x40)\n      returndatasize\n      not(0x1f)\n      0x1f\n      dup3\n      add\n      and\n      dup3\n      add\n      dup1\n      0x40\n      mstore\n      pop\n      dup2\n      add\n      swap1\n      tag_71\n      swap2\n      swap1\n      tag_72\n      jump\t// in\n    tag_71:\n        /* \"PriceConvertor.sol\":694:909  (... */\n      pop\n      pop\n      pop\n      swap2\n      pop\n      pop\n        /* \"PriceConvertor.sol\":1156:1160  1e10 */\n      0x02540be400\n        /* \"PriceConvertor.sol\":1148:1153  price */\n      dup2\n        /* \"PriceConvertor.sol\":1148:1160  price * 1e10 */\n      tag_73\n      swap2\n      swap1\n      tag_74\n      jump\t// in\n    tag_73:\n        /* \"PriceConvertor.sol\":1133:1161  return uint256(price * 1e10) */\n      swap3\n      pop\n      pop\n      pop\n        /* \"PriceConvertor.sol\":214:1193  function getPrice() internal  view returns (uint256){... */\n      swap1\n      jump\t// out\n    tag_48:\n      dup3\n      dup1\n      sload\n      dup3\n      dup3\n      sstore\n      swap1\n      0x00\n      mstore\n      keccak256(0x00, 0x20)\n      swap1\n      dup2\n      add\n      swap3\n      dup3\n      iszero\n      tag_75\n      jumpi\n      swap2\n      0x20\n      mul\n      dup3\n      add\n    tag_76:\n      dup3\n      dup2\n      gt\n      iszero\n      tag_77\n      jumpi\n      dup3\n      mload\n      dup3\n      exp(0x0100, 0x00)\n      dup2\n      sload\n      dup2\n      0xffffffffffffffffffffffffffffffffffffffff\n      mul\n      not\n      and\n      swap1\n      dup4\n      0xffffffffffffffffffffffffffffffffffffffff\n      and\n      mul\n      or\n      swap1\n      sstore\n      pop\n      swap2\n      0x20\n      add\n      swap2\n      swap1\n      0x01\n      add\n      swap1\n      jump(tag_76)\n    tag_77:\n    tag_75:\n      pop\n      swap1\n      pop\n      tag_78\n      swap2\n      swap1\n      tag_79\n      jump\t// in\n    tag_78:\n      pop\n      swap1\n      jump\t// out\n    tag_79:\n    tag_80:\n      dup1\n      dup3\n      gt\n      iszero\n      tag_81\n      jumpi\n      0x00\n      dup2\n      0x00\n      swap1\n      sstore\n      pop\n      0x01\n      add\n      jump(tag_80)\n    tag_81:\n      pop\n      swap1\n      jump\t// out\n        /* \"#utility.yul\":7:84   */\n    tag_82:\n        /* \"#utility.yul\":44:51   */\n      0x00\n        /* \"#utility.yul\":73:78   */\n      dup2\n        /* \"#utility.yul\":62:78   */\n      swap1\n      pop\n        /* \"#utility.yul\":7:84   */\n      swap2\n      swap1\n      pop\n      jump\t// out\n        /* \"#utility.yul\":90:208   */\n    tag_83:\n        /* \"#utility.yul\":177:201   */\n      tag_109\n        /* \"#utility.yul\":195:200   */\n      dup2\n        /* \"#utility.yul\":177:201   */\n      tag_82\n      jump\t// in\n    tag_109:\n        /* \"#utility.yul\":172:175   */\n      dup3\n        /* \"#utility.yul\":165:202   */\n      mstore\n        /* \"#utility.yul\":90:208   */\n      pop\n      pop\n      jump\t// out\n        /* \"#utility.yul\":214:436   */\n    tag_12:\n        /* \"#utility.yul\":307:311   */\n      0x00\n        /* \"#utility.yul\":345:347   */\n      0x20\n        /* \"#utility.yul\":334:343   */\n      dup3\n        /* \"#utility.yul\":330:348   */\n      add\n        /* \"#utility.yul\":322:348   */\n      swap1\n      pop\n        /* \"#utility.yul\":358:429   */\n      tag_111\n        /* \"#utility.yul\":426:427   */\n      0x00\n        /* \"#utility.yul\":415:424   */\n      dup4\n        /* \"#utility.yul\":411:428   */\n      add\n        /* \"#utility.yul\":402:408   */\n      dup5\n        /* \"#utility.yul\":358:429   */\n      tag_83\n      jump\t// in\n    tag_111:\n        /* \"#utility.yul\":214:436   */\n      swap3\n      swap2\n      pop\n      pop\n      jump\t// out\n        /* \"#utility.yul\":523:640   */\n    tag_85:\n        /* \"#utility.yul\":632:633   */\n      0x00\n        /* \"#utility.yul\":629:630   */\n      dup1\n        /* \"#utility.yul\":622:634   */\n      revert\n        /* \"#utility.yul\":769:895   */\n    tag_87:\n        /* \"#utility.yul\":806:813   */\n      0x00\n        /* \"#utility.yul\":846:888   */\n      0xffffffffffffffffffffffffffffffffffffffff\n        /* \"#utility.yul\":839:844   */\n      dup3\n        /* \"#utility.yul\":835:889   */\n      and\n        /* \"#utility.yul\":824:889   */\n      swap1\n      pop\n        /* \"#utility.yul\":769:895   */\n      swap2\n      swap1\n      pop\n      jump\t// out\n        /* \"#utility.yul\":901:997   */\n    tag_88:\n        /* \"#utility.yul\":938:945   */\n      0x00\n        /* \"#utility.yul\":967:991   */\n      tag_117\n        /* \"#utility.yul\":985:990   */\n      dup3\n        /* \"#utility.yul\":967:991   */\n      tag_87\n      jump\t// in\n    tag_117:\n        /* \"#utility.yul\":956:991   */\n      swap1\n      pop\n        /* \"#utility.yul\":901:997   */\n      swap2\n      swap1\n      pop\n      jump\t// out\n        /* \"#utility.yul\":1003:1125   */\n    tag_89:\n        /* \"#utility.yul\":1076:1100   */\n      tag_119\n        /* \"#utility.yul\":1094:1099   */\n      dup2\n        /* \"#utility.yul\":1076:1100   */\n      tag_88\n      jump\t// in\n    tag_119:\n        /* \"#utility.yul\":1069:1074   */\n      dup2\n        /* \"#utility.yul\":1066:1101   */\n      eq\n        /* \"#utility.yul\":1056:1119   */\n      tag_120\n      jumpi\n        /* \"#utility.yul\":1115:1116   */\n      0x00\n        /* \"#utility.yul\":1112:1113   */\n      dup1\n        /* \"#utility.yul\":1105:1117   */\n      revert\n        /* \"#utility.yul\":1056:1119   */\n    tag_120:\n        /* \"#utility.yul\":1003:1125   */\n      pop\n      jump\t// out\n        /* \"#utility.yul\":1131:1270   */\n    tag_90:\n        /* \"#utility.yul\":1177:1182   */\n      0x00\n        /* \"#utility.yul\":1215:1221   */\n      dup2\n        /* \"#utility.yul\":1202:1222   */\n      calldataload\n        /* \"#utility.yul\":1193:1222   */\n      swap1\n      pop\n        /* \"#utility.yul\":1231:1264   */\n      tag_122\n        /* \"#utility.yul\":1258:1263   */\n      dup2\n        /* \"#utility.yul\":1231:1264   */\n      tag_89\n      jump\t// in\n    tag_122:\n        /* \"#utility.yul\":1131:1270   */\n      swap3\n      swap2\n      pop\n      pop\n      jump\t// out\n        /* \"#utility.yul\":1276:1605   */\n    tag_25:\n        /* \"#utility.yul\":1335:1341   */\n      0x00\n        /* \"#utility.yul\":1384:1386   */\n      0x20\n        /* \"#utility.yul\":1372:1381   */\n      dup3\n        /* \"#utility.yul\":1363:1370   */\n      dup5\n        /* \"#utility.yul\":1359:1382   */\n      sub\n        /* \"#utility.yul\":1355:1387   */\n      slt\n        /* \"#utility.yul\":1352:1471   */\n      iszero\n      tag_124\n      jumpi\n        /* \"#utility.yul\":1390:1469   */\n      tag_125\n      tag_85\n      jump\t// in\n    tag_125:\n        /* \"#utility.yul\":1352:1471   */\n    tag_124:\n        /* \"#utility.yul\":1510:1511   */\n      0x00\n        /* \"#utility.yul\":1535:1588   */\n      tag_126\n        /* \"#utility.yul\":1580:1587   */\n      dup5\n        /* \"#utility.yul\":1571:1577   */\n      dup3\n        /* \"#utility.yul\":1560:1569   */\n      dup6\n        /* \"#utility.yul\":1556:1578   */\n      add\n        /* \"#utility.yul\":1535:1588   */\n      tag_90\n      jump\t// in\n    tag_126:\n        /* \"#utility.yul\":1525:1588   */\n      swap2\n      pop\n        /* \"#utility.yul\":1481:1598   */\n      pop\n        /* \"#utility.yul\":1276:1605   */\n      swap3\n      swap2\n      pop\n      pop\n      jump\t// out\n        /* \"#utility.yul\":1611:1733   */\n    tag_91:\n        /* \"#utility.yul\":1684:1708   */\n      tag_128\n        /* \"#utility.yul\":1702:1707   */\n      dup2\n        /* \"#utility.yul\":1684:1708   */\n      tag_82\n      jump\t// in\n    tag_128:\n        /* \"#utility.yul\":1677:1682   */\n      dup2\n        /* \"#utility.yul\":1674:1709   */\n      eq\n        /* \"#utility.yul\":1664:1727   */\n      tag_129\n      jumpi\n        /* \"#utility.yul\":1723:1724   */\n      0x00\n        /* \"#utility.yul\":1720:1721   */\n      dup1\n        /* \"#utility.yul\":1713:1725   */\n      revert\n        /* \"#utility.yul\":1664:1727   */\n    tag_129:\n        /* \"#utility.yul\":1611:1733   */\n      pop\n      jump\t// out\n        /* \"#utility.yul\":1739:1878   */\n    tag_92:\n        /* \"#utility.yul\":1785:1790   */\n      0x00\n        /* \"#utility.yul\":1823:1829   */\n      dup2\n        /* \"#utility.yul\":1810:1830   */\n      calldataload\n        /* \"#utility.yul\":1801:1830   */\n      swap1\n      pop\n        /* \"#utility.yul\":1839:1872   */\n      tag_131\n        /* \"#utility.yul\":1866:1871   */\n      dup2\n        /* \"#utility.yul\":1839:1872   */\n      tag_91\n      jump\t// in\n    tag_131:\n        /* \"#utility.yul\":1739:1878   */\n      swap3\n      swap2\n      pop\n      pop\n      jump\t// out\n        /* \"#utility.yul\":1884:2213   */\n    tag_31:\n        /* \"#utility.yul\":1943:1949   */\n      0x00\n        /* \"#utility.yul\":1992:1994   */\n      0x20\n        /* \"#utility.yul\":1980:1989   */\n      dup3\n        /* \"#utility.yul\":1971:1978   */\n      dup5\n        /* \"#utility.yul\":1967:1990   */\n      sub\n        /* \"#utility.yul\":1963:1995   */\n      slt\n        /* \"#utility.yul\":1960:2079   */\n      iszero\n      tag_133\n      jumpi\n        /* \"#utility.yul\":1998:2077   */\n      tag_134\n      tag_85\n      jump\t// in\n    tag_134:\n        /* \"#utility.yul\":1960:2079   */\n    tag_133:\n        /* \"#utility.yul\":2118:2119   */\n      0x00\n        /* \"#utility.yul\":2143:2196   */\n      tag_135\n        /* \"#utility.yul\":2188:2195   */\n      dup5\n        /* \"#utility.yul\":2179:2185   */\n      dup3\n        /* \"#utility.yul\":2168:2177   */\n      dup6\n        /* \"#utility.yul\":2164:2186   */\n      add\n        /* \"#utility.yul\":2143:2196   */\n      tag_92\n      jump\t// in\n    tag_135:\n        /* \"#utility.yul\":2133:2196   */\n      swap2\n      pop\n        /* \"#utility.yul\":2089:2206   */\n      pop\n        /* \"#utility.yul\":1884:2213   */\n      swap3\n      swap2\n      pop\n      pop\n      jump\t// out\n        /* \"#utility.yul\":2219:2337   */\n    tag_93:\n        /* \"#utility.yul\":2306:2330   */\n      tag_137\n        /* \"#utility.yul\":2324:2329   */\n      dup2\n        /* \"#utility.yul\":2306:2330   */\n      tag_88\n      jump\t// in\n    tag_137:\n        /* \"#utility.yul\":2301:2304   */\n      dup3\n        /* \"#utility.yul\":2294:2331   */\n      mstore\n        /* \"#utility.yul\":2219:2337   */\n      pop\n      pop\n      jump\t// out\n        /* \"#utility.yul\":2343:2565   */\n    tag_34:\n        /* \"#utility.yul\":2436:2440   */\n      0x00\n        /* \"#utility.yul\":2474:2476   */\n      0x20\n        /* \"#utility.yul\":2463:2472   */\n      dup3\n        /* \"#utility.yul\":2459:2477   */\n      add\n        /* \"#utility.yul\":2451:2477   */\n      swap1\n      pop\n        /* \"#utility.yul\":2487:2558   */\n      tag_139\n        /* \"#utility.yul\":2555:2556   */\n      0x00\n        /* \"#utility.yul\":2544:2553   */\n      dup4\n        /* \"#utility.yul\":2540:2557   */\n      add\n        /* \"#utility.yul\":2531:2537   */\n      dup5\n        /* \"#utility.yul\":2487:2558   */\n      tag_93\n      jump\t// in\n    tag_139:\n        /* \"#utility.yul\":2343:2565   */\n      swap3\n      swap2\n      pop\n      pop\n      jump\t// out\n        /* \"#utility.yul\":2571:2751   */\n    tag_41:\n        /* \"#utility.yul\":2619:2696   */\n      0x4e487b7100000000000000000000000000000000000000000000000000000000\n        /* \"#utility.yul\":2616:2617   */\n      0x00\n        /* \"#utility.yul\":2609:2697   */\n      mstore\n        /* \"#utility.yul\":2716:2720   */\n      0x32\n        /* \"#utility.yul\":2713:2714   */\n      0x04\n        /* \"#utility.yul\":2706:2721   */\n      mstore\n        /* \"#utility.yul\":2740:2744   */\n      0x24\n        /* \"#utility.yul\":2737:2738   */\n      0x00\n        /* \"#utility.yul\":2730:2745   */\n      revert\n        /* \"#utility.yul\":2757:2937   */\n    tag_45:\n        /* \"#utility.yul\":2805:2882   */\n      0x4e487b7100000000000000000000000000000000000000000000000000000000\n        /* \"#utility.yul\":2802:2803   */\n      0x00\n        /* \"#utility.yul\":2795:2883   */\n      mstore\n        /* \"#utility.yul\":2902:2906   */\n      0x41\n        /* \"#utility.yul\":2899:2900   */\n      0x04\n        /* \"#utility.yul\":2892:2907   */\n      mstore\n        /* \"#utility.yul\":2926:2930   */\n      0x24\n        /* \"#utility.yul\":2923:2924   */\n      0x00\n        /* \"#utility.yul\":2916:2931   */\n      revert\n        /* \"#utility.yul\":2943:3123   */\n    tag_94:\n        /* \"#utility.yul\":2991:3068   */\n      0x4e487b7100000000000000000000000000000000000000000000000000000000\n        /* \"#utility.yul\":2988:2989   */\n      0x00\n        /* \"#utility.yul\":2981:3069   */\n      mstore\n        /* \"#utility.yul\":3088:3092   */\n      0x11\n        /* \"#utility.yul\":3085:3086   */\n      0x04\n        /* \"#utility.yul\":3078:3093   */\n      mstore\n        /* \"#utility.yul\":3112:3116   */\n      0x24\n        /* \"#utility.yul\":3109:3110   */\n      0x00\n        /* \"#utility.yul\":3102:3117   */\n      revert\n        /* \"#utility.yul\":3129:3320   */\n    tag_51:\n        /* \"#utility.yul\":3169:3172   */\n      0x00\n        /* \"#utility.yul\":3188:3208   */\n      tag_144\n        /* \"#utility.yul\":3206:3207   */\n      dup3\n        /* \"#utility.yul\":3188:3208   */\n      tag_82\n      jump\t// in\n    tag_144:\n        /* \"#utility.yul\":3183:3208   */\n      swap2\n      pop\n        /* \"#utility.yul\":3222:3242   */\n      tag_145\n        /* \"#utility.yul\":3240:3241   */\n      dup4\n        /* \"#utility.yul\":3222:3242   */\n      tag_82\n      jump\t// in\n    tag_145:\n        /* \"#utility.yul\":3217:3242   */\n      swap3\n      pop\n        /* \"#utility.yul\":3265:3266   */\n      dup3\n        /* \"#utility.yul\":3262:3263   */\n      dup3\n        /* \"#utility.yul\":3258:3267   */\n      add\n        /* \"#utility.yul\":3251:3267   */\n      swap1\n      pop\n        /* \"#utility.yul\":3286:3289   */\n      dup1\n        /* \"#utility.yul\":3283:3284   */\n      dup3\n        /* \"#utility.yul\":3280:3290   */\n      gt\n        /* \"#utility.yul\":3277:3313   */\n      iszero\n      tag_146\n      jumpi\n        /* \"#utility.yul\":3293:3311   */\n      tag_147\n      tag_94\n      jump\t// in\n    tag_147:\n        /* \"#utility.yul\":3277:3313   */\n    tag_146:\n        /* \"#utility.yul\":3129:3320   */\n      swap3\n      swap2\n      pop\n      pop\n      jump\t// out\n        /* \"#utility.yul\":3326:3495   */\n    tag_95:\n        /* \"#utility.yul\":3410:3421   */\n      0x00\n        /* \"#utility.yul\":3444:3450   */\n      dup3\n        /* \"#utility.yul\":3439:3442   */\n      dup3\n        /* \"#utility.yul\":3432:3451   */\n      mstore\n        /* \"#utility.yul\":3484:3488   */\n      0x20\n        /* \"#utility.yul\":3479:3482   */\n      dup3\n        /* \"#utility.yul\":3475:3489   */\n      add\n        /* \"#utility.yul\":3460:3489   */\n      swap1\n      pop\n        /* \"#utility.yul\":3326:3495   */\n      swap3\n      swap2\n      pop\n      pop\n      jump\t// out\n        /* \"#utility.yul\":3501:3673   */\n    tag_96:\n        /* \"#utility.yul\":3641:3665   */\n      0x6e6f7420656e6f7567682045544820616d6f756e742100000000000000000000\n        /* \"#utility.yul\":3637:3638   */\n      0x00\n        /* \"#utility.yul\":3629:3635   */\n      dup3\n        /* \"#utility.yul\":3625:3639   */\n      add\n        /* \"#utility.yul\":3618:3666   */\n      mstore\n        /* \"#utility.yul\":3501:3673   */\n      pop\n      jump\t// out\n        /* \"#utility.yul\":3679:4045   */\n    tag_97:\n        /* \"#utility.yul\":3821:3824   */\n      0x00\n        /* \"#utility.yul\":3842:3909   */\n      tag_151\n        /* \"#utility.yul\":3906:3908   */\n      0x16\n        /* \"#utility.yul\":3901:3904   */\n      dup4\n        /* \"#utility.yul\":3842:3909   */\n      tag_95\n      jump\t// in\n    tag_151:\n        /* \"#utility.yul\":3835:3909   */\n      swap2\n      pop\n        /* \"#utility.yul\":3918:4011   */\n      tag_152\n        /* \"#utility.yul\":4007:4010   */\n      dup3\n        /* \"#utility.yul\":3918:4011   */\n      tag_96\n      jump\t// in\n    tag_152:\n        /* \"#utility.yul\":4036:4038   */\n      0x20\n        /* \"#utility.yul\":4031:4034   */\n      dup3\n        /* \"#utility.yul\":4027:4039   */\n      add\n        /* \"#utility.yul\":4020:4039   */\n      swap1\n      pop\n        /* \"#utility.yul\":3679:4045   */\n      swap2\n      swap1\n      pop\n      jump\t// out\n        /* \"#utility.yul\":4051:4470   */\n    tag_56:\n        /* \"#utility.yul\":4217:4221   */\n      0x00\n        /* \"#utility.yul\":4255:4257   */\n      0x20\n        /* \"#utility.yul\":4244:4253   */\n      dup3\n        /* \"#utility.yul\":4240:4258   */\n      add\n        /* \"#utility.yul\":4232:4258   */\n      swap1\n      pop\n        /* \"#utility.yul\":4304:4313   */\n      dup2\n        /* \"#utility.yul\":4298:4302   */\n      dup2\n        /* \"#utility.yul\":4294:4314   */\n      sub\n        /* \"#utility.yul\":4290:4291   */\n      0x00\n        /* \"#utility.yul\":4279:4288   */\n      dup4\n        /* \"#utility.yul\":4275:4292   */\n      add\n        /* \"#utility.yul\":4268:4315   */\n      mstore\n        /* \"#utility.yul\":4332:4463   */\n      tag_154\n        /* \"#utility.yul\":4458:4462   */\n      dup2\n        /* \"#utility.yul\":4332:4463   */\n      tag_97\n      jump\t// in\n    tag_154:\n        /* \"#utility.yul\":4324:4463   */\n      swap1\n      pop\n        /* \"#utility.yul\":4051:4470   */\n      swap2\n      swap1\n      pop\n      jump\t// out\n        /* \"#utility.yul\":4476:4886   */\n    tag_65:\n        /* \"#utility.yul\":4516:4523   */\n      0x00\n        /* \"#utility.yul\":4539:4559   */\n      tag_156\n        /* \"#utility.yul\":4557:4558   */\n      dup3\n        /* \"#utility.yul\":4539:4559   */\n      tag_82\n      jump\t// in\n    tag_156:\n        /* \"#utility.yul\":4534:4559   */\n      swap2\n      pop\n        /* \"#utility.yul\":4573:4593   */\n      tag_157\n        /* \"#utility.yul\":4591:4592   */\n      dup4\n        /* \"#utility.yul\":4573:4593   */\n      tag_82\n      jump\t// in\n    tag_157:\n        /* \"#utility.yul\":4568:4593   */\n      swap3\n      pop\n        /* \"#utility.yul\":4628:4629   */\n      dup3\n        /* \"#utility.yul\":4625:4626   */\n      dup3\n        /* \"#utility.yul\":4621:4630   */\n      mul\n        /* \"#utility.yul\":4650:4680   */\n      tag_158\n        /* \"#utility.yul\":4668:4679   */\n      dup2\n        /* \"#utility.yul\":4650:4680   */\n      tag_82\n      jump\t// in\n    tag_158:\n        /* \"#utility.yul\":4639:4680   */\n      swap2\n      pop\n        /* \"#utility.yul\":4829:4830   */\n      dup3\n        /* \"#utility.yul\":4820:4827   */\n      dup3\n        /* \"#utility.yul\":4816:4831   */\n      div\n        /* \"#utility.yul\":4813:4814   */\n      dup5\n        /* \"#utility.yul\":4810:4832   */\n      eq\n        /* \"#utility.yul\":4790:4791   */\n      dup4\n        /* \"#utility.yul\":4783:4792   */\n      iszero\n        /* \"#utility.yul\":4763:4846   */\n      or\n        /* \"#utility.yul\":4740:4879   */\n      tag_159\n      jumpi\n        /* \"#utility.yul\":4859:4877   */\n      tag_160\n      tag_94\n      jump\t// in\n    tag_160:\n        /* \"#utility.yul\":4740:4879   */\n    tag_159:\n        /* \"#utility.yul\":4524:4886   */\n      pop\n        /* \"#utility.yul\":4476:4886   */\n      swap3\n      swap2\n      pop\n      pop\n      jump\t// out\n        /* \"#utility.yul\":4892:5072   */\n    tag_98:\n        /* \"#utility.yul\":4940:5017   */\n      0x4e487b7100000000000000000000000000000000000000000000000000000000\n        /* \"#utility.yul\":4937:4938   */\n      0x00\n        /* \"#utility.yul\":4930:5018   */\n      mstore\n        /* \"#utility.yul\":5037:5041   */\n      0x12\n        /* \"#utility.yul\":5034:5035   */\n      0x04\n        /* \"#utility.yul\":5027:5042   */\n      mstore\n        /* \"#utility.yul\":5061:5065   */\n      0x24\n        /* \"#utility.yul\":5058:5059   */\n      0x00\n        /* \"#utility.yul\":5051:5066   */\n      revert\n        /* \"#utility.yul\":5078:5263   */\n    tag_67:\n        /* \"#utility.yul\":5118:5119   */\n      0x00\n        /* \"#utility.yul\":5135:5155   */\n      tag_163\n        /* \"#utility.yul\":5153:5154   */\n      dup3\n        /* \"#utility.yul\":5135:5155   */\n      tag_82\n      jump\t// in\n    tag_163:\n        /* \"#utility.yul\":5130:5155   */\n      swap2\n      pop\n        /* \"#utility.yul\":5169:5189   */\n      tag_164\n        /* \"#utility.yul\":5187:5188   */\n      dup4\n        /* \"#utility.yul\":5169:5189   */\n      tag_82\n      jump\t// in\n    tag_164:\n        /* \"#utility.yul\":5164:5189   */\n      swap3\n      pop\n        /* \"#utility.yul\":5208:5209   */\n      dup3\n        /* \"#utility.yul\":5198:5233   */\n      tag_165\n      jumpi\n        /* \"#utility.yul\":5213:5231   */\n      tag_166\n      tag_98\n      jump\t// in\n    tag_166:\n        /* \"#utility.yul\":5198:5233   */\n    tag_165:\n        /* \"#utility.yul\":5255:5256   */\n      dup3\n        /* \"#utility.yul\":5252:5253   */\n      dup3\n        /* \"#utility.yul\":5248:5257   */\n      div\n        /* \"#utility.yul\":5243:5257   */\n      swap1\n      pop\n        /* \"#utility.yul\":5078:5263   */\n      swap3\n      swap2\n      pop\n      pop\n      jump\t// out\n        /* \"#utility.yul\":5269:5374   */\n    tag_99:\n        /* \"#utility.yul\":5305:5312   */\n      0x00\n        /* \"#utility.yul\":5345:5367   */\n      0xffffffffffffffffffff\n        /* \"#utility.yul\":5338:5343   */\n      dup3\n        /* \"#utility.yul\":5334:5368   */\n      and\n        /* \"#utility.yul\":5323:5368   */\n      swap1\n      pop\n        /* \"#utility.yul\":5269:5374   */\n      swap2\n      swap1\n      pop\n      jump\t// out\n        /* \"#utility.yul\":5380:5500   */\n    tag_100:\n        /* \"#utility.yul\":5452:5475   */\n      tag_169\n        /* \"#utility.yul\":5469:5474   */\n      dup2\n        /* \"#utility.yul\":5452:5475   */\n      tag_99\n      jump\t// in\n    tag_169:\n        /* \"#utility.yul\":5445:5450   */\n      dup2\n        /* \"#utility.yul\":5442:5476   */\n      eq\n        /* \"#utility.yul\":5432:5494   */\n      tag_170\n      jumpi\n        /* \"#utility.yul\":5490:5491   */\n      0x00\n        /* \"#utility.yul\":5487:5488   */\n      dup1\n        /* \"#utility.yul\":5480:5492   */\n      revert\n        /* \"#utility.yul\":5432:5494   */\n    tag_170:\n        /* \"#utility.yul\":5380:5500   */\n      pop\n      jump\t// out\n        /* \"#utility.yul\":5506:5647   */\n    tag_101:\n        /* \"#utility.yul\":5562:5567   */\n      0x00\n        /* \"#utility.yul\":5593:5599   */\n      dup2\n        /* \"#utility.yul\":5587:5600   */\n      mload\n        /* \"#utility.yul\":5578:5600   */\n      swap1\n      pop\n        /* \"#utility.yul\":5609:5641   */\n      tag_172\n        /* \"#utility.yul\":5635:5640   */\n      dup2\n        /* \"#utility.yul\":5609:5641   */\n      tag_100\n      jump\t// in\n    tag_172:\n        /* \"#utility.yul\":5506:5647   */\n      swap3\n      swap2\n      pop\n      pop\n      jump\t// out\n        /* \"#utility.yul\":5653:5729   */\n    tag_102:\n        /* \"#utility.yul\":5689:5696   */\n      0x00\n        /* \"#utility.yul\":5718:5723   */\n      dup2\n        /* \"#utility.yul\":5707:5723   */\n      swap1\n      pop\n        /* \"#utility.yul\":5653:5729   */\n      swap2\n      swap1\n      pop\n      jump\t// out\n        /* \"#utility.yul\":5735:5855   */\n    tag_103:\n        /* \"#utility.yul\":5807:5830   */\n      tag_175\n        /* \"#utility.yul\":5824:5829   */\n      dup2\n        /* \"#utility.yul\":5807:5830   */\n      tag_102\n      jump\t// in\n    tag_175:\n        /* \"#utility.yul\":5800:5805   */\n      dup2\n        /* \"#utility.yul\":5797:5831   */\n      eq\n        /* \"#utility.yul\":5787:5849   */\n      tag_176\n      jumpi\n        /* \"#utility.yul\":5845:5846   */\n      0x00\n        /* \"#utility.yul\":5842:5843   */\n      dup1\n        /* \"#utility.yul\":5835:5847   */\n      revert\n        /* \"#utility.yul\":5787:5849   */\n    tag_176:\n        /* \"#utility.yul\":5735:5855   */\n      pop\n      jump\t// out\n        /* \"#utility.yul\":5861:6002   */\n    tag_104:\n        /* \"#utility.yul\":5917:5922   */\n      0x00\n        /* \"#utility.yul\":5948:5954   */\n      dup2\n        /* \"#utility.yul\":5942:5955   */\n      mload\n        /* \"#utility.yul\":5933:5955   */\n      swap1\n      pop\n        /* \"#utility.yul\":5964:5996   */\n      tag_178\n        /* \"#utility.yul\":5990:5995   */\n      dup2\n        /* \"#utility.yul\":5964:5996   */\n      tag_103\n      jump\t// in\n    tag_178:\n        /* \"#utility.yul\":5861:6002   */\n      swap3\n      swap2\n      pop\n      pop\n      jump\t// out\n        /* \"#utility.yul\":6008:6151   */\n    tag_105:\n        /* \"#utility.yul\":6065:6070   */\n      0x00\n        /* \"#utility.yul\":6096:6102   */\n      dup2\n        /* \"#utility.yul\":6090:6103   */\n      mload\n        /* \"#utility.yul\":6081:6103   */\n      swap1\n      pop\n        /* \"#utility.yul\":6112:6145   */\n      tag_180\n        /* \"#utility.yul\":6139:6144   */\n      dup2\n        /* \"#utility.yul\":6112:6145   */\n      tag_91\n      jump\t// in\n    tag_180:\n        /* \"#utility.yul\":6008:6151   */\n      swap3\n      swap2\n      pop\n      pop\n      jump\t// out\n        /* \"#utility.yul\":6157:7128   */\n    tag_72:\n        /* \"#utility.yul\":6260:6266   */\n      0x00\n        /* \"#utility.yul\":6268:6274   */\n      dup1\n        /* \"#utility.yul\":6276:6282   */\n      0x00\n        /* \"#utility.yul\":6284:6290   */\n      dup1\n        /* \"#utility.yul\":6292:6298   */\n      0x00\n        /* \"#utility.yul\":6341:6344   */\n      0xa0\n        /* \"#utility.yul\":6329:6338   */\n      dup7\n        /* \"#utility.yul\":6320:6327   */\n      dup9\n        /* \"#utility.yul\":6316:6339   */\n      sub\n        /* \"#utility.yul\":6312:6345   */\n      slt\n        /* \"#utility.yul\":6309:6429   */\n      iszero\n      tag_182\n      jumpi\n        /* \"#utility.yul\":6348:6427   */\n      tag_183\n      tag_85\n      jump\t// in\n    tag_183:\n        /* \"#utility.yul\":6309:6429   */\n    tag_182:\n        /* \"#utility.yul\":6468:6469   */\n      0x00\n        /* \"#utility.yul\":6493:6556   */\n      tag_184\n        /* \"#utility.yul\":6548:6555   */\n      dup9\n        /* \"#utility.yul\":6539:6545   */\n      dup3\n        /* \"#utility.yul\":6528:6537   */\n      dup10\n        /* \"#utility.yul\":6524:6546   */\n      add\n        /* \"#utility.yul\":6493:6556   */\n      tag_101\n      jump\t// in\n    tag_184:\n        /* \"#utility.yul\":6483:6556   */\n      swap6\n      pop\n        /* \"#utility.yul\":6439:6566   */\n      pop\n        /* \"#utility.yul\":6605:6607   */\n      0x20\n        /* \"#utility.yul\":6631:6694   */\n      tag_185\n        /* \"#utility.yul\":6686:6693   */\n      dup9\n        /* \"#utility.yul\":6677:6683   */\n      dup3\n        /* \"#utility.yul\":6666:6675   */\n      dup10\n        /* \"#utility.yul\":6662:6684   */\n      add\n        /* \"#utility.yul\":6631:6694   */\n      tag_104\n      jump\t// in\n    tag_185:\n        /* \"#utility.yul\":6621:6694   */\n      swap5\n      pop\n        /* \"#utility.yul\":6576:6704   */\n      pop\n        /* \"#utility.yul\":6743:6745   */\n      0x40\n        /* \"#utility.yul\":6769:6833   */\n      tag_186\n        /* \"#utility.yul\":6825:6832   */\n      dup9\n        /* \"#utility.yul\":6816:6822   */\n      dup3\n        /* \"#utility.yul\":6805:6814   */\n      dup10\n        /* \"#utility.yul\":6801:6823   */\n      add\n        /* \"#utility.yul\":6769:6833   */\n      tag_105\n      jump\t// in\n    tag_186:\n        /* \"#utility.yul\":6759:6833   */\n      swap4\n      pop\n        /* \"#utility.yul\":6714:6843   */\n      pop\n        /* \"#utility.yul\":6882:6884   */\n      0x60\n        /* \"#utility.yul\":6908:6972   */\n      tag_187\n        /* \"#utility.yul\":6964:6971   */\n      dup9\n        /* \"#utility.yul\":6955:6961   */\n      dup3\n        /* \"#utility.yul\":6944:6953   */\n      dup10\n        /* \"#utility.yul\":6940:6962   */\n      add\n        /* \"#utility.yul\":6908:6972   */\n      tag_105\n      jump\t// in\n    tag_187:\n        /* \"#utility.yul\":6898:6972   */\n      swap3\n      pop\n        /* \"#utility.yul\":6853:6982   */\n      pop\n        /* \"#utility.yul\":7021:7024   */\n      0x80\n        /* \"#utility.yul\":7048:7111   */\n      tag_188\n        /* \"#utility.yul\":7103:7110   */\n      dup9\n        /* \"#utility.yul\":7094:7100   */\n      dup3\n        /* \"#utility.yul\":7083:7092   */\n      dup10\n        /* \"#utility.yul\":7079:7101   */\n      add\n        /* \"#utility.yul\":7048:7111   */\n      tag_101\n      jump\t// in\n    tag_188:\n        /* \"#utility.yul\":7038:7111   */\n      swap2\n      pop\n        /* \"#utility.yul\":6992:7121   */\n      pop\n        /* \"#utility.yul\":6157:7128   */\n      swap3\n      swap6\n      pop\n      swap3\n      swap6\n      swap1\n      swap4\n      pop\n      jump\t// out\n        /* \"#utility.yul\":7134:7690   */\n    tag_74:\n        /* \"#utility.yul\":7173:7180   */\n      0x00\n        /* \"#utility.yul\":7196:7215   */\n      tag_190\n        /* \"#utility.yul\":7213:7214   */\n      dup3\n        /* \"#utility.yul\":7196:7215   */\n      tag_102\n      jump\t// in\n    tag_190:\n        /* \"#utility.yul\":7191:7215   */\n      swap2\n      pop\n        /* \"#utility.yul\":7229:7248   */\n      tag_191\n        /* \"#utility.yul\":7246:7247   */\n      dup4\n        /* \"#utility.yul\":7229:7248   */\n      tag_102\n      jump\t// in\n    tag_191:\n        /* \"#utility.yul\":7224:7248   */\n      swap3\n      pop\n        /* \"#utility.yul\":7283:7284   */\n      dup3\n        /* \"#utility.yul\":7280:7281   */\n      dup3\n        /* \"#utility.yul\":7276:7285   */\n      mul\n        /* \"#utility.yul\":7305:7334   */\n      tag_192\n        /* \"#utility.yul\":7322:7333   */\n      dup2\n        /* \"#utility.yul\":7305:7334   */\n      tag_102\n      jump\t// in\n    tag_192:\n        /* \"#utility.yul\":7294:7334   */\n      swap2\n      pop\n        /* \"#utility.yul\":7392:7458   */\n      0x8000000000000000000000000000000000000000000000000000000000000000\n        /* \"#utility.yul\":7389:7390   */\n      dup5\n        /* \"#utility.yul\":7386:7459   */\n      eq\n        /* \"#utility.yul\":7382:7383   */\n      0x00\n        /* \"#utility.yul\":7379:7380   */\n      dup5\n        /* \"#utility.yul\":7375:7384   */\n      slt\n        /* \"#utility.yul\":7371:7460   */\n      and\n        /* \"#utility.yul\":7368:7483   */\n      iszero\n      tag_193\n      jumpi\n        /* \"#utility.yul\":7463:7481   */\n      tag_194\n      tag_94\n      jump\t// in\n    tag_194:\n        /* \"#utility.yul\":7368:7483   */\n    tag_193:\n        /* \"#utility.yul\":7633:7634   */\n      dup3\n        /* \"#utility.yul\":7624:7631   */\n      dup3\n        /* \"#utility.yul\":7619:7635   */\n      sdiv\n        /* \"#utility.yul\":7616:7617   */\n      dup5\n        /* \"#utility.yul\":7613:7636   */\n      eq\n        /* \"#utility.yul\":7593:7594   */\n      dup4\n        /* \"#utility.yul\":7586:7595   */\n      iszero\n        /* \"#utility.yul\":7566:7650   */\n      or\n        /* \"#utility.yul\":7543:7683   */\n      tag_195\n      jumpi\n        /* \"#utility.yul\":7663:7681   */\n      tag_196\n      tag_94\n      jump\t// in\n    tag_196:\n        /* \"#utility.yul\":7543:7683   */\n    tag_195:\n        /* \"#utility.yul\":7181:7690   */\n      pop\n        /* \"#utility.yul\":7134:7690   */\n      swap3\n      swap2\n      pop\n      pop\n      jump\t// out\n\n    auxdata: 0xa2646970667358221220ca7ff32570dc42d8019dc8802eba836fa021da3c83ba0ca9a8e407103c19897a64736f6c634300081a0033\n}\n",
				"bytecode": {
					"linkReferences": {},
					"object": "608060405260015f55674563918244f40000600155348015601e575f80fd5b50610a1a8061002c5f395ff3fe608060405260043610610054575f3560e01c8063098de8201461005857806347f1aae71461008257806357ea89b6146100ac5780636ce1417e146100c2578063b804f81f146100cc578063dc0d3dff14610108575b5f80fd5b348015610063575f80fd5b5061006c610144565b6040516100799190610582565b60405180910390f35b34801561008d575f80fd5b5061009661014a565b6040516100a39190610582565b60405180910390f35b3480156100b7575f80fd5b506100c061014f565b005b6100ca61024f565b005b3480156100d7575f80fd5b506100f260048036038101906100ed91906105f9565b61039b565b6040516100ff9190610582565b60405180910390f35b348015610113575f80fd5b5061012e6004803603810190610129919061064e565b6103b0565b60405161013b9190610688565b60405180910390f35b60015481565b5f5481565b5f5b6002805490508110156101ed575f60028281548110610173576101726106a1565b5b905f5260205f20015f9054906101000a900473ffffffffffffffffffffffffffffffffffffffff1690505f60035f8373ffffffffffffffffffffffffffffffffffffffff1673ffffffffffffffffffffffffffffffffffffffff1681526020019081526020015f2081905550508080600101915050610151565b505f67ffffffffffffffff811115610208576102076106ce565b5b6040519080825280602002602001820160405280156102365781602001602082028036833780820191505090505b506002908051906020019061024c9291906104c8565b50565b60025f5461025d9190610728565b5f8190555060015461026e346103eb565b10156102af576040517f08c379a00000000000000000000000000000000000000000000000000000000081526004016102a6906107b5565b60405180910390fd5b600233908060018154018082558091505060019003905f5260205f20015f9091909190916101000a81548173ffffffffffffffffffffffffffffffffffffffff021916908373ffffffffffffffffffffffffffffffffffffffff1602179055503460035f3373ffffffffffffffffffffffffffffffffffffffff1673ffffffffffffffffffffffffffffffffffffffff1681526020019081526020015f20546103589190610728565b60035f3373ffffffffffffffffffffffffffffffffffffffff1673ffffffffffffffffffffffffffffffffffffffff1681526020019081526020015f2081905550565b6003602052805f5260405f205f915090505481565b600281815481106103bf575f80fd5b905f5260205f20015f915054906101000a900473ffffffffffffffffffffffffffffffffffffffff1681565b5f806103f5610423565b90505f670de0b6b3a7640000828561040d91906107d3565b6104179190610841565b90508092505050919050565b5f8073694aa1769357215de4fac081bf1f309adc32530690505f8173ffffffffffffffffffffffffffffffffffffffff1663feaf968c6040518163ffffffff1660e01b815260040160a060405180830381865afa158015610486573d5f803e3d5ffd5b505050506040513d601f19601f820116820180604052508101906104aa91906108f7565b5050509150506402540be400816104c1919061096e565b9250505090565b828054828255905f5260205f2090810192821561053e579160200282015b8281111561053d578251825f6101000a81548173ffffffffffffffffffffffffffffffffffffffff021916908373ffffffffffffffffffffffffffffffffffffffff160217905550916020019190600101906104e6565b5b50905061054b919061054f565b5090565b5b80821115610566575f815f905550600101610550565b5090565b5f819050919050565b61057c8161056a565b82525050565b5f6020820190506105955f830184610573565b92915050565b5f80fd5b5f73ffffffffffffffffffffffffffffffffffffffff82169050919050565b5f6105c88261059f565b9050919050565b6105d8816105be565b81146105e2575f80fd5b50565b5f813590506105f3816105cf565b92915050565b5f6020828403121561060e5761060d61059b565b5b5f61061b848285016105e5565b91505092915050565b61062d8161056a565b8114610637575f80fd5b50565b5f8135905061064881610624565b92915050565b5f602082840312156106635761066261059b565b5b5f6106708482850161063a565b91505092915050565b610682816105be565b82525050565b5f60208201905061069b5f830184610679565b92915050565b7f4e487b71000000000000000000000000000000000000000000000000000000005f52603260045260245ffd5b7f4e487b71000000000000000000000000000000000000000000000000000000005f52604160045260245ffd5b7f4e487b71000000000000000000000000000000000000000000000000000000005f52601160045260245ffd5b5f6107328261056a565b915061073d8361056a565b9250828201905080821115610755576107546106fb565b5b92915050565b5f82825260208201905092915050565b7f6e6f7420656e6f7567682045544820616d6f756e7421000000000000000000005f82015250565b5f61079f60168361075b565b91506107aa8261076b565b602082019050919050565b5f6020820190508181035f8301526107cc81610793565b9050919050565b5f6107dd8261056a565b91506107e88361056a565b92508282026107f68161056a565b9150828204841483151761080d5761080c6106fb565b5b5092915050565b7f4e487b71000000000000000000000000000000000000000000000000000000005f52601260045260245ffd5b5f61084b8261056a565b91506108568361056a565b92508261086657610865610814565b5b828204905092915050565b5f69ffffffffffffffffffff82169050919050565b61088f81610871565b8114610899575f80fd5b50565b5f815190506108aa81610886565b92915050565b5f819050919050565b6108c2816108b0565b81146108cc575f80fd5b50565b5f815190506108dd816108b9565b92915050565b5f815190506108f181610624565b92915050565b5f805f805f60a086880312156109105761090f61059b565b5b5f61091d8882890161089c565b955050602061092e888289016108cf565b945050604061093f888289016108e3565b9350506060610950888289016108e3565b92505060806109618882890161089c565b9150509295509295909350565b5f610978826108b0565b9150610983836108b0565b9250828202610991816108b0565b91507f800000000000000000000000000000000000000000000000000000000000000084145f841216156109c8576109c76106fb565b5b82820584148315176109dd576109dc6106fb565b5b509291505056fea2646970667358221220ca7ff32570dc42d8019dc8802eba836fa021da3c83ba0ca9a8e407103c19897a64736f6c634300081a0033",
					"opcodes": "PUSH1 0x80 PUSH1 0x40 MSTORE PUSH1 0x1 PUSH0 SSTORE PUSH8 0x4563918244F40000 PUSH1 0x1 SSTORE CALLVALUE DUP1 ISZERO PUSH1 0x1E JUMPI PUSH0 DUP1 REVERT JUMPDEST POP PUSH2 0xA1A DUP1 PUSH2 0x2C PUSH0 CODECOPY PUSH0 RETURN INVALID PUSH1 0x80 PUSH1 0x40 MSTORE PUSH1 0x4 CALLDATASIZE LT PUSH2 0x54 JUMPI PUSH0 CALLDATALOAD PUSH1 0xE0 SHR DUP1 PUSH4 0x98DE820 EQ PUSH2 0x58 JUMPI DUP1 PUSH4 0x47F1AAE7 EQ PUSH2 0x82 JUMPI DUP1 PUSH4 0x57EA89B6 EQ PUSH2 0xAC JUMPI DUP1 PUSH4 0x6CE1417E EQ PUSH2 0xC2 JUMPI DUP1 PUSH4 0xB804F81F EQ PUSH2 0xCC JUMPI DUP1 PUSH4 0xDC0D3DFF EQ PUSH2 0x108 JUMPI JUMPDEST PUSH0 DUP1 REVERT JUMPDEST CALLVALUE DUP1 ISZERO PUSH2 0x63 JUMPI PUSH0 DUP1 REVERT JUMPDEST POP PUSH2 0x6C PUSH2 0x144 JUMP JUMPDEST PUSH1 0x40 MLOAD PUSH2 0x79 SWAP2 SWAP1 PUSH2 0x582 JUMP JUMPDEST PUSH1 0x40 MLOAD DUP1 SWAP2 SUB SWAP1 RETURN JUMPDEST CALLVALUE DUP1 ISZERO PUSH2 0x8D JUMPI PUSH0 DUP1 REVERT JUMPDEST POP PUSH2 0x96 PUSH2 0x14A JUMP JUMPDEST PUSH1 0x40 MLOAD PUSH2 0xA3 SWAP2 SWAP1 PUSH2 0x582 JUMP JUMPDEST PUSH1 0x40 MLOAD DUP1 SWAP2 SUB SWAP1 RETURN JUMPDEST CALLVALUE DUP1 ISZERO PUSH2 0xB7 JUMPI PUSH0 DUP1 REVERT JUMPDEST POP PUSH2 0xC0 PUSH2 0x14F JUMP JUMPDEST STOP JUMPDEST PUSH2 0xCA PUSH2 0x24F JUMP JUMPDEST STOP JUMPDEST CALLVALUE DUP1 ISZERO PUSH2 0xD7 JUMPI PUSH0 DUP1 REVERT JUMPDEST POP PUSH2 0xF2 PUSH1 0x4 DUP1 CALLDATASIZE SUB DUP2 ADD SWAP1 PUSH2 0xED SWAP2 SWAP1 PUSH2 0x5F9 JUMP JUMPDEST PUSH2 0x39B JUMP JUMPDEST PUSH1 0x40 MLOAD PUSH2 0xFF SWAP2 SWAP1 PUSH2 0x582 JUMP JUMPDEST PUSH1 0x40 MLOAD DUP1 SWAP2 SUB SWAP1 RETURN JUMPDEST CALLVALUE DUP1 ISZERO PUSH2 0x113 JUMPI PUSH0 DUP1 REVERT JUMPDEST POP PUSH2 0x12E PUSH1 0x4 DUP1 CALLDATASIZE SUB DUP2 ADD SWAP1 PUSH2 0x129 SWAP2 SWAP1 PUSH2 0x64E JUMP JUMPDEST PUSH2 0x3B0 JUMP JUMPDEST PUSH1 0x40 MLOAD PUSH2 0x13B SWAP2 SWAP1 PUSH2 0x688 JUMP JUMPDEST PUSH1 0x40 MLOAD DUP1 SWAP2 SUB SWAP1 RETURN JUMPDEST PUSH1 0x1 SLOAD DUP2 JUMP JUMPDEST PUSH0 SLOAD DUP2 JUMP JUMPDEST PUSH0 JUMPDEST PUSH1 0x2 DUP1 SLOAD SWAP1 POP DUP2 LT ISZERO PUSH2 0x1ED JUMPI PUSH0 PUSH1 0x2 DUP3 DUP2 SLOAD DUP2 LT PUSH2 0x173 JUMPI PUSH2 0x172 PUSH2 0x6A1 JUMP JUMPDEST JUMPDEST SWAP1 PUSH0 MSTORE PUSH1 0x20 PUSH0 KECCAK256 ADD PUSH0 SWAP1 SLOAD SWAP1 PUSH2 0x100 EXP SWAP1 DIV PUSH20 0xFFFFFFFFFFFFFFFFFFFFFFFFFFFFFFFFFFFFFFFF AND SWAP1 POP PUSH0 PUSH1 0x3 PUSH0 DUP4 PUSH20 0xFFFFFFFFFFFFFFFFFFFFFFFFFFFFFFFFFFFFFFFF AND PUSH20 0xFFFFFFFFFFFFFFFFFFFFFFFFFFFFFFFFFFFFFFFF AND DUP2 MSTORE PUSH1 0x20 ADD SWAP1 DUP2 MSTORE PUSH1 0x20 ADD PUSH0 KECCAK256 DUP2 SWAP1 SSTORE POP POP DUP1 DUP1 PUSH1 0x1 ADD SWAP2 POP POP PUSH2 0x151 JUMP JUMPDEST POP PUSH0 PUSH8 0xFFFFFFFFFFFFFFFF DUP2 GT ISZERO PUSH2 0x208 JUMPI PUSH2 0x207 PUSH2 0x6CE JUMP JUMPDEST JUMPDEST PUSH1 0x40 MLOAD SWAP1 DUP1 DUP3 MSTORE DUP1 PUSH1 0x20 MUL PUSH1 0x20 ADD DUP3 ADD PUSH1 0x40 MSTORE DUP1 ISZERO PUSH2 0x236 JUMPI DUP2 PUSH1 0x20 ADD PUSH1 0x20 DUP3 MUL DUP1 CALLDATASIZE DUP4 CALLDATACOPY DUP1 DUP3 ADD SWAP2 POP POP SWAP1 POP JUMPDEST POP PUSH1 0x2 SWAP1 DUP1 MLOAD SWAP1 PUSH1 0x20 ADD SWAP1 PUSH2 0x24C SWAP3 SWAP2 SWAP1 PUSH2 0x4C8 JUMP JUMPDEST POP JUMP JUMPDEST PUSH1 0x2 PUSH0 SLOAD PUSH2 0x25D SWAP2 SWAP1 PUSH2 0x728 JUMP JUMPDEST PUSH0 DUP2 SWAP1 SSTORE POP PUSH1 0x1 SLOAD PUSH2 0x26E CALLVALUE PUSH2 0x3EB JUMP JUMPDEST LT ISZERO PUSH2 0x2AF JUMPI PUSH1 0x40 MLOAD PUSH32 0x8C379A000000000000000000000000000000000000000000000000000000000 DUP2 MSTORE PUSH1 0x4 ADD PUSH2 0x2A6 SWAP1 PUSH2 0x7B5 JUMP JUMPDEST PUSH1 0x40 MLOAD DUP1 SWAP2 SUB SWAP1 REVERT JUMPDEST PUSH1 0x2 CALLER SWAP1 DUP1 PUSH1 0x1 DUP2 SLOAD ADD DUP1 DUP3 SSTORE DUP1 SWAP2 POP POP PUSH1 0x1 SWAP1 SUB SWAP1 PUSH0 MSTORE PUSH1 0x20 PUSH0 KECCAK256 ADD PUSH0 SWAP1 SWAP2 SWAP1 SWAP2 SWAP1 SWAP2 PUSH2 0x100 EXP DUP2 SLOAD DUP2 PUSH20 0xFFFFFFFFFFFFFFFFFFFFFFFFFFFFFFFFFFFFFFFF MUL NOT AND SWAP1 DUP4 PUSH20 0xFFFFFFFFFFFFFFFFFFFFFFFFFFFFFFFFFFFFFFFF AND MUL OR SWAP1 SSTORE POP CALLVALUE PUSH1 0x3 PUSH0 CALLER PUSH20 0xFFFFFFFFFFFFFFFFFFFFFFFFFFFFFFFFFFFFFFFF AND PUSH20 0xFFFFFFFFFFFFFFFFFFFFFFFFFFFFFFFFFFFFFFFF AND DUP2 MSTORE PUSH1 0x20 ADD SWAP1 DUP2 MSTORE PUSH1 0x20 ADD PUSH0 KECCAK256 SLOAD PUSH2 0x358 SWAP2 SWAP1 PUSH2 0x728 JUMP JUMPDEST PUSH1 0x3 PUSH0 CALLER PUSH20 0xFFFFFFFFFFFFFFFFFFFFFFFFFFFFFFFFFFFFFFFF AND PUSH20 0xFFFFFFFFFFFFFFFFFFFFFFFFFFFFFFFFFFFFFFFF AND DUP2 MSTORE PUSH1 0x20 ADD SWAP1 DUP2 MSTORE PUSH1 0x20 ADD PUSH0 KECCAK256 DUP2 SWAP1 SSTORE POP JUMP JUMPDEST PUSH1 0x3 PUSH1 0x20 MSTORE DUP1 PUSH0 MSTORE PUSH1 0x40 PUSH0 KECCAK256 PUSH0 SWAP2 POP SWAP1 POP SLOAD DUP2 JUMP JUMPDEST PUSH1 0x2 DUP2 DUP2 SLOAD DUP2 LT PUSH2 0x3BF JUMPI PUSH0 DUP1 REVERT JUMPDEST SWAP1 PUSH0 MSTORE PUSH1 0x20 PUSH0 KECCAK256 ADD PUSH0 SWAP2 POP SLOAD SWAP1 PUSH2 0x100 EXP SWAP1 DIV PUSH20 0xFFFFFFFFFFFFFFFFFFFFFFFFFFFFFFFFFFFFFFFF AND DUP2 JUMP JUMPDEST PUSH0 DUP1 PUSH2 0x3F5 PUSH2 0x423 JUMP JUMPDEST SWAP1 POP PUSH0 PUSH8 0xDE0B6B3A7640000 DUP3 DUP6 PUSH2 0x40D SWAP2 SWAP1 PUSH2 0x7D3 JUMP JUMPDEST PUSH2 0x417 SWAP2 SWAP1 PUSH2 0x841 JUMP JUMPDEST SWAP1 POP DUP1 SWAP3 POP POP POP SWAP2 SWAP1 POP JUMP JUMPDEST PUSH0 DUP1 PUSH20 0x694AA1769357215DE4FAC081BF1F309ADC325306 SWAP1 POP PUSH0 DUP2 PUSH20 0xFFFFFFFFFFFFFFFFFFFFFFFFFFFFFFFFFFFFFFFF AND PUSH4 0xFEAF968C PUSH1 0x40 MLOAD DUP2 PUSH4 0xFFFFFFFF AND PUSH1 0xE0 SHL DUP2 MSTORE PUSH1 0x4 ADD PUSH1 0xA0 PUSH1 0x40 MLOAD DUP1 DUP4 SUB DUP2 DUP7 GAS STATICCALL ISZERO DUP1 ISZERO PUSH2 0x486 JUMPI RETURNDATASIZE PUSH0 DUP1 RETURNDATACOPY RETURNDATASIZE PUSH0 REVERT JUMPDEST POP POP POP POP PUSH1 0x40 MLOAD RETURNDATASIZE PUSH1 0x1F NOT PUSH1 0x1F DUP3 ADD AND DUP3 ADD DUP1 PUSH1 0x40 MSTORE POP DUP2 ADD SWAP1 PUSH2 0x4AA SWAP2 SWAP1 PUSH2 0x8F7 JUMP JUMPDEST POP POP POP SWAP2 POP POP PUSH5 0x2540BE400 DUP2 PUSH2 0x4C1 SWAP2 SWAP1 PUSH2 0x96E JUMP JUMPDEST SWAP3 POP POP POP SWAP1 JUMP JUMPDEST DUP3 DUP1 SLOAD DUP3 DUP3 SSTORE SWAP1 PUSH0 MSTORE PUSH1 0x20 PUSH0 KECCAK256 SWAP1 DUP2 ADD SWAP3 DUP3 ISZERO PUSH2 0x53E JUMPI SWAP2 PUSH1 0x20 MUL DUP3 ADD JUMPDEST DUP3 DUP2 GT ISZERO PUSH2 0x53D JUMPI DUP3 MLOAD DUP3 PUSH0 PUSH2 0x100 EXP DUP2 SLOAD DUP2 PUSH20 0xFFFFFFFFFFFFFFFFFFFFFFFFFFFFFFFFFFFFFFFF MUL NOT AND SWAP1 DUP4 PUSH20 0xFFFFFFFFFFFFFFFFFFFFFFFFFFFFFFFFFFFFFFFF AND MUL OR SWAP1 SSTORE POP SWAP2 PUSH1 0x20 ADD SWAP2 SWAP1 PUSH1 0x1 ADD SWAP1 PUSH2 0x4E6 JUMP JUMPDEST JUMPDEST POP SWAP1 POP PUSH2 0x54B SWAP2 SWAP1 PUSH2 0x54F JUMP JUMPDEST POP SWAP1 JUMP JUMPDEST JUMPDEST DUP1 DUP3 GT ISZERO PUSH2 0x566 JUMPI PUSH0 DUP2 PUSH0 SWAP1 SSTORE POP PUSH1 0x1 ADD PUSH2 0x550 JUMP JUMPDEST POP SWAP1 JUMP JUMPDEST PUSH0 DUP2 SWAP1 POP SWAP2 SWAP1 POP JUMP JUMPDEST PUSH2 0x57C DUP2 PUSH2 0x56A JUMP JUMPDEST DUP3 MSTORE POP POP JUMP JUMPDEST PUSH0 PUSH1 0x20 DUP3 ADD SWAP1 POP PUSH2 0x595 PUSH0 DUP4 ADD DUP5 PUSH2 0x573 JUMP JUMPDEST SWAP3 SWAP2 POP POP JUMP JUMPDEST PUSH0 DUP1 REVERT JUMPDEST PUSH0 PUSH20 0xFFFFFFFFFFFFFFFFFFFFFFFFFFFFFFFFFFFFFFFF DUP3 AND SWAP1 POP SWAP2 SWAP1 POP JUMP JUMPDEST PUSH0 PUSH2 0x5C8 DUP3 PUSH2 0x59F JUMP JUMPDEST SWAP1 POP SWAP2 SWAP1 POP JUMP JUMPDEST PUSH2 0x5D8 DUP2 PUSH2 0x5BE JUMP JUMPDEST DUP2 EQ PUSH2 0x5E2 JUMPI PUSH0 DUP1 REVERT JUMPDEST POP JUMP JUMPDEST PUSH0 DUP2 CALLDATALOAD SWAP1 POP PUSH2 0x5F3 DUP2 PUSH2 0x5CF JUMP JUMPDEST SWAP3 SWAP2 POP POP JUMP JUMPDEST PUSH0 PUSH1 0x20 DUP3 DUP5 SUB SLT ISZERO PUSH2 0x60E JUMPI PUSH2 0x60D PUSH2 0x59B JUMP JUMPDEST JUMPDEST PUSH0 PUSH2 0x61B DUP5 DUP3 DUP6 ADD PUSH2 0x5E5 JUMP JUMPDEST SWAP2 POP POP SWAP3 SWAP2 POP POP JUMP JUMPDEST PUSH2 0x62D DUP2 PUSH2 0x56A JUMP JUMPDEST DUP2 EQ PUSH2 0x637 JUMPI PUSH0 DUP1 REVERT JUMPDEST POP JUMP JUMPDEST PUSH0 DUP2 CALLDATALOAD SWAP1 POP PUSH2 0x648 DUP2 PUSH2 0x624 JUMP JUMPDEST SWAP3 SWAP2 POP POP JUMP JUMPDEST PUSH0 PUSH1 0x20 DUP3 DUP5 SUB SLT ISZERO PUSH2 0x663 JUMPI PUSH2 0x662 PUSH2 0x59B JUMP JUMPDEST JUMPDEST PUSH0 PUSH2 0x670 DUP5 DUP3 DUP6 ADD PUSH2 0x63A JUMP JUMPDEST SWAP2 POP POP SWAP3 SWAP2 POP POP JUMP JUMPDEST PUSH2 0x682 DUP2 PUSH2 0x5BE JUMP JUMPDEST DUP3 MSTORE POP POP JUMP JUMPDEST PUSH0 PUSH1 0x20 DUP3 ADD SWAP1 POP PUSH2 0x69B PUSH0 DUP4 ADD DUP5 PUSH2 0x679 JUMP JUMPDEST SWAP3 SWAP2 POP POP JUMP JUMPDEST PUSH32 0x4E487B7100000000000000000000000000000000000000000000000000000000 PUSH0 MSTORE PUSH1 0x32 PUSH1 0x4 MSTORE PUSH1 0x24 PUSH0 REVERT JUMPDEST PUSH32 0x4E487B7100000000000000000000000000000000000000000000000000000000 PUSH0 MSTORE PUSH1 0x41 PUSH1 0x4 MSTORE PUSH1 0x24 PUSH0 REVERT JUMPDEST PUSH32 0x4E487B7100000000000000000000000000000000000000000000000000000000 PUSH0 MSTORE PUSH1 0x11 PUSH1 0x4 MSTORE PUSH1 0x24 PUSH0 REVERT JUMPDEST PUSH0 PUSH2 0x732 DUP3 PUSH2 0x56A JUMP JUMPDEST SWAP2 POP PUSH2 0x73D DUP4 PUSH2 0x56A JUMP JUMPDEST SWAP3 POP DUP3 DUP3 ADD SWAP1 POP DUP1 DUP3 GT ISZERO PUSH2 0x755 JUMPI PUSH2 0x754 PUSH2 0x6FB JUMP JUMPDEST JUMPDEST SWAP3 SWAP2 POP POP JUMP JUMPDEST PUSH0 DUP3 DUP3 MSTORE PUSH1 0x20 DUP3 ADD SWAP1 POP SWAP3 SWAP2 POP POP JUMP JUMPDEST PUSH32 0x6E6F7420656E6F7567682045544820616D6F756E742100000000000000000000 PUSH0 DUP3 ADD MSTORE POP JUMP JUMPDEST PUSH0 PUSH2 0x79F PUSH1 0x16 DUP4 PUSH2 0x75B JUMP JUMPDEST SWAP2 POP PUSH2 0x7AA DUP3 PUSH2 0x76B JUMP JUMPDEST PUSH1 0x20 DUP3 ADD SWAP1 POP SWAP2 SWAP1 POP JUMP JUMPDEST PUSH0 PUSH1 0x20 DUP3 ADD SWAP1 POP DUP2 DUP2 SUB PUSH0 DUP4 ADD MSTORE PUSH2 0x7CC DUP2 PUSH2 0x793 JUMP JUMPDEST SWAP1 POP SWAP2 SWAP1 POP JUMP JUMPDEST PUSH0 PUSH2 0x7DD DUP3 PUSH2 0x56A JUMP JUMPDEST SWAP2 POP PUSH2 0x7E8 DUP4 PUSH2 0x56A JUMP JUMPDEST SWAP3 POP DUP3 DUP3 MUL PUSH2 0x7F6 DUP2 PUSH2 0x56A JUMP JUMPDEST SWAP2 POP DUP3 DUP3 DIV DUP5 EQ DUP4 ISZERO OR PUSH2 0x80D JUMPI PUSH2 0x80C PUSH2 0x6FB JUMP JUMPDEST JUMPDEST POP SWAP3 SWAP2 POP POP JUMP JUMPDEST PUSH32 0x4E487B7100000000000000000000000000000000000000000000000000000000 PUSH0 MSTORE PUSH1 0x12 PUSH1 0x4 MSTORE PUSH1 0x24 PUSH0 REVERT JUMPDEST PUSH0 PUSH2 0x84B DUP3 PUSH2 0x56A JUMP JUMPDEST SWAP2 POP PUSH2 0x856 DUP4 PUSH2 0x56A JUMP JUMPDEST SWAP3 POP DUP3 PUSH2 0x866 JUMPI PUSH2 0x865 PUSH2 0x814 JUMP JUMPDEST JUMPDEST DUP3 DUP3 DIV SWAP1 POP SWAP3 SWAP2 POP POP JUMP JUMPDEST PUSH0 PUSH10 0xFFFFFFFFFFFFFFFFFFFF DUP3 AND SWAP1 POP SWAP2 SWAP1 POP JUMP JUMPDEST PUSH2 0x88F DUP2 PUSH2 0x871 JUMP JUMPDEST DUP2 EQ PUSH2 0x899 JUMPI PUSH0 DUP1 REVERT JUMPDEST POP JUMP JUMPDEST PUSH0 DUP2 MLOAD SWAP1 POP PUSH2 0x8AA DUP2 PUSH2 0x886 JUMP JUMPDEST SWAP3 SWAP2 POP POP JUMP JUMPDEST PUSH0 DUP2 SWAP1 POP SWAP2 SWAP1 POP JUMP JUMPDEST PUSH2 0x8C2 DUP2 PUSH2 0x8B0 JUMP JUMPDEST DUP2 EQ PUSH2 0x8CC JUMPI PUSH0 DUP1 REVERT JUMPDEST POP JUMP JUMPDEST PUSH0 DUP2 MLOAD SWAP1 POP PUSH2 0x8DD DUP2 PUSH2 0x8B9 JUMP JUMPDEST SWAP3 SWAP2 POP POP JUMP JUMPDEST PUSH0 DUP2 MLOAD SWAP1 POP PUSH2 0x8F1 DUP2 PUSH2 0x624 JUMP JUMPDEST SWAP3 SWAP2 POP POP JUMP JUMPDEST PUSH0 DUP1 PUSH0 DUP1 PUSH0 PUSH1 0xA0 DUP7 DUP9 SUB SLT ISZERO PUSH2 0x910 JUMPI PUSH2 0x90F PUSH2 0x59B JUMP JUMPDEST JUMPDEST PUSH0 PUSH2 0x91D DUP9 DUP3 DUP10 ADD PUSH2 0x89C JUMP JUMPDEST SWAP6 POP POP PUSH1 0x20 PUSH2 0x92E DUP9 DUP3 DUP10 ADD PUSH2 0x8CF JUMP JUMPDEST SWAP5 POP POP PUSH1 0x40 PUSH2 0x93F DUP9 DUP3 DUP10 ADD PUSH2 0x8E3 JUMP JUMPDEST SWAP4 POP POP PUSH1 0x60 PUSH2 0x950 DUP9 DUP3 DUP10 ADD PUSH2 0x8E3 JUMP JUMPDEST SWAP3 POP POP PUSH1 0x80 PUSH2 0x961 DUP9 DUP3 DUP10 ADD PUSH2 0x89C JUMP JUMPDEST SWAP2 POP POP SWAP3 SWAP6 POP SWAP3 SWAP6 SWAP1 SWAP4 POP JUMP JUMPDEST PUSH0 PUSH2 0x978 DUP3 PUSH2 0x8B0 JUMP JUMPDEST SWAP2 POP PUSH2 0x983 DUP4 PUSH2 0x8B0 JUMP JUMPDEST SWAP3 POP DUP3 DUP3 MUL PUSH2 0x991 DUP2 PUSH2 0x8B0 JUMP JUMPDEST SWAP2 POP PUSH32 0x8000000000000000000000000000000000000000000000000000000000000000 DUP5 EQ PUSH0 DUP5 SLT AND ISZERO PUSH2 0x9C8 JUMPI PUSH2 0x9C7 PUSH2 0x6FB JUMP JUMPDEST JUMPDEST DUP3 DUP3 SDIV DUP5 EQ DUP4 ISZERO OR PUSH2 0x9DD JUMPI PUSH2 0x9DC PUSH2 0x6FB JUMP JUMPDEST JUMPDEST POP SWAP3 SWAP2 POP POP JUMP INVALID LOG2 PUSH5 0x6970667358 0x22 SLT KECCAK256 0xCA PUSH32 0xF32570DC42D8019DC8802EBA836FA021DA3C83BA0CA9A8E407103C19897A6473 PUSH16 0x6C634300081A00330000000000000000 "
				},
				"gasEstimates": {
					"creation": {
						"codeDepositCost": "517200",
						"executionCost": "44758",
						"totalCost": "561958"
					},
					"external": {
						"Fund()": "infinite",
						"Withdraw()": "infinite",
						"funders(uint256)": "5032",
						"fundsRaisedByAddress(address)": "2868",
						"minimumUsd()": "2403",
						"myValue()": "2424"
					}
				},
				"methodIdentifiers": {
					"Fund()": "6ce1417e",
					"Withdraw()": "57ea89b6",
					"funders(uint256)": "dc0d3dff",
					"fundsRaisedByAddress(address)": "b804f81f",
					"minimumUsd()": "098de820",
					"myValue()": "47f1aae7"
				}
			},
			"storageLayout": {
				"storage": [
					{
						"astId": 55,
						"contract": "FundMe.sol:FundMe",
						"label": "myValue",
						"offset": 0,
						"slot": "0",
						"type": "t_uint256"
					},
					{
						"astId": 58,
						"contract": "FundMe.sol:FundMe",
						"label": "minimumUsd",
						"offset": 0,
						"slot": "1",
						"type": "t_uint256"
					},
					{
						"astId": 61,
						"contract": "FundMe.sol:FundMe",
						"label": "funders",
						"offset": 0,
						"slot": "2",
						"type": "t_array(t_address)dyn_storage"
					},
					{
						"astId": 65,
						"contract": "FundMe.sol:FundMe",
						"label": "fundsRaisedByAddress",
						"offset": 0,
						"slot": "3",
						"type": "t_mapping(t_address,t_uint256)"
					}
				],
				"types": {
					"t_address": {
						"encoding": "inplace",
						"label": "address",
						"numberOfBytes": "20"
					},
					"t_array(t_address)dyn_storage": {
						"base": "t_address",
						"encoding": "dynamic_array",
						"label": "address[]",
						"numberOfBytes": "32"
					},
					"t_mapping(t_address,t_uint256)": {
						"encoding": "mapping",
						"key": "t_address",
						"label": "mapping(address => uint256)",
						"numberOfBytes": "32",
						"value": "t_uint256"
					},
					"t_uint256": {
						"encoding": "inplace",
						"label": "uint256",
						"numberOfBytes": "32"
					}
				}
			},
			"userdoc": {
				"kind": "user",
				"methods": {},
				"version": 1
			}
		}
	}
}