{
	"FundMe.sol": {
		"FundMe": {
			"abi": [
				{
					"inputs": [],
					"stateMutability": "nonpayable",
					"type": "constructor"
				},
				{
					"inputs": [],
					"name": "NotOwner",
					"type": "error"
				},
				{
					"stateMutability": "payable",
					"type": "fallback"
				},
				{
					"inputs": [],
					"name": "Fund",
					"outputs": [],
					"stateMutability": "payable",
					"type": "function"
				},
				{
					"inputs": [],
					"name": "MINIMUM_USD",
					"outputs": [
						{
							"internalType": "uint256",
							"name": "",
							"type": "uint256"
						}
					],
					"stateMutability": "view",
					"type": "function"
				},
				{
					"inputs": [],
					"name": "Withdraw",
					"outputs": [],
					"stateMutability": "nonpayable",
					"type": "function"
				},
				{
					"inputs": [
						{
							"internalType": "uint256",
							"name": "",
							"type": "uint256"
						}
					],
					"name": "funders",
					"outputs": [
						{
							"internalType": "address",
							"name": "",
							"type": "address"
						}
					],
					"stateMutability": "view",
					"type": "function"
				},
				{
					"inputs": [
						{
							"internalType": "address",
							"name": "funder",
							"type": "address"
						}
					],
					"name": "fundsRaisedByAddress",
					"outputs": [
						{
							"internalType": "uint256",
							"name": "amountRaised",
							"type": "uint256"
						}
					],
					"stateMutability": "view",
					"type": "function"
				},
				{
					"inputs": [],
					"name": "i_owner",
					"outputs": [
						{
							"internalType": "address",
							"name": "",
							"type": "address"
						}
					],
					"stateMutability": "view",
					"type": "function"
				},
				{
					"stateMutability": "payable",
					"type": "receive"
				}
			],
			"devdoc": {
				"kind": "dev",
				"methods": {},
				"version": 1
			},
			"evm": {
				"assembly": "    /* \"FundMe.sol\":240:5269  contract FundMe {... */\n  mstore(0x40, 0xa0)\n    /* \"FundMe.sol\":1328:1382  constructor() {... */\n  callvalue\n  dup1\n  iszero\n  tag_1\n  jumpi\n  0x00\n  dup1\n  revert\ntag_1:\n  pop\n    /* \"FundMe.sol\":1363:1373  msg.sender */\n  caller\n    /* \"FundMe.sol\":1353:1373  i_owner = msg.sender */\n  0xffffffffffffffffffffffffffffffffffffffff\n  and\n  0x80\n  dup2\n  0xffffffffffffffffffffffffffffffffffffffff\n  and\n  dup2\n  mstore\n  pop\n  pop\n    /* \"FundMe.sol\":240:5269  contract FundMe {... */\n  mload(0x80)\n  codecopy(0x00, dataOffset(sub_0), dataSize(sub_0))\n  0x00\n  assignImmutable(\"0x35bb2e240092263378f77ea1e9c278099a33b604c4c4e26d13ea227e8bb74470\")\n  return(0x00, dataSize(sub_0))\nstop\n\nsub_0: assembly {\n        /* \"FundMe.sol\":240:5269  contract FundMe {... */\n      mstore(0x40, 0x80)\n      jumpi(tag_1, lt(calldatasize, 0x04))\n      shr(0xe0, calldataload(0x00))\n      dup1\n      0x57ea89b6\n      eq\n      tag_3\n      jumpi\n      dup1\n      0x6b69a592\n      eq\n      tag_4\n      jumpi\n      dup1\n      0x6ce1417e\n      eq\n      tag_5\n      jumpi\n      dup1\n      0xb804f81f\n      eq\n      tag_6\n      jumpi\n      dup1\n      0xdba6335f\n      eq\n      tag_7\n      jumpi\n      dup1\n      0xdc0d3dff\n      eq\n      tag_8\n      jumpi\n      jump(tag_2)\n    tag_1:\n      jumpi(tag_2, calldatasize)\n        /* \"FundMe.sol\":5013:5019  Fund() */\n      tag_11\n        /* \"FundMe.sol\":5013:5017  Fund */\n      tag_12\n        /* \"FundMe.sol\":5013:5019  Fund() */\n      jump\t// in\n    tag_11:\n        /* \"FundMe.sol\":240:5269  contract FundMe {... */\n      stop\n    tag_2:\n        /* \"FundMe.sol\":5160:5166  Fund() */\n      tag_15\n        /* \"FundMe.sol\":5160:5164  Fund */\n      tag_12\n        /* \"FundMe.sol\":5160:5166  Fund() */\n      jump\t// in\n    tag_15:\n        /* \"FundMe.sol\":240:5269  contract FundMe {... */\n      stop\n        /* \"FundMe.sol\":2751:4537  function Withdraw() public onlyOwner {... */\n    tag_3:\n      callvalue\n      dup1\n      iszero\n      tag_16\n      jumpi\n      0x00\n      dup1\n      revert\n    tag_16:\n      pop\n      tag_17\n      tag_18\n      jump\t// in\n    tag_17:\n      stop\n        /* \"FundMe.sol\":780:822  uint256 public constant MINIMUM_USD = 5e18 */\n    tag_4:\n      callvalue\n      dup1\n      iszero\n      tag_19\n      jumpi\n      0x00\n      dup1\n      revert\n    tag_19:\n      pop\n      tag_20\n      tag_21\n      jump\t// in\n    tag_20:\n      mload(0x40)\n      tag_22\n      swap2\n      swap1\n      tag_23\n      jump\t// in\n    tag_22:\n      mload(0x40)\n      dup1\n      swap2\n      sub\n      swap1\n      return\n        /* \"FundMe.sol\":1420:2743  function Fund() public payable {... */\n    tag_5:\n      tag_24\n      tag_12\n      jump\t// in\n    tag_24:\n      stop\n        /* \"FundMe.sol\":972:1048  mapping (address funder => uint256 amountRaised) public fundsRaisedByAddress */\n    tag_6:\n      callvalue\n      dup1\n      iszero\n      tag_25\n      jumpi\n      0x00\n      dup1\n      revert\n    tag_25:\n      pop\n      tag_26\n      0x04\n      dup1\n      calldatasize\n      sub\n      dup2\n      add\n      swap1\n      tag_27\n      swap2\n      swap1\n      tag_28\n      jump\t// in\n    tag_27:\n      tag_29\n      jump\t// in\n    tag_26:\n      mload(0x40)\n      tag_30\n      swap2\n      swap1\n      tag_23\n      jump\t// in\n    tag_30:\n      mload(0x40)\n      dup1\n      swap2\n      sub\n      swap1\n      return\n        /* \"FundMe.sol\":1179:1211  address public immutable i_owner */\n    tag_7:\n      callvalue\n      dup1\n      iszero\n      tag_31\n      jumpi\n      0x00\n      dup1\n      revert\n    tag_31:\n      pop\n      tag_32\n      tag_33\n      jump\t// in\n    tag_32:\n      mload(0x40)\n      tag_34\n      swap2\n      swap1\n      tag_35\n      jump\t// in\n    tag_34:\n      mload(0x40)\n      dup1\n      swap2\n      sub\n      swap1\n      return\n        /* \"FundMe.sol\":901:925  address[] public funders */\n    tag_8:\n      callvalue\n      dup1\n      iszero\n      tag_36\n      jumpi\n      0x00\n      dup1\n      revert\n    tag_36:\n      pop\n      tag_37\n      0x04\n      dup1\n      calldatasize\n      sub\n      dup2\n      add\n      swap1\n      tag_38\n      swap2\n      swap1\n      tag_39\n      jump\t// in\n    tag_38:\n      tag_40\n      jump\t// in\n    tag_37:\n      mload(0x40)\n      tag_41\n      swap2\n      swap1\n      tag_35\n      jump\t// in\n    tag_41:\n      mload(0x40)\n      dup1\n      swap2\n      sub\n      swap1\n      return\n        /* \"FundMe.sol\":1420:2743  function Fund() public payable {... */\n    tag_12:\n        /* \"FundMe.sol\":818:822  5e18 */\n      0x4563918244f40000\n        /* \"FundMe.sol\":1943:1972  msg.value.getConversionRate() */\n      tag_43\n        /* \"FundMe.sol\":1943:1952  msg.value */\n      callvalue\n        /* \"FundMe.sol\":1943:1970  msg.value.getConversionRate */\n      tag_44\n        /* \"FundMe.sol\":1943:1972  msg.value.getConversionRate() */\n      jump\t// in\n    tag_43:\n        /* \"FundMe.sol\":1943:1987  msg.value.getConversionRate() >= MINIMUM_USD */\n      lt\n      iszero\n        /* \"FundMe.sol\":1935:2014  require(msg.value.getConversionRate() >= MINIMUM_USD, \"not enough ETH amount!\") */\n      tag_45\n      jumpi\n      mload(0x40)\n      0x08c379a000000000000000000000000000000000000000000000000000000000\n      dup2\n      mstore\n      0x04\n      add\n      tag_46\n      swap1\n      tag_47\n      jump\t// in\n    tag_46:\n      mload(0x40)\n      dup1\n      swap2\n      sub\n      swap1\n      revert\n    tag_45:\n        /* \"FundMe.sol\":2320:2327  funders */\n      0x00\n        /* \"FundMe.sol\":2333:2343  msg.sender */\n      caller\n        /* \"FundMe.sol\":2320:2344  funders.push(msg.sender) */\n      swap1\n      dup1\n      0x01\n      dup2\n      sload\n      add\n      dup1\n      dup3\n      sstore\n      dup1\n      swap2\n      pop\n      pop\n      0x01\n      swap1\n      sub\n      swap1\n      0x00\n      mstore\n      keccak256(0x00, 0x20)\n      add\n      0x00\n      swap1\n      swap2\n      swap1\n      swap2\n      swap1\n      swap2\n      0x0100\n      exp\n      dup2\n      sload\n      dup2\n      0xffffffffffffffffffffffffffffffffffffffff\n      mul\n      not\n      and\n      swap1\n      dup4\n      0xffffffffffffffffffffffffffffffffffffffff\n      and\n      mul\n      or\n      swap1\n      sstore\n      pop\n        /* \"FundMe.sol\":2473:2482  msg.value */\n      callvalue\n        /* \"FundMe.sol\":2438:2458  fundsRaisedByAddress */\n      0x01\n        /* \"FundMe.sol\":2438:2470  fundsRaisedByAddress[msg.sender] */\n      0x00\n        /* \"FundMe.sol\":2459:2469  msg.sender */\n      caller\n        /* \"FundMe.sol\":2438:2470  fundsRaisedByAddress[msg.sender] */\n      0xffffffffffffffffffffffffffffffffffffffff\n      and\n      0xffffffffffffffffffffffffffffffffffffffff\n      and\n      dup2\n      mstore\n      0x20\n      add\n      swap1\n      dup2\n      mstore\n      0x20\n      add\n      0x00\n      keccak256\n      sload\n        /* \"FundMe.sol\":2438:2482  fundsRaisedByAddress[msg.sender] + msg.value */\n      tag_49\n      swap2\n      swap1\n      tag_50\n      jump\t// in\n    tag_49:\n        /* \"FundMe.sol\":2403:2423  fundsRaisedByAddress */\n      0x01\n        /* \"FundMe.sol\":2403:2435  fundsRaisedByAddress[msg.sender] */\n      0x00\n        /* \"FundMe.sol\":2424:2434  msg.sender */\n      caller\n        /* \"FundMe.sol\":2403:2435  fundsRaisedByAddress[msg.sender] */\n      0xffffffffffffffffffffffffffffffffffffffff\n      and\n      0xffffffffffffffffffffffffffffffffffffffff\n      and\n      dup2\n      mstore\n      0x20\n      add\n      swap1\n      dup2\n      mstore\n      0x20\n      add\n      0x00\n      keccak256\n        /* \"FundMe.sol\":2403:2482  fundsRaisedByAddress[msg.sender] = fundsRaisedByAddress[msg.sender] + msg.value */\n      dup2\n      swap1\n      sstore\n      pop\n        /* \"FundMe.sol\":1420:2743  function Fund() public payable {... */\n      jump\t// out\n        /* \"FundMe.sol\":2751:4537  function Withdraw() public onlyOwner {... */\n    tag_18:\n        /* \"FundMe.sol\":4679:4686  i_owner */\n      immutable(\"0x35bb2e240092263378f77ea1e9c278099a33b604c4c4e26d13ea227e8bb74470\")\n        /* \"FundMe.sol\":4665:4686  msg.sender != i_owner */\n      0xffffffffffffffffffffffffffffffffffffffff\n      and\n        /* \"FundMe.sol\":4665:4675  msg.sender */\n      caller\n        /* \"FundMe.sol\":4665:4686  msg.sender != i_owner */\n      0xffffffffffffffffffffffffffffffffffffffff\n      and\n      eq\n        /* \"FundMe.sol\":4662:4811  if(msg.sender != i_owner){... */\n      tag_52\n      jumpi\n        /* \"FundMe.sol\":4709:4719  NotOwner() */\n      mload(0x40)\n      0x30cd747100000000000000000000000000000000000000000000000000000000\n      dup2\n      mstore\n      0x04\n      add\n      mload(0x40)\n      dup1\n      swap2\n      sub\n      swap1\n      revert\n        /* \"FundMe.sol\":4662:4811  if(msg.sender != i_owner){... */\n    tag_52:\n        /* \"FundMe.sol\":2804:2823  uint256 funderIndex */\n      0x00\n        /* \"FundMe.sol\":2799:3103  for (uint256 funderIndex; funderIndex < funders.length; funderIndex++) ... */\n    tag_54:\n        /* \"FundMe.sol\":2839:2846  funders */\n      0x00\n        /* \"FundMe.sol\":2839:2853  funders.length */\n      dup1\n      sload\n      swap1\n      pop\n        /* \"FundMe.sol\":2825:2836  funderIndex */\n      dup2\n        /* \"FundMe.sol\":2825:2853  funderIndex < funders.length */\n      lt\n        /* \"FundMe.sol\":2799:3103  for (uint256 funderIndex; funderIndex < funders.length; funderIndex++) ... */\n      iszero\n      tag_55\n      jumpi\n        /* \"FundMe.sol\":2895:2909  address funder */\n      0x00\n        /* \"FundMe.sol\":2912:2919  funders */\n      dup1\n        /* \"FundMe.sol\":2920:2931  funderIndex */\n      dup3\n        /* \"FundMe.sol\":2912:2932  funders[funderIndex] */\n      dup2\n      sload\n      dup2\n      lt\n      tag_57\n      jumpi\n      tag_58\n      tag_59\n      jump\t// in\n    tag_58:\n    tag_57:\n      swap1\n      0x00\n      mstore\n      keccak256(0x00, 0x20)\n      add\n      0x00\n      swap1\n      sload\n      swap1\n      0x0100\n      exp\n      swap1\n      div\n      0xffffffffffffffffffffffffffffffffffffffff\n      and\n        /* \"FundMe.sol\":2895:2932  address funder = funders[funderIndex] */\n      swap1\n      pop\n        /* \"FundMe.sol\":3016:3017  0 */\n      0x00\n        /* \"FundMe.sol\":2985:3005  fundsRaisedByAddress */\n      0x01\n        /* \"FundMe.sol\":2985:3013  fundsRaisedByAddress[funder] */\n      0x00\n        /* \"FundMe.sol\":3006:3012  funder */\n      dup4\n        /* \"FundMe.sol\":2985:3013  fundsRaisedByAddress[funder] */\n      0xffffffffffffffffffffffffffffffffffffffff\n      and\n      0xffffffffffffffffffffffffffffffffffffffff\n      and\n      dup2\n      mstore\n      0x20\n      add\n      swap1\n      dup2\n      mstore\n      0x20\n      add\n      0x00\n      keccak256\n        /* \"FundMe.sol\":2985:3017  fundsRaisedByAddress[funder] = 0 */\n      dup2\n      swap1\n      sstore\n      pop\n        /* \"FundMe.sol\":2880:3103  {... */\n      pop\n        /* \"FundMe.sol\":2855:2868  funderIndex++ */\n      dup1\n      dup1\n      0x01\n      add\n      swap2\n      pop\n      pop\n        /* \"FundMe.sol\":2799:3103  for (uint256 funderIndex; funderIndex < funders.length; funderIndex++) ... */\n      jump(tag_54)\n    tag_55:\n      pop\n        /* \"FundMe.sol\":3137:3138  0 */\n      0x00\n        /* \"FundMe.sol\":3123:3139  new address[](0) */\n      0xffffffffffffffff\n      dup2\n      gt\n      iszero\n      tag_61\n      jumpi\n      tag_62\n      tag_63\n      jump\t// in\n    tag_62:\n    tag_61:\n      mload(0x40)\n      swap1\n      dup1\n      dup3\n      mstore\n      dup1\n      0x20\n      mul\n      0x20\n      add\n      dup3\n      add\n      0x40\n      mstore\n      dup1\n      iszero\n      tag_64\n      jumpi\n      dup2\n      0x20\n      add\n      0x20\n      dup3\n      mul\n      dup1\n      calldatasize\n      dup4\n      calldatacopy\n      dup1\n      dup3\n      add\n      swap2\n      pop\n      pop\n      swap1\n      pop\n    tag_64:\n      pop\n        /* \"FundMe.sol\":3113:3120  funders */\n      0x00\n        /* \"FundMe.sol\":3113:3139  funders = new address[](0) */\n      swap1\n      dup1\n      mload\n      swap1\n      0x20\n      add\n      swap1\n      tag_65\n      swap3\n      swap2\n      swap1\n      tag_66\n      jump\t// in\n    tag_65:\n      pop\n        /* \"FundMe.sol\":4317:4333  bool callSuccess */\n      0x00\n        /* \"FundMe.sol\":4345:4355  msg.sender */\n      caller\n        /* \"FundMe.sol\":4337:4361  payable(msg.sender).call */\n      0xffffffffffffffffffffffffffffffffffffffff\n      and\n        /* \"FundMe.sol\":4369:4390  address(this).balance */\n      selfbalance\n        /* \"FundMe.sol\":4337:4395  payable(msg.sender).call{value: address(this).balance}(\"\") */\n      mload(0x40)\n      tag_67\n      swap1\n      tag_68\n      jump\t// in\n    tag_67:\n      0x00\n      mload(0x40)\n      dup1\n      dup4\n      sub\n      dup2\n      dup6\n      dup8\n      gas\n      call\n      swap3\n      pop\n      pop\n      pop\n      returndatasize\n      dup1\n      0x00\n      dup2\n      eq\n      tag_71\n      jumpi\n      mload(0x40)\n      swap2\n      pop\n      and(add(returndatasize, 0x3f), not(0x1f))\n      dup3\n      add\n      0x40\n      mstore\n      returndatasize\n      dup3\n      mstore\n      returndatasize\n      0x00\n      0x20\n      dup5\n      add\n      returndatacopy\n      jump(tag_70)\n    tag_71:\n      0x60\n      swap2\n      pop\n    tag_70:\n      pop\n        /* \"FundMe.sol\":4316:4395  (bool callSuccess,)= payable(msg.sender).call{value: address(this).balance}(\"\") */\n      pop\n      swap1\n      pop\n        /* \"FundMe.sol\":4503:4514  callSuccess */\n      dup1\n        /* \"FundMe.sol\":4495:4529  require(callSuccess,\"Call failed\") */\n      tag_72\n      jumpi\n      mload(0x40)\n      0x08c379a000000000000000000000000000000000000000000000000000000000\n      dup2\n      mstore\n      0x04\n      add\n      tag_73\n      swap1\n      tag_74\n      jump\t// in\n    tag_73:\n      mload(0x40)\n      dup1\n      swap2\n      sub\n      swap1\n      revert\n    tag_72:\n        /* \"FundMe.sol\":2788:4537  {... */\n      pop\n        /* \"FundMe.sol\":2751:4537  function Withdraw() public onlyOwner {... */\n      jump\t// out\n        /* \"FundMe.sol\":780:822  uint256 public constant MINIMUM_USD = 5e18 */\n    tag_21:\n        /* \"FundMe.sol\":818:822  5e18 */\n      0x4563918244f40000\n        /* \"FundMe.sol\":780:822  uint256 public constant MINIMUM_USD = 5e18 */\n      dup2\n      jump\t// out\n        /* \"FundMe.sol\":972:1048  mapping (address funder => uint256 amountRaised) public fundsRaisedByAddress */\n    tag_29:\n      mstore(0x20, 0x01)\n      dup1\n      0x00\n      mstore\n      keccak256(0x00, 0x40)\n      0x00\n      swap2\n      pop\n      swap1\n      pop\n      sload\n      dup2\n      jump\t// out\n        /* \"FundMe.sol\":1179:1211  address public immutable i_owner */\n    tag_33:\n      immutable(\"0x35bb2e240092263378f77ea1e9c278099a33b604c4c4e26d13ea227e8bb74470\")\n      dup2\n      jump\t// out\n        /* \"FundMe.sol\":901:925  address[] public funders */\n    tag_40:\n      0x00\n      dup2\n      dup2\n      sload\n      dup2\n      lt\n      tag_75\n      jumpi\n      0x00\n      dup1\n      revert\n    tag_75:\n      swap1\n      0x00\n      mstore\n      keccak256(0x00, 0x20)\n      add\n      0x00\n      swap2\n      pop\n      sload\n      swap1\n      0x0100\n      exp\n      swap1\n      div\n      0xffffffffffffffffffffffffffffffffffffffff\n      and\n      dup2\n      jump\t// out\n        /* \"PriceConvertor.sol\":1201:1746  function getConversionRate(uint ethAmount) internal  view returns (uint256) {... */\n    tag_44:\n        /* \"PriceConvertor.sol\":1268:1275  uint256 */\n      0x00\n        /* \"PriceConvertor.sol\":1288:1304  uint256 ethPrice */\n      dup1\n        /* \"PriceConvertor.sol\":1307:1317  getPrice() */\n      tag_78\n        /* \"PriceConvertor.sol\":1307:1315  getPrice */\n      tag_79\n        /* \"PriceConvertor.sol\":1307:1317  getPrice() */\n      jump\t// in\n    tag_78:\n        /* \"PriceConvertor.sol\":1288:1317  uint256 ethPrice = getPrice() */\n      swap1\n      pop\n        /* \"PriceConvertor.sol\":1588:1610  uint256 ethAmountInUsd */\n      0x00\n        /* \"PriceConvertor.sol\":1636:1640  1e18 */\n      0x0de0b6b3a7640000\n        /* \"PriceConvertor.sol\":1626:1634  ethPrice */\n      dup3\n        /* \"PriceConvertor.sol\":1614:1623  ethAmount */\n      dup6\n        /* \"PriceConvertor.sol\":1614:1634  ethAmount * ethPrice */\n      tag_80\n      swap2\n      swap1\n      tag_81\n      jump\t// in\n    tag_80:\n        /* \"PriceConvertor.sol\":1613:1640  (ethAmount * ethPrice)/1e18 */\n      tag_82\n      swap2\n      swap1\n      tag_83\n      jump\t// in\n    tag_82:\n        /* \"PriceConvertor.sol\":1588:1640  uint256 ethAmountInUsd = (ethAmount * ethPrice)/1e18 */\n      swap1\n      pop\n        /* \"PriceConvertor.sol\":1724:1738  ethAmountInUsd */\n      dup1\n        /* \"PriceConvertor.sol\":1717:1738  return ethAmountInUsd */\n      swap3\n      pop\n      pop\n      pop\n        /* \"PriceConvertor.sol\":1201:1746  function getConversionRate(uint ethAmount) internal  view returns (uint256) {... */\n      swap2\n      swap1\n      pop\n      jump\t// out\n        /* \"PriceConvertor.sol\":214:1193  function getPrice() internal  view returns (uint256){... */\n    tag_79:\n        /* \"PriceConvertor.sol\":258:265  uint256 */\n      0x00\n        /* \"PriceConvertor.sol\":437:468  AggregatorV3Interface priceFeed */\n      dup1\n        /* \"PriceConvertor.sol\":493:535  0x694AA1769357215DE4FAC081bf1f309aDC325306 */\n      0x694aa1769357215de4fac081bf1f309adc325306\n        /* \"PriceConvertor.sol\":437:536  AggregatorV3Interface priceFeed = AggregatorV3Interface(0x694AA1769357215DE4FAC081bf1f309aDC325306) */\n      swap1\n      pop\n        /* \"PriceConvertor.sol\":744:756  int256 price */\n      0x00\n        /* \"PriceConvertor.sol\":882:891  priceFeed */\n      dup2\n        /* \"PriceConvertor.sol\":882:907  priceFeed.latestRoundData */\n      0xffffffffffffffffffffffffffffffffffffffff\n      and\n      0xfeaf968c\n        /* \"PriceConvertor.sol\":882:909  priceFeed.latestRoundData() */\n      mload(0x40)\n      dup2\n      0xffffffff\n      and\n      0xe0\n      shl\n      dup2\n      mstore\n      0x04\n      add\n      0xa0\n      mload(0x40)\n      dup1\n      dup4\n      sub\n      dup2\n      dup7\n      gas\n      staticcall\n      iszero\n      dup1\n      iszero\n      tag_86\n      jumpi\n      returndatasize\n      0x00\n      dup1\n      returndatacopy\n      revert(0x00, returndatasize)\n    tag_86:\n      pop\n      pop\n      pop\n      pop\n      mload(0x40)\n      returndatasize\n      not(0x1f)\n      0x1f\n      dup3\n      add\n      and\n      dup3\n      add\n      dup1\n      0x40\n      mstore\n      pop\n      dup2\n      add\n      swap1\n      tag_87\n      swap2\n      swap1\n      tag_88\n      jump\t// in\n    tag_87:\n        /* \"PriceConvertor.sol\":694:909  (... */\n      pop\n      pop\n      pop\n      swap2\n      pop\n      pop\n        /* \"PriceConvertor.sol\":1156:1160  1e10 */\n      0x02540be400\n        /* \"PriceConvertor.sol\":1148:1153  price */\n      dup2\n        /* \"PriceConvertor.sol\":1148:1160  price * 1e10 */\n      tag_89\n      swap2\n      swap1\n      tag_90\n      jump\t// in\n    tag_89:\n        /* \"PriceConvertor.sol\":1133:1161  return uint256(price * 1e10) */\n      swap3\n      pop\n      pop\n      pop\n        /* \"PriceConvertor.sol\":214:1193  function getPrice() internal  view returns (uint256){... */\n      swap1\n      jump\t// out\n    tag_66:\n      dup3\n      dup1\n      sload\n      dup3\n      dup3\n      sstore\n      swap1\n      0x00\n      mstore\n      keccak256(0x00, 0x20)\n      swap1\n      dup2\n      add\n      swap3\n      dup3\n      iszero\n      tag_91\n      jumpi\n      swap2\n      0x20\n      mul\n      dup3\n      add\n    tag_92:\n      dup3\n      dup2\n      gt\n      iszero\n      tag_93\n      jumpi\n      dup3\n      mload\n      dup3\n      exp(0x0100, 0x00)\n      dup2\n      sload\n      dup2\n      0xffffffffffffffffffffffffffffffffffffffff\n      mul\n      not\n      and\n      swap1\n      dup4\n      0xffffffffffffffffffffffffffffffffffffffff\n      and\n      mul\n      or\n      swap1\n      sstore\n      pop\n      swap2\n      0x20\n      add\n      swap2\n      swap1\n      0x01\n      add\n      swap1\n      jump(tag_92)\n    tag_93:\n    tag_91:\n      pop\n      swap1\n      pop\n      tag_94\n      swap2\n      swap1\n      tag_95\n      jump\t// in\n    tag_94:\n      pop\n      swap1\n      jump\t// out\n    tag_95:\n    tag_96:\n      dup1\n      dup3\n      gt\n      iszero\n      tag_97\n      jumpi\n      0x00\n      dup2\n      0x00\n      swap1\n      sstore\n      pop\n      0x01\n      add\n      jump(tag_96)\n    tag_97:\n      pop\n      swap1\n      jump\t// out\n        /* \"#utility.yul\":7:84   */\n    tag_98:\n        /* \"#utility.yul\":44:51   */\n      0x00\n        /* \"#utility.yul\":73:78   */\n      dup2\n        /* \"#utility.yul\":62:78   */\n      swap1\n      pop\n        /* \"#utility.yul\":7:84   */\n      swap2\n      swap1\n      pop\n      jump\t// out\n        /* \"#utility.yul\":90:208   */\n    tag_99:\n        /* \"#utility.yul\":177:201   */\n      tag_130\n        /* \"#utility.yul\":195:200   */\n      dup2\n        /* \"#utility.yul\":177:201   */\n      tag_98\n      jump\t// in\n    tag_130:\n        /* \"#utility.yul\":172:175   */\n      dup3\n        /* \"#utility.yul\":165:202   */\n      mstore\n        /* \"#utility.yul\":90:208   */\n      pop\n      pop\n      jump\t// out\n        /* \"#utility.yul\":214:436   */\n    tag_23:\n        /* \"#utility.yul\":307:311   */\n      0x00\n        /* \"#utility.yul\":345:347   */\n      0x20\n        /* \"#utility.yul\":334:343   */\n      dup3\n        /* \"#utility.yul\":330:348   */\n      add\n        /* \"#utility.yul\":322:348   */\n      swap1\n      pop\n        /* \"#utility.yul\":358:429   */\n      tag_132\n        /* \"#utility.yul\":426:427   */\n      0x00\n        /* \"#utility.yul\":415:424   */\n      dup4\n        /* \"#utility.yul\":411:428   */\n      add\n        /* \"#utility.yul\":402:408   */\n      dup5\n        /* \"#utility.yul\":358:429   */\n      tag_99\n      jump\t// in\n    tag_132:\n        /* \"#utility.yul\":214:436   */\n      swap3\n      swap2\n      pop\n      pop\n      jump\t// out\n        /* \"#utility.yul\":523:640   */\n    tag_101:\n        /* \"#utility.yul\":632:633   */\n      0x00\n        /* \"#utility.yul\":629:630   */\n      dup1\n        /* \"#utility.yul\":622:634   */\n      revert\n        /* \"#utility.yul\":769:895   */\n    tag_103:\n        /* \"#utility.yul\":806:813   */\n      0x00\n        /* \"#utility.yul\":846:888   */\n      0xffffffffffffffffffffffffffffffffffffffff\n        /* \"#utility.yul\":839:844   */\n      dup3\n        /* \"#utility.yul\":835:889   */\n      and\n        /* \"#utility.yul\":824:889   */\n      swap1\n      pop\n        /* \"#utility.yul\":769:895   */\n      swap2\n      swap1\n      pop\n      jump\t// out\n        /* \"#utility.yul\":901:997   */\n    tag_104:\n        /* \"#utility.yul\":938:945   */\n      0x00\n        /* \"#utility.yul\":967:991   */\n      tag_138\n        /* \"#utility.yul\":985:990   */\n      dup3\n        /* \"#utility.yul\":967:991   */\n      tag_103\n      jump\t// in\n    tag_138:\n        /* \"#utility.yul\":956:991   */\n      swap1\n      pop\n        /* \"#utility.yul\":901:997   */\n      swap2\n      swap1\n      pop\n      jump\t// out\n        /* \"#utility.yul\":1003:1125   */\n    tag_105:\n        /* \"#utility.yul\":1076:1100   */\n      tag_140\n        /* \"#utility.yul\":1094:1099   */\n      dup2\n        /* \"#utility.yul\":1076:1100   */\n      tag_104\n      jump\t// in\n    tag_140:\n        /* \"#utility.yul\":1069:1074   */\n      dup2\n        /* \"#utility.yul\":1066:1101   */\n      eq\n        /* \"#utility.yul\":1056:1119   */\n      tag_141\n      jumpi\n        /* \"#utility.yul\":1115:1116   */\n      0x00\n        /* \"#utility.yul\":1112:1113   */\n      dup1\n        /* \"#utility.yul\":1105:1117   */\n      revert\n        /* \"#utility.yul\":1056:1119   */\n    tag_141:\n        /* \"#utility.yul\":1003:1125   */\n      pop\n      jump\t// out\n        /* \"#utility.yul\":1131:1270   */\n    tag_106:\n        /* \"#utility.yul\":1177:1182   */\n      0x00\n        /* \"#utility.yul\":1215:1221   */\n      dup2\n        /* \"#utility.yul\":1202:1222   */\n      calldataload\n        /* \"#utility.yul\":1193:1222   */\n      swap1\n      pop\n        /* \"#utility.yul\":1231:1264   */\n      tag_143\n        /* \"#utility.yul\":1258:1263   */\n      dup2\n        /* \"#utility.yul\":1231:1264   */\n      tag_105\n      jump\t// in\n    tag_143:\n        /* \"#utility.yul\":1131:1270   */\n      swap3\n      swap2\n      pop\n      pop\n      jump\t// out\n        /* \"#utility.yul\":1276:1605   */\n    tag_28:\n        /* \"#utility.yul\":1335:1341   */\n      0x00\n        /* \"#utility.yul\":1384:1386   */\n      0x20\n        /* \"#utility.yul\":1372:1381   */\n      dup3\n        /* \"#utility.yul\":1363:1370   */\n      dup5\n        /* \"#utility.yul\":1359:1382   */\n      sub\n        /* \"#utility.yul\":1355:1387   */\n      slt\n        /* \"#utility.yul\":1352:1471   */\n      iszero\n      tag_145\n      jumpi\n        /* \"#utility.yul\":1390:1469   */\n      tag_146\n      tag_101\n      jump\t// in\n    tag_146:\n        /* \"#utility.yul\":1352:1471   */\n    tag_145:\n        /* \"#utility.yul\":1510:1511   */\n      0x00\n        /* \"#utility.yul\":1535:1588   */\n      tag_147\n        /* \"#utility.yul\":1580:1587   */\n      dup5\n        /* \"#utility.yul\":1571:1577   */\n      dup3\n        /* \"#utility.yul\":1560:1569   */\n      dup6\n        /* \"#utility.yul\":1556:1578   */\n      add\n        /* \"#utility.yul\":1535:1588   */\n      tag_106\n      jump\t// in\n    tag_147:\n        /* \"#utility.yul\":1525:1588   */\n      swap2\n      pop\n        /* \"#utility.yul\":1481:1598   */\n      pop\n        /* \"#utility.yul\":1276:1605   */\n      swap3\n      swap2\n      pop\n      pop\n      jump\t// out\n        /* \"#utility.yul\":1611:1729   */\n    tag_107:\n        /* \"#utility.yul\":1698:1722   */\n      tag_149\n        /* \"#utility.yul\":1716:1721   */\n      dup2\n        /* \"#utility.yul\":1698:1722   */\n      tag_104\n      jump\t// in\n    tag_149:\n        /* \"#utility.yul\":1693:1696   */\n      dup3\n        /* \"#utility.yul\":1686:1723   */\n      mstore\n        /* \"#utility.yul\":1611:1729   */\n      pop\n      pop\n      jump\t// out\n        /* \"#utility.yul\":1735:1957   */\n    tag_35:\n        /* \"#utility.yul\":1828:1832   */\n      0x00\n        /* \"#utility.yul\":1866:1868   */\n      0x20\n        /* \"#utility.yul\":1855:1864   */\n      dup3\n        /* \"#utility.yul\":1851:1869   */\n      add\n        /* \"#utility.yul\":1843:1869   */\n      swap1\n      pop\n        /* \"#utility.yul\":1879:1950   */\n      tag_151\n        /* \"#utility.yul\":1947:1948   */\n      0x00\n        /* \"#utility.yul\":1936:1945   */\n      dup4\n        /* \"#utility.yul\":1932:1949   */\n      add\n        /* \"#utility.yul\":1923:1929   */\n      dup5\n        /* \"#utility.yul\":1879:1950   */\n      tag_107\n      jump\t// in\n    tag_151:\n        /* \"#utility.yul\":1735:1957   */\n      swap3\n      swap2\n      pop\n      pop\n      jump\t// out\n        /* \"#utility.yul\":1963:2085   */\n    tag_108:\n        /* \"#utility.yul\":2036:2060   */\n      tag_153\n        /* \"#utility.yul\":2054:2059   */\n      dup2\n        /* \"#utility.yul\":2036:2060   */\n      tag_98\n      jump\t// in\n    tag_153:\n        /* \"#utility.yul\":2029:2034   */\n      dup2\n        /* \"#utility.yul\":2026:2061   */\n      eq\n        /* \"#utility.yul\":2016:2079   */\n      tag_154\n      jumpi\n        /* \"#utility.yul\":2075:2076   */\n      0x00\n        /* \"#utility.yul\":2072:2073   */\n      dup1\n        /* \"#utility.yul\":2065:2077   */\n      revert\n        /* \"#utility.yul\":2016:2079   */\n    tag_154:\n        /* \"#utility.yul\":1963:2085   */\n      pop\n      jump\t// out\n        /* \"#utility.yul\":2091:2230   */\n    tag_109:\n        /* \"#utility.yul\":2137:2142   */\n      0x00\n        /* \"#utility.yul\":2175:2181   */\n      dup2\n        /* \"#utility.yul\":2162:2182   */\n      calldataload\n        /* \"#utility.yul\":2153:2182   */\n      swap1\n      pop\n        /* \"#utility.yul\":2191:2224   */\n      tag_156\n        /* \"#utility.yul\":2218:2223   */\n      dup2\n        /* \"#utility.yul\":2191:2224   */\n      tag_108\n      jump\t// in\n    tag_156:\n        /* \"#utility.yul\":2091:2230   */\n      swap3\n      swap2\n      pop\n      pop\n      jump\t// out\n        /* \"#utility.yul\":2236:2565   */\n    tag_39:\n        /* \"#utility.yul\":2295:2301   */\n      0x00\n        /* \"#utility.yul\":2344:2346   */\n      0x20\n        /* \"#utility.yul\":2332:2341   */\n      dup3\n        /* \"#utility.yul\":2323:2330   */\n      dup5\n        /* \"#utility.yul\":2319:2342   */\n      sub\n        /* \"#utility.yul\":2315:2347   */\n      slt\n        /* \"#utility.yul\":2312:2431   */\n      iszero\n      tag_158\n      jumpi\n        /* \"#utility.yul\":2350:2429   */\n      tag_159\n      tag_101\n      jump\t// in\n    tag_159:\n        /* \"#utility.yul\":2312:2431   */\n    tag_158:\n        /* \"#utility.yul\":2470:2471   */\n      0x00\n        /* \"#utility.yul\":2495:2548   */\n      tag_160\n        /* \"#utility.yul\":2540:2547   */\n      dup5\n        /* \"#utility.yul\":2531:2537   */\n      dup3\n        /* \"#utility.yul\":2520:2529   */\n      dup6\n        /* \"#utility.yul\":2516:2538   */\n      add\n        /* \"#utility.yul\":2495:2548   */\n      tag_109\n      jump\t// in\n    tag_160:\n        /* \"#utility.yul\":2485:2548   */\n      swap2\n      pop\n        /* \"#utility.yul\":2441:2558   */\n      pop\n        /* \"#utility.yul\":2236:2565   */\n      swap3\n      swap2\n      pop\n      pop\n      jump\t// out\n        /* \"#utility.yul\":2571:2740   */\n    tag_110:\n        /* \"#utility.yul\":2655:2666   */\n      0x00\n        /* \"#utility.yul\":2689:2695   */\n      dup3\n        /* \"#utility.yul\":2684:2687   */\n      dup3\n        /* \"#utility.yul\":2677:2696   */\n      mstore\n        /* \"#utility.yul\":2729:2733   */\n      0x20\n        /* \"#utility.yul\":2724:2727   */\n      dup3\n        /* \"#utility.yul\":2720:2734   */\n      add\n        /* \"#utility.yul\":2705:2734   */\n      swap1\n      pop\n        /* \"#utility.yul\":2571:2740   */\n      swap3\n      swap2\n      pop\n      pop\n      jump\t// out\n        /* \"#utility.yul\":2746:2918   */\n    tag_111:\n        /* \"#utility.yul\":2886:2910   */\n      0x6e6f7420656e6f7567682045544820616d6f756e742100000000000000000000\n        /* \"#utility.yul\":2882:2883   */\n      0x00\n        /* \"#utility.yul\":2874:2880   */\n      dup3\n        /* \"#utility.yul\":2870:2884   */\n      add\n        /* \"#utility.yul\":2863:2911   */\n      mstore\n        /* \"#utility.yul\":2746:2918   */\n      pop\n      jump\t// out\n        /* \"#utility.yul\":2924:3290   */\n    tag_112:\n        /* \"#utility.yul\":3066:3069   */\n      0x00\n        /* \"#utility.yul\":3087:3154   */\n      tag_164\n        /* \"#utility.yul\":3151:3153   */\n      0x16\n        /* \"#utility.yul\":3146:3149   */\n      dup4\n        /* \"#utility.yul\":3087:3154   */\n      tag_110\n      jump\t// in\n    tag_164:\n        /* \"#utility.yul\":3080:3154   */\n      swap2\n      pop\n        /* \"#utility.yul\":3163:3256   */\n      tag_165\n        /* \"#utility.yul\":3252:3255   */\n      dup3\n        /* \"#utility.yul\":3163:3256   */\n      tag_111\n      jump\t// in\n    tag_165:\n        /* \"#utility.yul\":3281:3283   */\n      0x20\n        /* \"#utility.yul\":3276:3279   */\n      dup3\n        /* \"#utility.yul\":3272:3284   */\n      add\n        /* \"#utility.yul\":3265:3284   */\n      swap1\n      pop\n        /* \"#utility.yul\":2924:3290   */\n      swap2\n      swap1\n      pop\n      jump\t// out\n        /* \"#utility.yul\":3296:3715   */\n    tag_47:\n        /* \"#utility.yul\":3462:3466   */\n      0x00\n        /* \"#utility.yul\":3500:3502   */\n      0x20\n        /* \"#utility.yul\":3489:3498   */\n      dup3\n        /* \"#utility.yul\":3485:3503   */\n      add\n        /* \"#utility.yul\":3477:3503   */\n      swap1\n      pop\n        /* \"#utility.yul\":3549:3558   */\n      dup2\n        /* \"#utility.yul\":3543:3547   */\n      dup2\n        /* \"#utility.yul\":3539:3559   */\n      sub\n        /* \"#utility.yul\":3535:3536   */\n      0x00\n        /* \"#utility.yul\":3524:3533   */\n      dup4\n        /* \"#utility.yul\":3520:3537   */\n      add\n        /* \"#utility.yul\":3513:3560   */\n      mstore\n        /* \"#utility.yul\":3577:3708   */\n      tag_167\n        /* \"#utility.yul\":3703:3707   */\n      dup2\n        /* \"#utility.yul\":3577:3708   */\n      tag_112\n      jump\t// in\n    tag_167:\n        /* \"#utility.yul\":3569:3708   */\n      swap1\n      pop\n        /* \"#utility.yul\":3296:3715   */\n      swap2\n      swap1\n      pop\n      jump\t// out\n        /* \"#utility.yul\":3721:3901   */\n    tag_113:\n        /* \"#utility.yul\":3769:3846   */\n      0x4e487b7100000000000000000000000000000000000000000000000000000000\n        /* \"#utility.yul\":3766:3767   */\n      0x00\n        /* \"#utility.yul\":3759:3847   */\n      mstore\n        /* \"#utility.yul\":3866:3870   */\n      0x11\n        /* \"#utility.yul\":3863:3864   */\n      0x04\n        /* \"#utility.yul\":3856:3871   */\n      mstore\n        /* \"#utility.yul\":3890:3894   */\n      0x24\n        /* \"#utility.yul\":3887:3888   */\n      0x00\n        /* \"#utility.yul\":3880:3895   */\n      revert\n        /* \"#utility.yul\":3907:4098   */\n    tag_50:\n        /* \"#utility.yul\":3947:3950   */\n      0x00\n        /* \"#utility.yul\":3966:3986   */\n      tag_170\n        /* \"#utility.yul\":3984:3985   */\n      dup3\n        /* \"#utility.yul\":3966:3986   */\n      tag_98\n      jump\t// in\n    tag_170:\n        /* \"#utility.yul\":3961:3986   */\n      swap2\n      pop\n        /* \"#utility.yul\":4000:4020   */\n      tag_171\n        /* \"#utility.yul\":4018:4019   */\n      dup4\n        /* \"#utility.yul\":4000:4020   */\n      tag_98\n      jump\t// in\n    tag_171:\n        /* \"#utility.yul\":3995:4020   */\n      swap3\n      pop\n        /* \"#utility.yul\":4043:4044   */\n      dup3\n        /* \"#utility.yul\":4040:4041   */\n      dup3\n        /* \"#utility.yul\":4036:4045   */\n      add\n        /* \"#utility.yul\":4029:4045   */\n      swap1\n      pop\n        /* \"#utility.yul\":4064:4067   */\n      dup1\n        /* \"#utility.yul\":4061:4062   */\n      dup3\n        /* \"#utility.yul\":4058:4068   */\n      gt\n        /* \"#utility.yul\":4055:4091   */\n      iszero\n      tag_172\n      jumpi\n        /* \"#utility.yul\":4071:4089   */\n      tag_173\n      tag_113\n      jump\t// in\n    tag_173:\n        /* \"#utility.yul\":4055:4091   */\n    tag_172:\n        /* \"#utility.yul\":3907:4098   */\n      swap3\n      swap2\n      pop\n      pop\n      jump\t// out\n        /* \"#utility.yul\":4104:4284   */\n    tag_59:\n        /* \"#utility.yul\":4152:4229   */\n      0x4e487b7100000000000000000000000000000000000000000000000000000000\n        /* \"#utility.yul\":4149:4150   */\n      0x00\n        /* \"#utility.yul\":4142:4230   */\n      mstore\n        /* \"#utility.yul\":4249:4253   */\n      0x32\n        /* \"#utility.yul\":4246:4247   */\n      0x04\n        /* \"#utility.yul\":4239:4254   */\n      mstore\n        /* \"#utility.yul\":4273:4277   */\n      0x24\n        /* \"#utility.yul\":4270:4271   */\n      0x00\n        /* \"#utility.yul\":4263:4278   */\n      revert\n        /* \"#utility.yul\":4290:4470   */\n    tag_63:\n        /* \"#utility.yul\":4338:4415   */\n      0x4e487b7100000000000000000000000000000000000000000000000000000000\n        /* \"#utility.yul\":4335:4336   */\n      0x00\n        /* \"#utility.yul\":4328:4416   */\n      mstore\n        /* \"#utility.yul\":4435:4439   */\n      0x41\n        /* \"#utility.yul\":4432:4433   */\n      0x04\n        /* \"#utility.yul\":4425:4440   */\n      mstore\n        /* \"#utility.yul\":4459:4463   */\n      0x24\n        /* \"#utility.yul\":4456:4457   */\n      0x00\n        /* \"#utility.yul\":4449:4464   */\n      revert\n        /* \"#utility.yul\":4476:4623   */\n    tag_114:\n        /* \"#utility.yul\":4577:4588   */\n      0x00\n        /* \"#utility.yul\":4614:4617   */\n      dup2\n        /* \"#utility.yul\":4599:4617   */\n      swap1\n      pop\n        /* \"#utility.yul\":4476:4623   */\n      swap3\n      swap2\n      pop\n      pop\n      jump\t// out\n        /* \"#utility.yul\":4629:4743   */\n    tag_115:\n      pop\n      jump\t// out\n        /* \"#utility.yul\":4749:5147   */\n    tag_116:\n        /* \"#utility.yul\":4908:4911   */\n      0x00\n        /* \"#utility.yul\":4929:5012   */\n      tag_179\n        /* \"#utility.yul\":5010:5011   */\n      0x00\n        /* \"#utility.yul\":5005:5008   */\n      dup4\n        /* \"#utility.yul\":4929:5012   */\n      tag_114\n      jump\t// in\n    tag_179:\n        /* \"#utility.yul\":4922:5012   */\n      swap2\n      pop\n        /* \"#utility.yul\":5021:5114   */\n      tag_180\n        /* \"#utility.yul\":5110:5113   */\n      dup3\n        /* \"#utility.yul\":5021:5114   */\n      tag_115\n      jump\t// in\n    tag_180:\n        /* \"#utility.yul\":5139:5140   */\n      0x00\n        /* \"#utility.yul\":5134:5137   */\n      dup3\n        /* \"#utility.yul\":5130:5141   */\n      add\n        /* \"#utility.yul\":5123:5141   */\n      swap1\n      pop\n        /* \"#utility.yul\":4749:5147   */\n      swap2\n      swap1\n      pop\n      jump\t// out\n        /* \"#utility.yul\":5153:5532   */\n    tag_68:\n        /* \"#utility.yul\":5337:5340   */\n      0x00\n        /* \"#utility.yul\":5359:5506   */\n      tag_182\n        /* \"#utility.yul\":5502:5505   */\n      dup3\n        /* \"#utility.yul\":5359:5506   */\n      tag_116\n      jump\t// in\n    tag_182:\n        /* \"#utility.yul\":5352:5506   */\n      swap2\n      pop\n        /* \"#utility.yul\":5523:5526   */\n      dup2\n        /* \"#utility.yul\":5516:5526   */\n      swap1\n      pop\n        /* \"#utility.yul\":5153:5532   */\n      swap2\n      swap1\n      pop\n      jump\t// out\n        /* \"#utility.yul\":5538:5699   */\n    tag_117:\n        /* \"#utility.yul\":5678:5691   */\n      0x43616c6c206661696c6564000000000000000000000000000000000000000000\n        /* \"#utility.yul\":5674:5675   */\n      0x00\n        /* \"#utility.yul\":5666:5672   */\n      dup3\n        /* \"#utility.yul\":5662:5676   */\n      add\n        /* \"#utility.yul\":5655:5692   */\n      mstore\n        /* \"#utility.yul\":5538:5699   */\n      pop\n      jump\t// out\n        /* \"#utility.yul\":5705:6071   */\n    tag_118:\n        /* \"#utility.yul\":5847:5850   */\n      0x00\n        /* \"#utility.yul\":5868:5935   */\n      tag_185\n        /* \"#utility.yul\":5932:5934   */\n      0x0b\n        /* \"#utility.yul\":5927:5930   */\n      dup4\n        /* \"#utility.yul\":5868:5935   */\n      tag_110\n      jump\t// in\n    tag_185:\n        /* \"#utility.yul\":5861:5935   */\n      swap2\n      pop\n        /* \"#utility.yul\":5944:6037   */\n      tag_186\n        /* \"#utility.yul\":6033:6036   */\n      dup3\n        /* \"#utility.yul\":5944:6037   */\n      tag_117\n      jump\t// in\n    tag_186:\n        /* \"#utility.yul\":6062:6064   */\n      0x20\n        /* \"#utility.yul\":6057:6060   */\n      dup3\n        /* \"#utility.yul\":6053:6065   */\n      add\n        /* \"#utility.yul\":6046:6065   */\n      swap1\n      pop\n        /* \"#utility.yul\":5705:6071   */\n      swap2\n      swap1\n      pop\n      jump\t// out\n        /* \"#utility.yul\":6077:6496   */\n    tag_74:\n        /* \"#utility.yul\":6243:6247   */\n      0x00\n        /* \"#utility.yul\":6281:6283   */\n      0x20\n        /* \"#utility.yul\":6270:6279   */\n      dup3\n        /* \"#utility.yul\":6266:6284   */\n      add\n        /* \"#utility.yul\":6258:6284   */\n      swap1\n      pop\n        /* \"#utility.yul\":6330:6339   */\n      dup2\n        /* \"#utility.yul\":6324:6328   */\n      dup2\n        /* \"#utility.yul\":6320:6340   */\n      sub\n        /* \"#utility.yul\":6316:6317   */\n      0x00\n        /* \"#utility.yul\":6305:6314   */\n      dup4\n        /* \"#utility.yul\":6301:6318   */\n      add\n        /* \"#utility.yul\":6294:6341   */\n      mstore\n        /* \"#utility.yul\":6358:6489   */\n      tag_188\n        /* \"#utility.yul\":6484:6488   */\n      dup2\n        /* \"#utility.yul\":6358:6489   */\n      tag_118\n      jump\t// in\n    tag_188:\n        /* \"#utility.yul\":6350:6489   */\n      swap1\n      pop\n        /* \"#utility.yul\":6077:6496   */\n      swap2\n      swap1\n      pop\n      jump\t// out\n        /* \"#utility.yul\":6502:6912   */\n    tag_81:\n        /* \"#utility.yul\":6542:6549   */\n      0x00\n        /* \"#utility.yul\":6565:6585   */\n      tag_190\n        /* \"#utility.yul\":6583:6584   */\n      dup3\n        /* \"#utility.yul\":6565:6585   */\n      tag_98\n      jump\t// in\n    tag_190:\n        /* \"#utility.yul\":6560:6585   */\n      swap2\n      pop\n        /* \"#utility.yul\":6599:6619   */\n      tag_191\n        /* \"#utility.yul\":6617:6618   */\n      dup4\n        /* \"#utility.yul\":6599:6619   */\n      tag_98\n      jump\t// in\n    tag_191:\n        /* \"#utility.yul\":6594:6619   */\n      swap3\n      pop\n        /* \"#utility.yul\":6654:6655   */\n      dup3\n        /* \"#utility.yul\":6651:6652   */\n      dup3\n        /* \"#utility.yul\":6647:6656   */\n      mul\n        /* \"#utility.yul\":6676:6706   */\n      tag_192\n        /* \"#utility.yul\":6694:6705   */\n      dup2\n        /* \"#utility.yul\":6676:6706   */\n      tag_98\n      jump\t// in\n    tag_192:\n        /* \"#utility.yul\":6665:6706   */\n      swap2\n      pop\n        /* \"#utility.yul\":6855:6856   */\n      dup3\n        /* \"#utility.yul\":6846:6853   */\n      dup3\n        /* \"#utility.yul\":6842:6857   */\n      div\n        /* \"#utility.yul\":6839:6840   */\n      dup5\n        /* \"#utility.yul\":6836:6858   */\n      eq\n        /* \"#utility.yul\":6816:6817   */\n      dup4\n        /* \"#utility.yul\":6809:6818   */\n      iszero\n        /* \"#utility.yul\":6789:6872   */\n      or\n        /* \"#utility.yul\":6766:6905   */\n      tag_193\n      jumpi\n        /* \"#utility.yul\":6885:6903   */\n      tag_194\n      tag_113\n      jump\t// in\n    tag_194:\n        /* \"#utility.yul\":6766:6905   */\n    tag_193:\n        /* \"#utility.yul\":6550:6912   */\n      pop\n        /* \"#utility.yul\":6502:6912   */\n      swap3\n      swap2\n      pop\n      pop\n      jump\t// out\n        /* \"#utility.yul\":6918:7098   */\n    tag_119:\n        /* \"#utility.yul\":6966:7043   */\n      0x4e487b7100000000000000000000000000000000000000000000000000000000\n        /* \"#utility.yul\":6963:6964   */\n      0x00\n        /* \"#utility.yul\":6956:7044   */\n      mstore\n        /* \"#utility.yul\":7063:7067   */\n      0x12\n        /* \"#utility.yul\":7060:7061   */\n      0x04\n        /* \"#utility.yul\":7053:7068   */\n      mstore\n        /* \"#utility.yul\":7087:7091   */\n      0x24\n        /* \"#utility.yul\":7084:7085   */\n      0x00\n        /* \"#utility.yul\":7077:7092   */\n      revert\n        /* \"#utility.yul\":7104:7289   */\n    tag_83:\n        /* \"#utility.yul\":7144:7145   */\n      0x00\n        /* \"#utility.yul\":7161:7181   */\n      tag_197\n        /* \"#utility.yul\":7179:7180   */\n      dup3\n        /* \"#utility.yul\":7161:7181   */\n      tag_98\n      jump\t// in\n    tag_197:\n        /* \"#utility.yul\":7156:7181   */\n      swap2\n      pop\n        /* \"#utility.yul\":7195:7215   */\n      tag_198\n        /* \"#utility.yul\":7213:7214   */\n      dup4\n        /* \"#utility.yul\":7195:7215   */\n      tag_98\n      jump\t// in\n    tag_198:\n        /* \"#utility.yul\":7190:7215   */\n      swap3\n      pop\n        /* \"#utility.yul\":7234:7235   */\n      dup3\n        /* \"#utility.yul\":7224:7259   */\n      tag_199\n      jumpi\n        /* \"#utility.yul\":7239:7257   */\n      tag_200\n      tag_119\n      jump\t// in\n    tag_200:\n        /* \"#utility.yul\":7224:7259   */\n    tag_199:\n        /* \"#utility.yul\":7281:7282   */\n      dup3\n        /* \"#utility.yul\":7278:7279   */\n      dup3\n        /* \"#utility.yul\":7274:7283   */\n      div\n        /* \"#utility.yul\":7269:7283   */\n      swap1\n      pop\n        /* \"#utility.yul\":7104:7289   */\n      swap3\n      swap2\n      pop\n      pop\n      jump\t// out\n        /* \"#utility.yul\":7295:7400   */\n    tag_120:\n        /* \"#utility.yul\":7331:7338   */\n      0x00\n        /* \"#utility.yul\":7371:7393   */\n      0xffffffffffffffffffff\n        /* \"#utility.yul\":7364:7369   */\n      dup3\n        /* \"#utility.yul\":7360:7394   */\n      and\n        /* \"#utility.yul\":7349:7394   */\n      swap1\n      pop\n        /* \"#utility.yul\":7295:7400   */\n      swap2\n      swap1\n      pop\n      jump\t// out\n        /* \"#utility.yul\":7406:7526   */\n    tag_121:\n        /* \"#utility.yul\":7478:7501   */\n      tag_203\n        /* \"#utility.yul\":7495:7500   */\n      dup2\n        /* \"#utility.yul\":7478:7501   */\n      tag_120\n      jump\t// in\n    tag_203:\n        /* \"#utility.yul\":7471:7476   */\n      dup2\n        /* \"#utility.yul\":7468:7502   */\n      eq\n        /* \"#utility.yul\":7458:7520   */\n      tag_204\n      jumpi\n        /* \"#utility.yul\":7516:7517   */\n      0x00\n        /* \"#utility.yul\":7513:7514   */\n      dup1\n        /* \"#utility.yul\":7506:7518   */\n      revert\n        /* \"#utility.yul\":7458:7520   */\n    tag_204:\n        /* \"#utility.yul\":7406:7526   */\n      pop\n      jump\t// out\n        /* \"#utility.yul\":7532:7673   */\n    tag_122:\n        /* \"#utility.yul\":7588:7593   */\n      0x00\n        /* \"#utility.yul\":7619:7625   */\n      dup2\n        /* \"#utility.yul\":7613:7626   */\n      mload\n        /* \"#utility.yul\":7604:7626   */\n      swap1\n      pop\n        /* \"#utility.yul\":7635:7667   */\n      tag_206\n        /* \"#utility.yul\":7661:7666   */\n      dup2\n        /* \"#utility.yul\":7635:7667   */\n      tag_121\n      jump\t// in\n    tag_206:\n        /* \"#utility.yul\":7532:7673   */\n      swap3\n      swap2\n      pop\n      pop\n      jump\t// out\n        /* \"#utility.yul\":7679:7755   */\n    tag_123:\n        /* \"#utility.yul\":7715:7722   */\n      0x00\n        /* \"#utility.yul\":7744:7749   */\n      dup2\n        /* \"#utility.yul\":7733:7749   */\n      swap1\n      pop\n        /* \"#utility.yul\":7679:7755   */\n      swap2\n      swap1\n      pop\n      jump\t// out\n        /* \"#utility.yul\":7761:7881   */\n    tag_124:\n        /* \"#utility.yul\":7833:7856   */\n      tag_209\n        /* \"#utility.yul\":7850:7855   */\n      dup2\n        /* \"#utility.yul\":7833:7856   */\n      tag_123\n      jump\t// in\n    tag_209:\n        /* \"#utility.yul\":7826:7831   */\n      dup2\n        /* \"#utility.yul\":7823:7857   */\n      eq\n        /* \"#utility.yul\":7813:7875   */\n      tag_210\n      jumpi\n        /* \"#utility.yul\":7871:7872   */\n      0x00\n        /* \"#utility.yul\":7868:7869   */\n      dup1\n        /* \"#utility.yul\":7861:7873   */\n      revert\n        /* \"#utility.yul\":7813:7875   */\n    tag_210:\n        /* \"#utility.yul\":7761:7881   */\n      pop\n      jump\t// out\n        /* \"#utility.yul\":7887:8028   */\n    tag_125:\n        /* \"#utility.yul\":7943:7948   */\n      0x00\n        /* \"#utility.yul\":7974:7980   */\n      dup2\n        /* \"#utility.yul\":7968:7981   */\n      mload\n        /* \"#utility.yul\":7959:7981   */\n      swap1\n      pop\n        /* \"#utility.yul\":7990:8022   */\n      tag_212\n        /* \"#utility.yul\":8016:8021   */\n      dup2\n        /* \"#utility.yul\":7990:8022   */\n      tag_124\n      jump\t// in\n    tag_212:\n        /* \"#utility.yul\":7887:8028   */\n      swap3\n      swap2\n      pop\n      pop\n      jump\t// out\n        /* \"#utility.yul\":8034:8177   */\n    tag_126:\n        /* \"#utility.yul\":8091:8096   */\n      0x00\n        /* \"#utility.yul\":8122:8128   */\n      dup2\n        /* \"#utility.yul\":8116:8129   */\n      mload\n        /* \"#utility.yul\":8107:8129   */\n      swap1\n      pop\n        /* \"#utility.yul\":8138:8171   */\n      tag_214\n        /* \"#utility.yul\":8165:8170   */\n      dup2\n        /* \"#utility.yul\":8138:8171   */\n      tag_108\n      jump\t// in\n    tag_214:\n        /* \"#utility.yul\":8034:8177   */\n      swap3\n      swap2\n      pop\n      pop\n      jump\t// out\n        /* \"#utility.yul\":8183:9154   */\n    tag_88:\n        /* \"#utility.yul\":8286:8292   */\n      0x00\n        /* \"#utility.yul\":8294:8300   */\n      dup1\n        /* \"#utility.yul\":8302:8308   */\n      0x00\n        /* \"#utility.yul\":8310:8316   */\n      dup1\n        /* \"#utility.yul\":8318:8324   */\n      0x00\n        /* \"#utility.yul\":8367:8370   */\n      0xa0\n        /* \"#utility.yul\":8355:8364   */\n      dup7\n        /* \"#utility.yul\":8346:8353   */\n      dup9\n        /* \"#utility.yul\":8342:8365   */\n      sub\n        /* \"#utility.yul\":8338:8371   */\n      slt\n        /* \"#utility.yul\":8335:8455   */\n      iszero\n      tag_216\n      jumpi\n        /* \"#utility.yul\":8374:8453   */\n      tag_217\n      tag_101\n      jump\t// in\n    tag_217:\n        /* \"#utility.yul\":8335:8455   */\n    tag_216:\n        /* \"#utility.yul\":8494:8495   */\n      0x00\n        /* \"#utility.yul\":8519:8582   */\n      tag_218\n        /* \"#utility.yul\":8574:8581   */\n      dup9\n        /* \"#utility.yul\":8565:8571   */\n      dup3\n        /* \"#utility.yul\":8554:8563   */\n      dup10\n        /* \"#utility.yul\":8550:8572   */\n      add\n        /* \"#utility.yul\":8519:8582   */\n      tag_122\n      jump\t// in\n    tag_218:\n        /* \"#utility.yul\":8509:8582   */\n      swap6\n      pop\n        /* \"#utility.yul\":8465:8592   */\n      pop\n        /* \"#utility.yul\":8631:8633   */\n      0x20\n        /* \"#utility.yul\":8657:8720   */\n      tag_219\n        /* \"#utility.yul\":8712:8719   */\n      dup9\n        /* \"#utility.yul\":8703:8709   */\n      dup3\n        /* \"#utility.yul\":8692:8701   */\n      dup10\n        /* \"#utility.yul\":8688:8710   */\n      add\n        /* \"#utility.yul\":8657:8720   */\n      tag_125\n      jump\t// in\n    tag_219:\n        /* \"#utility.yul\":8647:8720   */\n      swap5\n      pop\n        /* \"#utility.yul\":8602:8730   */\n      pop\n        /* \"#utility.yul\":8769:8771   */\n      0x40\n        /* \"#utility.yul\":8795:8859   */\n      tag_220\n        /* \"#utility.yul\":8851:8858   */\n      dup9\n        /* \"#utility.yul\":8842:8848   */\n      dup3\n        /* \"#utility.yul\":8831:8840   */\n      dup10\n        /* \"#utility.yul\":8827:8849   */\n      add\n        /* \"#utility.yul\":8795:8859   */\n      tag_126\n      jump\t// in\n    tag_220:\n        /* \"#utility.yul\":8785:8859   */\n      swap4\n      pop\n        /* \"#utility.yul\":8740:8869   */\n      pop\n        /* \"#utility.yul\":8908:8910   */\n      0x60\n        /* \"#utility.yul\":8934:8998   */\n      tag_221\n        /* \"#utility.yul\":8990:8997   */\n      dup9\n        /* \"#utility.yul\":8981:8987   */\n      dup3\n        /* \"#utility.yul\":8970:8979   */\n      dup10\n        /* \"#utility.yul\":8966:8988   */\n      add\n        /* \"#utility.yul\":8934:8998   */\n      tag_126\n      jump\t// in\n    tag_221:\n        /* \"#utility.yul\":8924:8998   */\n      swap3\n      pop\n        /* \"#utility.yul\":8879:9008   */\n      pop\n        /* \"#utility.yul\":9047:9050   */\n      0x80\n        /* \"#utility.yul\":9074:9137   */\n      tag_222\n        /* \"#utility.yul\":9129:9136   */\n      dup9\n        /* \"#utility.yul\":9120:9126   */\n      dup3\n        /* \"#utility.yul\":9109:9118   */\n      dup10\n        /* \"#utility.yul\":9105:9127   */\n      add\n        /* \"#utility.yul\":9074:9137   */\n      tag_122\n      jump\t// in\n    tag_222:\n        /* \"#utility.yul\":9064:9137   */\n      swap2\n      pop\n        /* \"#utility.yul\":9018:9147   */\n      pop\n        /* \"#utility.yul\":8183:9154   */\n      swap3\n      swap6\n      pop\n      swap3\n      swap6\n      swap1\n      swap4\n      pop\n      jump\t// out\n        /* \"#utility.yul\":9160:9716   */\n    tag_90:\n        /* \"#utility.yul\":9199:9206   */\n      0x00\n        /* \"#utility.yul\":9222:9241   */\n      tag_224\n        /* \"#utility.yul\":9239:9240   */\n      dup3\n        /* \"#utility.yul\":9222:9241   */\n      tag_123\n      jump\t// in\n    tag_224:\n        /* \"#utility.yul\":9217:9241   */\n      swap2\n      pop\n        /* \"#utility.yul\":9255:9274   */\n      tag_225\n        /* \"#utility.yul\":9272:9273   */\n      dup4\n        /* \"#utility.yul\":9255:9274   */\n      tag_123\n      jump\t// in\n    tag_225:\n        /* \"#utility.yul\":9250:9274   */\n      swap3\n      pop\n        /* \"#utility.yul\":9309:9310   */\n      dup3\n        /* \"#utility.yul\":9306:9307   */\n      dup3\n        /* \"#utility.yul\":9302:9311   */\n      mul\n        /* \"#utility.yul\":9331:9360   */\n      tag_226\n        /* \"#utility.yul\":9348:9359   */\n      dup2\n        /* \"#utility.yul\":9331:9360   */\n      tag_123\n      jump\t// in\n    tag_226:\n        /* \"#utility.yul\":9320:9360   */\n      swap2\n      pop\n        /* \"#utility.yul\":9418:9484   */\n      0x8000000000000000000000000000000000000000000000000000000000000000\n        /* \"#utility.yul\":9415:9416   */\n      dup5\n        /* \"#utility.yul\":9412:9485   */\n      eq\n        /* \"#utility.yul\":9408:9409   */\n      0x00\n        /* \"#utility.yul\":9405:9406   */\n      dup5\n        /* \"#utility.yul\":9401:9410   */\n      slt\n        /* \"#utility.yul\":9397:9486   */\n      and\n        /* \"#utility.yul\":9394:9509   */\n      iszero\n      tag_227\n      jumpi\n        /* \"#utility.yul\":9489:9507   */\n      tag_228\n      tag_113\n      jump\t// in\n    tag_228:\n        /* \"#utility.yul\":9394:9509   */\n    tag_227:\n        /* \"#utility.yul\":9659:9660   */\n      dup3\n        /* \"#utility.yul\":9650:9657   */\n      dup3\n        /* \"#utility.yul\":9645:9661   */\n      sdiv\n        /* \"#utility.yul\":9642:9643   */\n      dup5\n        /* \"#utility.yul\":9639:9662   */\n      eq\n        /* \"#utility.yul\":9619:9620   */\n      dup4\n        /* \"#utility.yul\":9612:9621   */\n      iszero\n        /* \"#utility.yul\":9592:9676   */\n      or\n        /* \"#utility.yul\":9569:9709   */\n      tag_229\n      jumpi\n        /* \"#utility.yul\":9689:9707   */\n      tag_230\n      tag_113\n      jump\t// in\n    tag_230:\n        /* \"#utility.yul\":9569:9709   */\n    tag_229:\n        /* \"#utility.yul\":9207:9716   */\n      pop\n        /* \"#utility.yul\":9160:9716   */\n      swap3\n      swap2\n      pop\n      pop\n      jump\t// out\n\n    auxdata: 0xa2646970667358221220293c21de6a17c84341b5fccf34a1653103266cfcfde6faa3f877626b209e781f64736f6c634300081a0033\n}\n",
				"bytecode": {
					"linkReferences": {},
					"object": "60a0604052348015600e575f80fd5b503373ffffffffffffffffffffffffffffffffffffffff1660808173ffffffffffffffffffffffffffffffffffffffff1681525050608051610c1d6100625f395f818161029d01526104e90152610c1d5ff3fe608060405260043610610058575f3560e01c806357ea89b6146100715780636b69a592146100875780636ce1417e146100b1578063b804f81f146100bb578063dba6335f146100f7578063dc0d3dff1461012157610067565b366100675761006561015d565b005b61006f61015d565b005b34801561007c575f80fd5b5061008561029b565b005b348015610092575f80fd5b5061009b6104c6565b6040516100a891906106dc565b60405180910390f35b6100b961015d565b005b3480156100c6575f80fd5b506100e160048036038101906100dc9190610753565b6104d2565b6040516100ee91906106dc565b60405180910390f35b348015610102575f80fd5b5061010b6104e7565b604051610118919061078d565b60405180910390f35b34801561012c575f80fd5b50610147600480360381019061014291906107d0565b61050b565b604051610154919061078d565b60405180910390f35b674563918244f4000061016f34610545565b10156101b0576040517f08c379a00000000000000000000000000000000000000000000000000000000081526004016101a790610855565b60405180910390fd5b5f33908060018154018082558091505060019003905f5260205f20015f9091909190916101000a81548173ffffffffffffffffffffffffffffffffffffffff021916908373ffffffffffffffffffffffffffffffffffffffff1602179055503460015f3373ffffffffffffffffffffffffffffffffffffffff1673ffffffffffffffffffffffffffffffffffffffff1681526020019081526020015f205461025891906108a0565b60015f3373ffffffffffffffffffffffffffffffffffffffff1673ffffffffffffffffffffffffffffffffffffffff1681526020019081526020015f2081905550565b7f000000000000000000000000000000000000000000000000000000000000000073ffffffffffffffffffffffffffffffffffffffff163373ffffffffffffffffffffffffffffffffffffffff1614610320576040517f30cd747100000000000000000000000000000000000000000000000000000000815260040160405180910390fd5b5f5b5f805490508110156103bc575f808281548110610342576103416108d3565b5b905f5260205f20015f9054906101000a900473ffffffffffffffffffffffffffffffffffffffff1690505f60015f8373ffffffffffffffffffffffffffffffffffffffff1673ffffffffffffffffffffffffffffffffffffffff1681526020019081526020015f2081905550508080600101915050610322565b505f67ffffffffffffffff8111156103d7576103d6610900565b5b6040519080825280602002602001820160405280156104055781602001602082028036833780820191505090505b505f908051906020019061041a929190610622565b505f3373ffffffffffffffffffffffffffffffffffffffff16476040516104409061095a565b5f6040518083038185875af1925050503d805f811461047a576040519150601f19603f3d011682016040523d82523d5f602084013e61047f565b606091505b50509050806104c3576040517f08c379a00000000000000000000000000000000000000000000000000000000081526004016104ba906109b8565b60405180910390fd5b50565b674563918244f4000081565b6001602052805f5260405f205f915090505481565b7f000000000000000000000000000000000000000000000000000000000000000081565b5f8181548110610519575f80fd5b905f5260205f20015f915054906101000a900473ffffffffffffffffffffffffffffffffffffffff1681565b5f8061054f61057d565b90505f670de0b6b3a7640000828561056791906109d6565b6105719190610a44565b90508092505050919050565b5f8073694aa1769357215de4fac081bf1f309adc32530690505f8173ffffffffffffffffffffffffffffffffffffffff1663feaf968c6040518163ffffffff1660e01b815260040160a060405180830381865afa1580156105e0573d5f803e3d5ffd5b505050506040513d601f19601f820116820180604052508101906106049190610afa565b5050509150506402540be4008161061b9190610b71565b9250505090565b828054828255905f5260205f20908101928215610698579160200282015b82811115610697578251825f6101000a81548173ffffffffffffffffffffffffffffffffffffffff021916908373ffffffffffffffffffffffffffffffffffffffff16021790555091602001919060010190610640565b5b5090506106a591906106a9565b5090565b5b808211156106c0575f815f9055506001016106aa565b5090565b5f819050919050565b6106d6816106c4565b82525050565b5f6020820190506106ef5f8301846106cd565b92915050565b5f80fd5b5f73ffffffffffffffffffffffffffffffffffffffff82169050919050565b5f610722826106f9565b9050919050565b61073281610718565b811461073c575f80fd5b50565b5f8135905061074d81610729565b92915050565b5f60208284031215610768576107676106f5565b5b5f6107758482850161073f565b91505092915050565b61078781610718565b82525050565b5f6020820190506107a05f83018461077e565b92915050565b6107af816106c4565b81146107b9575f80fd5b50565b5f813590506107ca816107a6565b92915050565b5f602082840312156107e5576107e46106f5565b5b5f6107f2848285016107bc565b91505092915050565b5f82825260208201905092915050565b7f6e6f7420656e6f7567682045544820616d6f756e7421000000000000000000005f82015250565b5f61083f6016836107fb565b915061084a8261080b565b602082019050919050565b5f6020820190508181035f83015261086c81610833565b9050919050565b7f4e487b71000000000000000000000000000000000000000000000000000000005f52601160045260245ffd5b5f6108aa826106c4565b91506108b5836106c4565b92508282019050808211156108cd576108cc610873565b5b92915050565b7f4e487b71000000000000000000000000000000000000000000000000000000005f52603260045260245ffd5b7f4e487b71000000000000000000000000000000000000000000000000000000005f52604160045260245ffd5b5f81905092915050565b50565b5f6109455f8361092d565b915061095082610937565b5f82019050919050565b5f6109648261093a565b9150819050919050565b7f43616c6c206661696c65640000000000000000000000000000000000000000005f82015250565b5f6109a2600b836107fb565b91506109ad8261096e565b602082019050919050565b5f6020820190508181035f8301526109cf81610996565b9050919050565b5f6109e0826106c4565b91506109eb836106c4565b92508282026109f9816106c4565b91508282048414831517610a1057610a0f610873565b5b5092915050565b7f4e487b71000000000000000000000000000000000000000000000000000000005f52601260045260245ffd5b5f610a4e826106c4565b9150610a59836106c4565b925082610a6957610a68610a17565b5b828204905092915050565b5f69ffffffffffffffffffff82169050919050565b610a9281610a74565b8114610a9c575f80fd5b50565b5f81519050610aad81610a89565b92915050565b5f819050919050565b610ac581610ab3565b8114610acf575f80fd5b50565b5f81519050610ae081610abc565b92915050565b5f81519050610af4816107a6565b92915050565b5f805f805f60a08688031215610b1357610b126106f5565b5b5f610b2088828901610a9f565b9550506020610b3188828901610ad2565b9450506040610b4288828901610ae6565b9350506060610b5388828901610ae6565b9250506080610b6488828901610a9f565b9150509295509295909350565b5f610b7b82610ab3565b9150610b8683610ab3565b9250828202610b9481610ab3565b91507f800000000000000000000000000000000000000000000000000000000000000084145f84121615610bcb57610bca610873565b5b8282058414831517610be057610bdf610873565b5b509291505056fea2646970667358221220293c21de6a17c84341b5fccf34a1653103266cfcfde6faa3f877626b209e781f64736f6c634300081a0033",
					"opcodes": "PUSH1 0xA0 PUSH1 0x40 MSTORE CALLVALUE DUP1 ISZERO PUSH1 0xE JUMPI PUSH0 DUP1 REVERT JUMPDEST POP CALLER PUSH20 0xFFFFFFFFFFFFFFFFFFFFFFFFFFFFFFFFFFFFFFFF AND PUSH1 0x80 DUP2 PUSH20 0xFFFFFFFFFFFFFFFFFFFFFFFFFFFFFFFFFFFFFFFF AND DUP2 MSTORE POP POP PUSH1 0x80 MLOAD PUSH2 0xC1D PUSH2 0x62 PUSH0 CODECOPY PUSH0 DUP2 DUP2 PUSH2 0x29D ADD MSTORE PUSH2 0x4E9 ADD MSTORE PUSH2 0xC1D PUSH0 RETURN INVALID PUSH1 0x80 PUSH1 0x40 MSTORE PUSH1 0x4 CALLDATASIZE LT PUSH2 0x58 JUMPI PUSH0 CALLDATALOAD PUSH1 0xE0 SHR DUP1 PUSH4 0x57EA89B6 EQ PUSH2 0x71 JUMPI DUP1 PUSH4 0x6B69A592 EQ PUSH2 0x87 JUMPI DUP1 PUSH4 0x6CE1417E EQ PUSH2 0xB1 JUMPI DUP1 PUSH4 0xB804F81F EQ PUSH2 0xBB JUMPI DUP1 PUSH4 0xDBA6335F EQ PUSH2 0xF7 JUMPI DUP1 PUSH4 0xDC0D3DFF EQ PUSH2 0x121 JUMPI PUSH2 0x67 JUMP JUMPDEST CALLDATASIZE PUSH2 0x67 JUMPI PUSH2 0x65 PUSH2 0x15D JUMP JUMPDEST STOP JUMPDEST PUSH2 0x6F PUSH2 0x15D JUMP JUMPDEST STOP JUMPDEST CALLVALUE DUP1 ISZERO PUSH2 0x7C JUMPI PUSH0 DUP1 REVERT JUMPDEST POP PUSH2 0x85 PUSH2 0x29B JUMP JUMPDEST STOP JUMPDEST CALLVALUE DUP1 ISZERO PUSH2 0x92 JUMPI PUSH0 DUP1 REVERT JUMPDEST POP PUSH2 0x9B PUSH2 0x4C6 JUMP JUMPDEST PUSH1 0x40 MLOAD PUSH2 0xA8 SWAP2 SWAP1 PUSH2 0x6DC JUMP JUMPDEST PUSH1 0x40 MLOAD DUP1 SWAP2 SUB SWAP1 RETURN JUMPDEST PUSH2 0xB9 PUSH2 0x15D JUMP JUMPDEST STOP JUMPDEST CALLVALUE DUP1 ISZERO PUSH2 0xC6 JUMPI PUSH0 DUP1 REVERT JUMPDEST POP PUSH2 0xE1 PUSH1 0x4 DUP1 CALLDATASIZE SUB DUP2 ADD SWAP1 PUSH2 0xDC SWAP2 SWAP1 PUSH2 0x753 JUMP JUMPDEST PUSH2 0x4D2 JUMP JUMPDEST PUSH1 0x40 MLOAD PUSH2 0xEE SWAP2 SWAP1 PUSH2 0x6DC JUMP JUMPDEST PUSH1 0x40 MLOAD DUP1 SWAP2 SUB SWAP1 RETURN JUMPDEST CALLVALUE DUP1 ISZERO PUSH2 0x102 JUMPI PUSH0 DUP1 REVERT JUMPDEST POP PUSH2 0x10B PUSH2 0x4E7 JUMP JUMPDEST PUSH1 0x40 MLOAD PUSH2 0x118 SWAP2 SWAP1 PUSH2 0x78D JUMP JUMPDEST PUSH1 0x40 MLOAD DUP1 SWAP2 SUB SWAP1 RETURN JUMPDEST CALLVALUE DUP1 ISZERO PUSH2 0x12C JUMPI PUSH0 DUP1 REVERT JUMPDEST POP PUSH2 0x147 PUSH1 0x4 DUP1 CALLDATASIZE SUB DUP2 ADD SWAP1 PUSH2 0x142 SWAP2 SWAP1 PUSH2 0x7D0 JUMP JUMPDEST PUSH2 0x50B JUMP JUMPDEST PUSH1 0x40 MLOAD PUSH2 0x154 SWAP2 SWAP1 PUSH2 0x78D JUMP JUMPDEST PUSH1 0x40 MLOAD DUP1 SWAP2 SUB SWAP1 RETURN JUMPDEST PUSH8 0x4563918244F40000 PUSH2 0x16F CALLVALUE PUSH2 0x545 JUMP JUMPDEST LT ISZERO PUSH2 0x1B0 JUMPI PUSH1 0x40 MLOAD PUSH32 0x8C379A000000000000000000000000000000000000000000000000000000000 DUP2 MSTORE PUSH1 0x4 ADD PUSH2 0x1A7 SWAP1 PUSH2 0x855 JUMP JUMPDEST PUSH1 0x40 MLOAD DUP1 SWAP2 SUB SWAP1 REVERT JUMPDEST PUSH0 CALLER SWAP1 DUP1 PUSH1 0x1 DUP2 SLOAD ADD DUP1 DUP3 SSTORE DUP1 SWAP2 POP POP PUSH1 0x1 SWAP1 SUB SWAP1 PUSH0 MSTORE PUSH1 0x20 PUSH0 KECCAK256 ADD PUSH0 SWAP1 SWAP2 SWAP1 SWAP2 SWAP1 SWAP2 PUSH2 0x100 EXP DUP2 SLOAD DUP2 PUSH20 0xFFFFFFFFFFFFFFFFFFFFFFFFFFFFFFFFFFFFFFFF MUL NOT AND SWAP1 DUP4 PUSH20 0xFFFFFFFFFFFFFFFFFFFFFFFFFFFFFFFFFFFFFFFF AND MUL OR SWAP1 SSTORE POP CALLVALUE PUSH1 0x1 PUSH0 CALLER PUSH20 0xFFFFFFFFFFFFFFFFFFFFFFFFFFFFFFFFFFFFFFFF AND PUSH20 0xFFFFFFFFFFFFFFFFFFFFFFFFFFFFFFFFFFFFFFFF AND DUP2 MSTORE PUSH1 0x20 ADD SWAP1 DUP2 MSTORE PUSH1 0x20 ADD PUSH0 KECCAK256 SLOAD PUSH2 0x258 SWAP2 SWAP1 PUSH2 0x8A0 JUMP JUMPDEST PUSH1 0x1 PUSH0 CALLER PUSH20 0xFFFFFFFFFFFFFFFFFFFFFFFFFFFFFFFFFFFFFFFF AND PUSH20 0xFFFFFFFFFFFFFFFFFFFFFFFFFFFFFFFFFFFFFFFF AND DUP2 MSTORE PUSH1 0x20 ADD SWAP1 DUP2 MSTORE PUSH1 0x20 ADD PUSH0 KECCAK256 DUP2 SWAP1 SSTORE POP JUMP JUMPDEST PUSH32 0x0 PUSH20 0xFFFFFFFFFFFFFFFFFFFFFFFFFFFFFFFFFFFFFFFF AND CALLER PUSH20 0xFFFFFFFFFFFFFFFFFFFFFFFFFFFFFFFFFFFFFFFF AND EQ PUSH2 0x320 JUMPI PUSH1 0x40 MLOAD PUSH32 0x30CD747100000000000000000000000000000000000000000000000000000000 DUP2 MSTORE PUSH1 0x4 ADD PUSH1 0x40 MLOAD DUP1 SWAP2 SUB SWAP1 REVERT JUMPDEST PUSH0 JUMPDEST PUSH0 DUP1 SLOAD SWAP1 POP DUP2 LT ISZERO PUSH2 0x3BC JUMPI PUSH0 DUP1 DUP3 DUP2 SLOAD DUP2 LT PUSH2 0x342 JUMPI PUSH2 0x341 PUSH2 0x8D3 JUMP JUMPDEST JUMPDEST SWAP1 PUSH0 MSTORE PUSH1 0x20 PUSH0 KECCAK256 ADD PUSH0 SWAP1 SLOAD SWAP1 PUSH2 0x100 EXP SWAP1 DIV PUSH20 0xFFFFFFFFFFFFFFFFFFFFFFFFFFFFFFFFFFFFFFFF AND SWAP1 POP PUSH0 PUSH1 0x1 PUSH0 DUP4 PUSH20 0xFFFFFFFFFFFFFFFFFFFFFFFFFFFFFFFFFFFFFFFF AND PUSH20 0xFFFFFFFFFFFFFFFFFFFFFFFFFFFFFFFFFFFFFFFF AND DUP2 MSTORE PUSH1 0x20 ADD SWAP1 DUP2 MSTORE PUSH1 0x20 ADD PUSH0 KECCAK256 DUP2 SWAP1 SSTORE POP POP DUP1 DUP1 PUSH1 0x1 ADD SWAP2 POP POP PUSH2 0x322 JUMP JUMPDEST POP PUSH0 PUSH8 0xFFFFFFFFFFFFFFFF DUP2 GT ISZERO PUSH2 0x3D7 JUMPI PUSH2 0x3D6 PUSH2 0x900 JUMP JUMPDEST JUMPDEST PUSH1 0x40 MLOAD SWAP1 DUP1 DUP3 MSTORE DUP1 PUSH1 0x20 MUL PUSH1 0x20 ADD DUP3 ADD PUSH1 0x40 MSTORE DUP1 ISZERO PUSH2 0x405 JUMPI DUP2 PUSH1 0x20 ADD PUSH1 0x20 DUP3 MUL DUP1 CALLDATASIZE DUP4 CALLDATACOPY DUP1 DUP3 ADD SWAP2 POP POP SWAP1 POP JUMPDEST POP PUSH0 SWAP1 DUP1 MLOAD SWAP1 PUSH1 0x20 ADD SWAP1 PUSH2 0x41A SWAP3 SWAP2 SWAP1 PUSH2 0x622 JUMP JUMPDEST POP PUSH0 CALLER PUSH20 0xFFFFFFFFFFFFFFFFFFFFFFFFFFFFFFFFFFFFFFFF AND SELFBALANCE PUSH1 0x40 MLOAD PUSH2 0x440 SWAP1 PUSH2 0x95A JUMP JUMPDEST PUSH0 PUSH1 0x40 MLOAD DUP1 DUP4 SUB DUP2 DUP6 DUP8 GAS CALL SWAP3 POP POP POP RETURNDATASIZE DUP1 PUSH0 DUP2 EQ PUSH2 0x47A JUMPI PUSH1 0x40 MLOAD SWAP2 POP PUSH1 0x1F NOT PUSH1 0x3F RETURNDATASIZE ADD AND DUP3 ADD PUSH1 0x40 MSTORE RETURNDATASIZE DUP3 MSTORE RETURNDATASIZE PUSH0 PUSH1 0x20 DUP5 ADD RETURNDATACOPY PUSH2 0x47F JUMP JUMPDEST PUSH1 0x60 SWAP2 POP JUMPDEST POP POP SWAP1 POP DUP1 PUSH2 0x4C3 JUMPI PUSH1 0x40 MLOAD PUSH32 0x8C379A000000000000000000000000000000000000000000000000000000000 DUP2 MSTORE PUSH1 0x4 ADD PUSH2 0x4BA SWAP1 PUSH2 0x9B8 JUMP JUMPDEST PUSH1 0x40 MLOAD DUP1 SWAP2 SUB SWAP1 REVERT JUMPDEST POP JUMP JUMPDEST PUSH8 0x4563918244F40000 DUP2 JUMP JUMPDEST PUSH1 0x1 PUSH1 0x20 MSTORE DUP1 PUSH0 MSTORE PUSH1 0x40 PUSH0 KECCAK256 PUSH0 SWAP2 POP SWAP1 POP SLOAD DUP2 JUMP JUMPDEST PUSH32 0x0 DUP2 JUMP JUMPDEST PUSH0 DUP2 DUP2 SLOAD DUP2 LT PUSH2 0x519 JUMPI PUSH0 DUP1 REVERT JUMPDEST SWAP1 PUSH0 MSTORE PUSH1 0x20 PUSH0 KECCAK256 ADD PUSH0 SWAP2 POP SLOAD SWAP1 PUSH2 0x100 EXP SWAP1 DIV PUSH20 0xFFFFFFFFFFFFFFFFFFFFFFFFFFFFFFFFFFFFFFFF AND DUP2 JUMP JUMPDEST PUSH0 DUP1 PUSH2 0x54F PUSH2 0x57D JUMP JUMPDEST SWAP1 POP PUSH0 PUSH8 0xDE0B6B3A7640000 DUP3 DUP6 PUSH2 0x567 SWAP2 SWAP1 PUSH2 0x9D6 JUMP JUMPDEST PUSH2 0x571 SWAP2 SWAP1 PUSH2 0xA44 JUMP JUMPDEST SWAP1 POP DUP1 SWAP3 POP POP POP SWAP2 SWAP1 POP JUMP JUMPDEST PUSH0 DUP1 PUSH20 0x694AA1769357215DE4FAC081BF1F309ADC325306 SWAP1 POP PUSH0 DUP2 PUSH20 0xFFFFFFFFFFFFFFFFFFFFFFFFFFFFFFFFFFFFFFFF AND PUSH4 0xFEAF968C PUSH1 0x40 MLOAD DUP2 PUSH4 0xFFFFFFFF AND PUSH1 0xE0 SHL DUP2 MSTORE PUSH1 0x4 ADD PUSH1 0xA0 PUSH1 0x40 MLOAD DUP1 DUP4 SUB DUP2 DUP7 GAS STATICCALL ISZERO DUP1 ISZERO PUSH2 0x5E0 JUMPI RETURNDATASIZE PUSH0 DUP1 RETURNDATACOPY RETURNDATASIZE PUSH0 REVERT JUMPDEST POP POP POP POP PUSH1 0x40 MLOAD RETURNDATASIZE PUSH1 0x1F NOT PUSH1 0x1F DUP3 ADD AND DUP3 ADD DUP1 PUSH1 0x40 MSTORE POP DUP2 ADD SWAP1 PUSH2 0x604 SWAP2 SWAP1 PUSH2 0xAFA JUMP JUMPDEST POP POP POP SWAP2 POP POP PUSH5 0x2540BE400 DUP2 PUSH2 0x61B SWAP2 SWAP1 PUSH2 0xB71 JUMP JUMPDEST SWAP3 POP POP POP SWAP1 JUMP JUMPDEST DUP3 DUP1 SLOAD DUP3 DUP3 SSTORE SWAP1 PUSH0 MSTORE PUSH1 0x20 PUSH0 KECCAK256 SWAP1 DUP2 ADD SWAP3 DUP3 ISZERO PUSH2 0x698 JUMPI SWAP2 PUSH1 0x20 MUL DUP3 ADD JUMPDEST DUP3 DUP2 GT ISZERO PUSH2 0x697 JUMPI DUP3 MLOAD DUP3 PUSH0 PUSH2 0x100 EXP DUP2 SLOAD DUP2 PUSH20 0xFFFFFFFFFFFFFFFFFFFFFFFFFFFFFFFFFFFFFFFF MUL NOT AND SWAP1 DUP4 PUSH20 0xFFFFFFFFFFFFFFFFFFFFFFFFFFFFFFFFFFFFFFFF AND MUL OR SWAP1 SSTORE POP SWAP2 PUSH1 0x20 ADD SWAP2 SWAP1 PUSH1 0x1 ADD SWAP1 PUSH2 0x640 JUMP JUMPDEST JUMPDEST POP SWAP1 POP PUSH2 0x6A5 SWAP2 SWAP1 PUSH2 0x6A9 JUMP JUMPDEST POP SWAP1 JUMP JUMPDEST JUMPDEST DUP1 DUP3 GT ISZERO PUSH2 0x6C0 JUMPI PUSH0 DUP2 PUSH0 SWAP1 SSTORE POP PUSH1 0x1 ADD PUSH2 0x6AA JUMP JUMPDEST POP SWAP1 JUMP JUMPDEST PUSH0 DUP2 SWAP1 POP SWAP2 SWAP1 POP JUMP JUMPDEST PUSH2 0x6D6 DUP2 PUSH2 0x6C4 JUMP JUMPDEST DUP3 MSTORE POP POP JUMP JUMPDEST PUSH0 PUSH1 0x20 DUP3 ADD SWAP1 POP PUSH2 0x6EF PUSH0 DUP4 ADD DUP5 PUSH2 0x6CD JUMP JUMPDEST SWAP3 SWAP2 POP POP JUMP JUMPDEST PUSH0 DUP1 REVERT JUMPDEST PUSH0 PUSH20 0xFFFFFFFFFFFFFFFFFFFFFFFFFFFFFFFFFFFFFFFF DUP3 AND SWAP1 POP SWAP2 SWAP1 POP JUMP JUMPDEST PUSH0 PUSH2 0x722 DUP3 PUSH2 0x6F9 JUMP JUMPDEST SWAP1 POP SWAP2 SWAP1 POP JUMP JUMPDEST PUSH2 0x732 DUP2 PUSH2 0x718 JUMP JUMPDEST DUP2 EQ PUSH2 0x73C JUMPI PUSH0 DUP1 REVERT JUMPDEST POP JUMP JUMPDEST PUSH0 DUP2 CALLDATALOAD SWAP1 POP PUSH2 0x74D DUP2 PUSH2 0x729 JUMP JUMPDEST SWAP3 SWAP2 POP POP JUMP JUMPDEST PUSH0 PUSH1 0x20 DUP3 DUP5 SUB SLT ISZERO PUSH2 0x768 JUMPI PUSH2 0x767 PUSH2 0x6F5 JUMP JUMPDEST JUMPDEST PUSH0 PUSH2 0x775 DUP5 DUP3 DUP6 ADD PUSH2 0x73F JUMP JUMPDEST SWAP2 POP POP SWAP3 SWAP2 POP POP JUMP JUMPDEST PUSH2 0x787 DUP2 PUSH2 0x718 JUMP JUMPDEST DUP3 MSTORE POP POP JUMP JUMPDEST PUSH0 PUSH1 0x20 DUP3 ADD SWAP1 POP PUSH2 0x7A0 PUSH0 DUP4 ADD DUP5 PUSH2 0x77E JUMP JUMPDEST SWAP3 SWAP2 POP POP JUMP JUMPDEST PUSH2 0x7AF DUP2 PUSH2 0x6C4 JUMP JUMPDEST DUP2 EQ PUSH2 0x7B9 JUMPI PUSH0 DUP1 REVERT JUMPDEST POP JUMP JUMPDEST PUSH0 DUP2 CALLDATALOAD SWAP1 POP PUSH2 0x7CA DUP2 PUSH2 0x7A6 JUMP JUMPDEST SWAP3 SWAP2 POP POP JUMP JUMPDEST PUSH0 PUSH1 0x20 DUP3 DUP5 SUB SLT ISZERO PUSH2 0x7E5 JUMPI PUSH2 0x7E4 PUSH2 0x6F5 JUMP JUMPDEST JUMPDEST PUSH0 PUSH2 0x7F2 DUP5 DUP3 DUP6 ADD PUSH2 0x7BC JUMP JUMPDEST SWAP2 POP POP SWAP3 SWAP2 POP POP JUMP JUMPDEST PUSH0 DUP3 DUP3 MSTORE PUSH1 0x20 DUP3 ADD SWAP1 POP SWAP3 SWAP2 POP POP JUMP JUMPDEST PUSH32 0x6E6F7420656E6F7567682045544820616D6F756E742100000000000000000000 PUSH0 DUP3 ADD MSTORE POP JUMP JUMPDEST PUSH0 PUSH2 0x83F PUSH1 0x16 DUP4 PUSH2 0x7FB JUMP JUMPDEST SWAP2 POP PUSH2 0x84A DUP3 PUSH2 0x80B JUMP JUMPDEST PUSH1 0x20 DUP3 ADD SWAP1 POP SWAP2 SWAP1 POP JUMP JUMPDEST PUSH0 PUSH1 0x20 DUP3 ADD SWAP1 POP DUP2 DUP2 SUB PUSH0 DUP4 ADD MSTORE PUSH2 0x86C DUP2 PUSH2 0x833 JUMP JUMPDEST SWAP1 POP SWAP2 SWAP1 POP JUMP JUMPDEST PUSH32 0x4E487B7100000000000000000000000000000000000000000000000000000000 PUSH0 MSTORE PUSH1 0x11 PUSH1 0x4 MSTORE PUSH1 0x24 PUSH0 REVERT JUMPDEST PUSH0 PUSH2 0x8AA DUP3 PUSH2 0x6C4 JUMP JUMPDEST SWAP2 POP PUSH2 0x8B5 DUP4 PUSH2 0x6C4 JUMP JUMPDEST SWAP3 POP DUP3 DUP3 ADD SWAP1 POP DUP1 DUP3 GT ISZERO PUSH2 0x8CD JUMPI PUSH2 0x8CC PUSH2 0x873 JUMP JUMPDEST JUMPDEST SWAP3 SWAP2 POP POP JUMP JUMPDEST PUSH32 0x4E487B7100000000000000000000000000000000000000000000000000000000 PUSH0 MSTORE PUSH1 0x32 PUSH1 0x4 MSTORE PUSH1 0x24 PUSH0 REVERT JUMPDEST PUSH32 0x4E487B7100000000000000000000000000000000000000000000000000000000 PUSH0 MSTORE PUSH1 0x41 PUSH1 0x4 MSTORE PUSH1 0x24 PUSH0 REVERT JUMPDEST PUSH0 DUP2 SWAP1 POP SWAP3 SWAP2 POP POP JUMP JUMPDEST POP JUMP JUMPDEST PUSH0 PUSH2 0x945 PUSH0 DUP4 PUSH2 0x92D JUMP JUMPDEST SWAP2 POP PUSH2 0x950 DUP3 PUSH2 0x937 JUMP JUMPDEST PUSH0 DUP3 ADD SWAP1 POP SWAP2 SWAP1 POP JUMP JUMPDEST PUSH0 PUSH2 0x964 DUP3 PUSH2 0x93A JUMP JUMPDEST SWAP2 POP DUP2 SWAP1 POP SWAP2 SWAP1 POP JUMP JUMPDEST PUSH32 0x43616C6C206661696C6564000000000000000000000000000000000000000000 PUSH0 DUP3 ADD MSTORE POP JUMP JUMPDEST PUSH0 PUSH2 0x9A2 PUSH1 0xB DUP4 PUSH2 0x7FB JUMP JUMPDEST SWAP2 POP PUSH2 0x9AD DUP3 PUSH2 0x96E JUMP JUMPDEST PUSH1 0x20 DUP3 ADD SWAP1 POP SWAP2 SWAP1 POP JUMP JUMPDEST PUSH0 PUSH1 0x20 DUP3 ADD SWAP1 POP DUP2 DUP2 SUB PUSH0 DUP4 ADD MSTORE PUSH2 0x9CF DUP2 PUSH2 0x996 JUMP JUMPDEST SWAP1 POP SWAP2 SWAP1 POP JUMP JUMPDEST PUSH0 PUSH2 0x9E0 DUP3 PUSH2 0x6C4 JUMP JUMPDEST SWAP2 POP PUSH2 0x9EB DUP4 PUSH2 0x6C4 JUMP JUMPDEST SWAP3 POP DUP3 DUP3 MUL PUSH2 0x9F9 DUP2 PUSH2 0x6C4 JUMP JUMPDEST SWAP2 POP DUP3 DUP3 DIV DUP5 EQ DUP4 ISZERO OR PUSH2 0xA10 JUMPI PUSH2 0xA0F PUSH2 0x873 JUMP JUMPDEST JUMPDEST POP SWAP3 SWAP2 POP POP JUMP JUMPDEST PUSH32 0x4E487B7100000000000000000000000000000000000000000000000000000000 PUSH0 MSTORE PUSH1 0x12 PUSH1 0x4 MSTORE PUSH1 0x24 PUSH0 REVERT JUMPDEST PUSH0 PUSH2 0xA4E DUP3 PUSH2 0x6C4 JUMP JUMPDEST SWAP2 POP PUSH2 0xA59 DUP4 PUSH2 0x6C4 JUMP JUMPDEST SWAP3 POP DUP3 PUSH2 0xA69 JUMPI PUSH2 0xA68 PUSH2 0xA17 JUMP JUMPDEST JUMPDEST DUP3 DUP3 DIV SWAP1 POP SWAP3 SWAP2 POP POP JUMP JUMPDEST PUSH0 PUSH10 0xFFFFFFFFFFFFFFFFFFFF DUP3 AND SWAP1 POP SWAP2 SWAP1 POP JUMP JUMPDEST PUSH2 0xA92 DUP2 PUSH2 0xA74 JUMP JUMPDEST DUP2 EQ PUSH2 0xA9C JUMPI PUSH0 DUP1 REVERT JUMPDEST POP JUMP JUMPDEST PUSH0 DUP2 MLOAD SWAP1 POP PUSH2 0xAAD DUP2 PUSH2 0xA89 JUMP JUMPDEST SWAP3 SWAP2 POP POP JUMP JUMPDEST PUSH0 DUP2 SWAP1 POP SWAP2 SWAP1 POP JUMP JUMPDEST PUSH2 0xAC5 DUP2 PUSH2 0xAB3 JUMP JUMPDEST DUP2 EQ PUSH2 0xACF JUMPI PUSH0 DUP1 REVERT JUMPDEST POP JUMP JUMPDEST PUSH0 DUP2 MLOAD SWAP1 POP PUSH2 0xAE0 DUP2 PUSH2 0xABC JUMP JUMPDEST SWAP3 SWAP2 POP POP JUMP JUMPDEST PUSH0 DUP2 MLOAD SWAP1 POP PUSH2 0xAF4 DUP2 PUSH2 0x7A6 JUMP JUMPDEST SWAP3 SWAP2 POP POP JUMP JUMPDEST PUSH0 DUP1 PUSH0 DUP1 PUSH0 PUSH1 0xA0 DUP7 DUP9 SUB SLT ISZERO PUSH2 0xB13 JUMPI PUSH2 0xB12 PUSH2 0x6F5 JUMP JUMPDEST JUMPDEST PUSH0 PUSH2 0xB20 DUP9 DUP3 DUP10 ADD PUSH2 0xA9F JUMP JUMPDEST SWAP6 POP POP PUSH1 0x20 PUSH2 0xB31 DUP9 DUP3 DUP10 ADD PUSH2 0xAD2 JUMP JUMPDEST SWAP5 POP POP PUSH1 0x40 PUSH2 0xB42 DUP9 DUP3 DUP10 ADD PUSH2 0xAE6 JUMP JUMPDEST SWAP4 POP POP PUSH1 0x60 PUSH2 0xB53 DUP9 DUP3 DUP10 ADD PUSH2 0xAE6 JUMP JUMPDEST SWAP3 POP POP PUSH1 0x80 PUSH2 0xB64 DUP9 DUP3 DUP10 ADD PUSH2 0xA9F JUMP JUMPDEST SWAP2 POP POP SWAP3 SWAP6 POP SWAP3 SWAP6 SWAP1 SWAP4 POP JUMP JUMPDEST PUSH0 PUSH2 0xB7B DUP3 PUSH2 0xAB3 JUMP JUMPDEST SWAP2 POP PUSH2 0xB86 DUP4 PUSH2 0xAB3 JUMP JUMPDEST SWAP3 POP DUP3 DUP3 MUL PUSH2 0xB94 DUP2 PUSH2 0xAB3 JUMP JUMPDEST SWAP2 POP PUSH32 0x8000000000000000000000000000000000000000000000000000000000000000 DUP5 EQ PUSH0 DUP5 SLT AND ISZERO PUSH2 0xBCB JUMPI PUSH2 0xBCA PUSH2 0x873 JUMP JUMPDEST JUMPDEST DUP3 DUP3 SDIV DUP5 EQ DUP4 ISZERO OR PUSH2 0xBE0 JUMPI PUSH2 0xBDF PUSH2 0x873 JUMP JUMPDEST JUMPDEST POP SWAP3 SWAP2 POP POP JUMP INVALID LOG2 PUSH5 0x6970667358 0x22 SLT KECCAK256 0x29 EXTCODECOPY 0x21 0xDE PUSH11 0x17C84341B5FCCF34A16531 SUB 0x26 PUSH13 0xFCFDE6FAA3F877626B209E781F PUSH5 0x736F6C6343 STOP ADDMOD BYTE STOP CALLER "
				},
				"gasEstimates": {
					"creation": {
						"codeDepositCost": "620200",
						"executionCost": "infinite",
						"totalCost": "infinite"
					},
					"external": {
						"": "infinite",
						"Fund()": "infinite",
						"MINIMUM_USD()": "325",
						"Withdraw()": "infinite",
						"funders(uint256)": "5031",
						"fundsRaisedByAddress(address)": "2846",
						"i_owner()": "infinite"
					}
				},
				"methodIdentifiers": {
					"Fund()": "6ce1417e",
					"MINIMUM_USD()": "6b69a592",
					"Withdraw()": "57ea89b6",
					"funders(uint256)": "dc0d3dff",
					"fundsRaisedByAddress(address)": "b804f81f",
					"i_owner()": "dba6335f"
				}
			},
			"storageLayout": {
				"storage": [
					{
						"astId": 60,
						"contract": "FundMe.sol:FundMe",
						"label": "funders",
						"offset": 0,
						"slot": "0",
						"type": "t_array(t_address)dyn_storage"
					},
					{
						"astId": 64,
						"contract": "FundMe.sol:FundMe",
						"label": "fundsRaisedByAddress",
						"offset": 0,
						"slot": "1",
						"type": "t_mapping(t_address,t_uint256)"
					}
				],
				"types": {
					"t_address": {
						"encoding": "inplace",
						"label": "address",
						"numberOfBytes": "20"
					},
					"t_array(t_address)dyn_storage": {
						"base": "t_address",
						"encoding": "dynamic_array",
						"label": "address[]",
						"numberOfBytes": "32"
					},
					"t_mapping(t_address,t_uint256)": {
						"encoding": "mapping",
						"key": "t_address",
						"label": "mapping(address => uint256)",
						"numberOfBytes": "32",
						"value": "t_uint256"
					},
					"t_uint256": {
						"encoding": "inplace",
						"label": "uint256",
						"numberOfBytes": "32"
					}
				}
			},
			"userdoc": {
				"kind": "user",
				"methods": {},
				"version": 1
			}
		}
	}
}