{
	"FundMe.sol": {
		"FundMe": {
			"abi": [
				{
					"inputs": [],
					"name": "Fund",
					"outputs": [],
					"stateMutability": "payable",
					"type": "function"
				},
				{
					"inputs": [],
					"name": "Withdraw",
					"outputs": [],
					"stateMutability": "nonpayable",
					"type": "function"
				},
				{
					"inputs": [
						{
							"internalType": "uint256",
							"name": "",
							"type": "uint256"
						}
					],
					"name": "funders",
					"outputs": [
						{
							"internalType": "address",
							"name": "",
							"type": "address"
						}
					],
					"stateMutability": "view",
					"type": "function"
				},
				{
					"inputs": [
						{
							"internalType": "address",
							"name": "funder",
							"type": "address"
						}
					],
					"name": "fundsRaisedByAddress",
					"outputs": [
						{
							"internalType": "uint256",
							"name": "amountRaised",
							"type": "uint256"
						}
					],
					"stateMutability": "view",
					"type": "function"
				},
				{
					"inputs": [],
					"name": "minimumUsd",
					"outputs": [
						{
							"internalType": "uint256",
							"name": "",
							"type": "uint256"
						}
					],
					"stateMutability": "view",
					"type": "function"
				},
				{
					"inputs": [],
					"name": "myValue",
					"outputs": [
						{
							"internalType": "uint256",
							"name": "",
							"type": "uint256"
						}
					],
					"stateMutability": "view",
					"type": "function"
				}
			],
			"devdoc": {
				"kind": "dev",
				"methods": {},
				"version": 1
			},
			"evm": {
				"assembly": "    /* \"FundMe.sol\":147:2663  contract FundMe {... */\n  mstore(0x40, 0x80)\n    /* \"FundMe.sol\":545:546  1 */\n  0x01\n    /* \"FundMe.sol\":520:546  uint256 public myValue = 1 */\n  0x00\n  sstore\n    /* \"FundMe.sol\":621:625  5e18 */\n  0x4563918244f40000\n    /* \"FundMe.sol\":593:625  uint256 public minimumUsd = 5e18 */\n  0x01\n  sstore\n    /* \"FundMe.sol\":147:2663  contract FundMe {... */\n  callvalue\n  dup1\n  iszero\n  tag_1\n  jumpi\n  0x00\n  dup1\n  revert\ntag_1:\n  pop\n  dataSize(sub_0)\n  dup1\n  dataOffset(sub_0)\n  0x00\n  codecopy\n  0x00\n  return\nstop\n\nsub_0: assembly {\n        /* \"FundMe.sol\":147:2663  contract FundMe {... */\n      mstore(0x40, 0x80)\n      jumpi(tag_1, lt(calldatasize, 0x04))\n      shr(0xe0, calldataload(0x00))\n      dup1\n      0x098de820\n      eq\n      tag_2\n      jumpi\n      dup1\n      0x47f1aae7\n      eq\n      tag_3\n      jumpi\n      dup1\n      0x57ea89b6\n      eq\n      tag_4\n      jumpi\n      dup1\n      0x6ce1417e\n      eq\n      tag_5\n      jumpi\n      dup1\n      0xb804f81f\n      eq\n      tag_6\n      jumpi\n      dup1\n      0xdc0d3dff\n      eq\n      tag_7\n      jumpi\n    tag_1:\n      0x00\n      dup1\n      revert\n        /* \"FundMe.sol\":593:625  uint256 public minimumUsd = 5e18 */\n    tag_2:\n      callvalue\n      dup1\n      iszero\n      tag_8\n      jumpi\n      0x00\n      dup1\n      revert\n    tag_8:\n      pop\n      tag_9\n      tag_10\n      jump\t// in\n    tag_9:\n      mload(0x40)\n      tag_11\n      swap2\n      swap1\n      tag_12\n      jump\t// in\n    tag_11:\n      mload(0x40)\n      dup1\n      swap2\n      sub\n      swap1\n      return\n        /* \"FundMe.sol\":520:546  uint256 public myValue = 1 */\n    tag_3:\n      callvalue\n      dup1\n      iszero\n      tag_13\n      jumpi\n      0x00\n      dup1\n      revert\n    tag_13:\n      pop\n      tag_14\n      tag_15\n      jump\t// in\n    tag_14:\n      mload(0x40)\n      tag_16\n      swap2\n      swap1\n      tag_12\n      jump\t// in\n    tag_16:\n      mload(0x40)\n      dup1\n      swap2\n      sub\n      swap1\n      return\n        /* \"FundMe.sol\":2303:2653  function Withdraw() public  {... */\n    tag_4:\n      callvalue\n      dup1\n      iszero\n      tag_17\n      jumpi\n      0x00\n      dup1\n      revert\n    tag_17:\n      pop\n      tag_18\n      tag_19\n      jump\t// in\n    tag_18:\n      stop\n        /* \"FundMe.sol\":976:2295  function Fund() public payable {... */\n    tag_5:\n      tag_20\n      tag_21\n      jump\t// in\n    tag_20:\n      stop\n        /* \"FundMe.sol\":775:851  mapping (address funder => uint256 amountRaised) public fundsRaisedByAddress */\n    tag_6:\n      callvalue\n      dup1\n      iszero\n      tag_22\n      jumpi\n      0x00\n      dup1\n      revert\n    tag_22:\n      pop\n      tag_23\n      0x04\n      dup1\n      calldatasize\n      sub\n      dup2\n      add\n      swap1\n      tag_24\n      swap2\n      swap1\n      tag_25\n      jump\t// in\n    tag_24:\n      tag_26\n      jump\t// in\n    tag_23:\n      mload(0x40)\n      tag_27\n      swap2\n      swap1\n      tag_12\n      jump\t// in\n    tag_27:\n      mload(0x40)\n      dup1\n      swap2\n      sub\n      swap1\n      return\n        /* \"FundMe.sol\":704:728  address[] public funders */\n    tag_7:\n      callvalue\n      dup1\n      iszero\n      tag_28\n      jumpi\n      0x00\n      dup1\n      revert\n    tag_28:\n      pop\n      tag_29\n      0x04\n      dup1\n      calldatasize\n      sub\n      dup2\n      add\n      swap1\n      tag_30\n      swap2\n      swap1\n      tag_31\n      jump\t// in\n    tag_30:\n      tag_32\n      jump\t// in\n    tag_29:\n      mload(0x40)\n      tag_33\n      swap2\n      swap1\n      tag_34\n      jump\t// in\n    tag_33:\n      mload(0x40)\n      dup1\n      swap2\n      sub\n      swap1\n      return\n        /* \"FundMe.sol\":593:625  uint256 public minimumUsd = 5e18 */\n    tag_10:\n      sload(0x01)\n      dup2\n      jump\t// out\n        /* \"FundMe.sol\":520:546  uint256 public myValue = 1 */\n    tag_15:\n      sload(0x00)\n      dup2\n      jump\t// out\n        /* \"FundMe.sol\":2303:2653  function Withdraw() public  {... */\n    tag_19:\n        /* \"FundMe.sol\":2347:2366  uint256 funderIndex */\n      0x00\n        /* \"FundMe.sol\":2342:2646  for (uint256 funderIndex; funderIndex < funders.length; funderIndex++) ... */\n    tag_36:\n        /* \"FundMe.sol\":2382:2389  funders */\n      0x02\n        /* \"FundMe.sol\":2382:2396  funders.length */\n      dup1\n      sload\n      swap1\n      pop\n        /* \"FundMe.sol\":2368:2379  funderIndex */\n      dup2\n        /* \"FundMe.sol\":2368:2396  funderIndex < funders.length */\n      lt\n        /* \"FundMe.sol\":2342:2646  for (uint256 funderIndex; funderIndex < funders.length; funderIndex++) ... */\n      iszero\n      tag_37\n      jumpi\n        /* \"FundMe.sol\":2438:2452  address funder */\n      0x00\n        /* \"FundMe.sol\":2455:2462  funders */\n      0x02\n        /* \"FundMe.sol\":2463:2474  funderIndex */\n      dup3\n        /* \"FundMe.sol\":2455:2475  funders[funderIndex] */\n      dup2\n      sload\n      dup2\n      lt\n      tag_39\n      jumpi\n      tag_40\n      tag_41\n      jump\t// in\n    tag_40:\n    tag_39:\n      swap1\n      0x00\n      mstore\n      keccak256(0x00, 0x20)\n      add\n      0x00\n      swap1\n      sload\n      swap1\n      0x0100\n      exp\n      swap1\n      div\n      0xffffffffffffffffffffffffffffffffffffffff\n      and\n        /* \"FundMe.sol\":2438:2475  address funder = funders[funderIndex] */\n      swap1\n      pop\n        /* \"FundMe.sol\":2559:2560  0 */\n      0x00\n        /* \"FundMe.sol\":2528:2548  fundsRaisedByAddress */\n      0x03\n        /* \"FundMe.sol\":2528:2556  fundsRaisedByAddress[funder] */\n      0x00\n        /* \"FundMe.sol\":2549:2555  funder */\n      dup4\n        /* \"FundMe.sol\":2528:2556  fundsRaisedByAddress[funder] */\n      0xffffffffffffffffffffffffffffffffffffffff\n      and\n      0xffffffffffffffffffffffffffffffffffffffff\n      and\n      dup2\n      mstore\n      0x20\n      add\n      swap1\n      dup2\n      mstore\n      0x20\n      add\n      0x00\n      keccak256\n        /* \"FundMe.sol\":2528:2560  fundsRaisedByAddress[funder] = 0 */\n      dup2\n      swap1\n      sstore\n      pop\n        /* \"FundMe.sol\":2423:2646  {... */\n      pop\n        /* \"FundMe.sol\":2398:2411  funderIndex++ */\n      dup1\n      dup1\n      0x01\n      add\n      swap2\n      pop\n      pop\n        /* \"FundMe.sol\":2342:2646  for (uint256 funderIndex; funderIndex < funders.length; funderIndex++) ... */\n      jump(tag_36)\n    tag_37:\n      pop\n        /* \"FundMe.sol\":2303:2653  function Withdraw() public  {... */\n      jump\t// out\n        /* \"FundMe.sol\":976:2295  function Fund() public payable {... */\n    tag_21:\n        /* \"FundMe.sol\":1108:1109  2 */\n      0x02\n        /* \"FundMe.sol\":1099:1106  myValue */\n      sload(0x00)\n        /* \"FundMe.sol\":1099:1109  myValue +2 */\n      tag_44\n      swap2\n      swap1\n      tag_45\n      jump\t// in\n    tag_44:\n        /* \"FundMe.sol\":1089:1096  myValue */\n      0x00\n        /* \"FundMe.sol\":1089:1109  myValue = myValue +2 */\n      dup2\n      swap1\n      sstore\n      pop\n        /* \"FundMe.sol\":1529:1539  minimumUsd */\n      sload(0x01)\n        /* \"FundMe.sol\":1496:1525  msg.value.getConversionRate() */\n      tag_46\n        /* \"FundMe.sol\":1496:1505  msg.value */\n      callvalue\n        /* \"FundMe.sol\":1496:1523  msg.value.getConversionRate */\n      tag_47\n        /* \"FundMe.sol\":1496:1525  msg.value.getConversionRate() */\n      jump\t// in\n    tag_46:\n        /* \"FundMe.sol\":1496:1539  msg.value.getConversionRate() >= minimumUsd */\n      lt\n      iszero\n        /* \"FundMe.sol\":1488:1566  require(msg.value.getConversionRate() >= minimumUsd, \"not enough ETH amount!\") */\n      tag_48\n      jumpi\n      mload(0x40)\n      0x08c379a000000000000000000000000000000000000000000000000000000000\n      dup2\n      mstore\n      0x04\n      add\n      tag_49\n      swap1\n      tag_50\n      jump\t// in\n    tag_49:\n      mload(0x40)\n      dup1\n      swap2\n      sub\n      swap1\n      revert\n    tag_48:\n        /* \"FundMe.sol\":1872:1879  funders */\n      0x02\n        /* \"FundMe.sol\":1885:1895  msg.sender */\n      caller\n        /* \"FundMe.sol\":1872:1896  funders.push(msg.sender) */\n      swap1\n      dup1\n      0x01\n      dup2\n      sload\n      add\n      dup1\n      dup3\n      sstore\n      dup1\n      swap2\n      pop\n      pop\n      0x01\n      swap1\n      sub\n      swap1\n      0x00\n      mstore\n      keccak256(0x00, 0x20)\n      add\n      0x00\n      swap1\n      swap2\n      swap1\n      swap2\n      swap1\n      swap2\n      0x0100\n      exp\n      dup2\n      sload\n      dup2\n      0xffffffffffffffffffffffffffffffffffffffff\n      mul\n      not\n      and\n      swap1\n      dup4\n      0xffffffffffffffffffffffffffffffffffffffff\n      and\n      mul\n      or\n      swap1\n      sstore\n      pop\n        /* \"FundMe.sol\":2025:2034  msg.value */\n      callvalue\n        /* \"FundMe.sol\":1990:2010  fundsRaisedByAddress */\n      0x03\n        /* \"FundMe.sol\":1990:2022  fundsRaisedByAddress[msg.sender] */\n      0x00\n        /* \"FundMe.sol\":2011:2021  msg.sender */\n      caller\n        /* \"FundMe.sol\":1990:2022  fundsRaisedByAddress[msg.sender] */\n      0xffffffffffffffffffffffffffffffffffffffff\n      and\n      0xffffffffffffffffffffffffffffffffffffffff\n      and\n      dup2\n      mstore\n      0x20\n      add\n      swap1\n      dup2\n      mstore\n      0x20\n      add\n      0x00\n      keccak256\n      sload\n        /* \"FundMe.sol\":1990:2034  fundsRaisedByAddress[msg.sender] + msg.value */\n      tag_52\n      swap2\n      swap1\n      tag_45\n      jump\t// in\n    tag_52:\n        /* \"FundMe.sol\":1955:1975  fundsRaisedByAddress */\n      0x03\n        /* \"FundMe.sol\":1955:1987  fundsRaisedByAddress[msg.sender] */\n      0x00\n        /* \"FundMe.sol\":1976:1986  msg.sender */\n      caller\n        /* \"FundMe.sol\":1955:1987  fundsRaisedByAddress[msg.sender] */\n      0xffffffffffffffffffffffffffffffffffffffff\n      and\n      0xffffffffffffffffffffffffffffffffffffffff\n      and\n      dup2\n      mstore\n      0x20\n      add\n      swap1\n      dup2\n      mstore\n      0x20\n      add\n      0x00\n      keccak256\n        /* \"FundMe.sol\":1955:2034  fundsRaisedByAddress[msg.sender] = fundsRaisedByAddress[msg.sender] + msg.value */\n      dup2\n      swap1\n      sstore\n      pop\n        /* \"FundMe.sol\":976:2295  function Fund() public payable {... */\n      jump\t// out\n        /* \"FundMe.sol\":775:851  mapping (address funder => uint256 amountRaised) public fundsRaisedByAddress */\n    tag_26:\n      mstore(0x20, 0x03)\n      dup1\n      0x00\n      mstore\n      keccak256(0x00, 0x40)\n      0x00\n      swap2\n      pop\n      swap1\n      pop\n      sload\n      dup2\n      jump\t// out\n        /* \"FundMe.sol\":704:728  address[] public funders */\n    tag_32:\n      0x02\n      dup2\n      dup2\n      sload\n      dup2\n      lt\n      tag_53\n      jumpi\n      0x00\n      dup1\n      revert\n    tag_53:\n      swap1\n      0x00\n      mstore\n      keccak256(0x00, 0x20)\n      add\n      0x00\n      swap2\n      pop\n      sload\n      swap1\n      0x0100\n      exp\n      swap1\n      div\n      0xffffffffffffffffffffffffffffffffffffffff\n      and\n      dup2\n      jump\t// out\n        /* \"PriceConvertor.sol\":1201:1746  function getConversionRate(uint ethAmount) internal  view returns (uint256) {... */\n    tag_47:\n        /* \"PriceConvertor.sol\":1268:1275  uint256 */\n      0x00\n        /* \"PriceConvertor.sol\":1288:1304  uint256 ethPrice */\n      dup1\n        /* \"PriceConvertor.sol\":1307:1317  getPrice() */\n      tag_56\n        /* \"PriceConvertor.sol\":1307:1315  getPrice */\n      tag_57\n        /* \"PriceConvertor.sol\":1307:1317  getPrice() */\n      jump\t// in\n    tag_56:\n        /* \"PriceConvertor.sol\":1288:1317  uint256 ethPrice = getPrice() */\n      swap1\n      pop\n        /* \"PriceConvertor.sol\":1588:1610  uint256 ethAmountInUsd */\n      0x00\n        /* \"PriceConvertor.sol\":1636:1640  1e18 */\n      0x0de0b6b3a7640000\n        /* \"PriceConvertor.sol\":1626:1634  ethPrice */\n      dup3\n        /* \"PriceConvertor.sol\":1614:1623  ethAmount */\n      dup6\n        /* \"PriceConvertor.sol\":1614:1634  ethAmount * ethPrice */\n      tag_58\n      swap2\n      swap1\n      tag_59\n      jump\t// in\n    tag_58:\n        /* \"PriceConvertor.sol\":1613:1640  (ethAmount * ethPrice)/1e18 */\n      tag_60\n      swap2\n      swap1\n      tag_61\n      jump\t// in\n    tag_60:\n        /* \"PriceConvertor.sol\":1588:1640  uint256 ethAmountInUsd = (ethAmount * ethPrice)/1e18 */\n      swap1\n      pop\n        /* \"PriceConvertor.sol\":1724:1738  ethAmountInUsd */\n      dup1\n        /* \"PriceConvertor.sol\":1717:1738  return ethAmountInUsd */\n      swap3\n      pop\n      pop\n      pop\n        /* \"PriceConvertor.sol\":1201:1746  function getConversionRate(uint ethAmount) internal  view returns (uint256) {... */\n      swap2\n      swap1\n      pop\n      jump\t// out\n        /* \"PriceConvertor.sol\":214:1193  function getPrice() internal  view returns (uint256){... */\n    tag_57:\n        /* \"PriceConvertor.sol\":258:265  uint256 */\n      0x00\n        /* \"PriceConvertor.sol\":437:468  AggregatorV3Interface priceFeed */\n      dup1\n        /* \"PriceConvertor.sol\":493:535  0x694AA1769357215DE4FAC081bf1f309aDC325306 */\n      0x694aa1769357215de4fac081bf1f309adc325306\n        /* \"PriceConvertor.sol\":437:536  AggregatorV3Interface priceFeed = AggregatorV3Interface(0x694AA1769357215DE4FAC081bf1f309aDC325306) */\n      swap1\n      pop\n        /* \"PriceConvertor.sol\":744:756  int256 price */\n      0x00\n        /* \"PriceConvertor.sol\":882:891  priceFeed */\n      dup2\n        /* \"PriceConvertor.sol\":882:907  priceFeed.latestRoundData */\n      0xffffffffffffffffffffffffffffffffffffffff\n      and\n      0xfeaf968c\n        /* \"PriceConvertor.sol\":882:909  priceFeed.latestRoundData() */\n      mload(0x40)\n      dup2\n      0xffffffff\n      and\n      0xe0\n      shl\n      dup2\n      mstore\n      0x04\n      add\n      0xa0\n      mload(0x40)\n      dup1\n      dup4\n      sub\n      dup2\n      dup7\n      gas\n      staticcall\n      iszero\n      dup1\n      iszero\n      tag_64\n      jumpi\n      returndatasize\n      0x00\n      dup1\n      returndatacopy\n      revert(0x00, returndatasize)\n    tag_64:\n      pop\n      pop\n      pop\n      pop\n      mload(0x40)\n      returndatasize\n      not(0x1f)\n      0x1f\n      dup3\n      add\n      and\n      dup3\n      add\n      dup1\n      0x40\n      mstore\n      pop\n      dup2\n      add\n      swap1\n      tag_65\n      swap2\n      swap1\n      tag_66\n      jump\t// in\n    tag_65:\n        /* \"PriceConvertor.sol\":694:909  (... */\n      pop\n      pop\n      pop\n      swap2\n      pop\n      pop\n        /* \"PriceConvertor.sol\":1156:1160  1e10 */\n      0x02540be400\n        /* \"PriceConvertor.sol\":1148:1153  price */\n      dup2\n        /* \"PriceConvertor.sol\":1148:1160  price * 1e10 */\n      tag_67\n      swap2\n      swap1\n      tag_68\n      jump\t// in\n    tag_67:\n        /* \"PriceConvertor.sol\":1133:1161  return uint256(price * 1e10) */\n      swap3\n      pop\n      pop\n      pop\n        /* \"PriceConvertor.sol\":214:1193  function getPrice() internal  view returns (uint256){... */\n      swap1\n      jump\t// out\n        /* \"#utility.yul\":7:84   */\n    tag_69:\n        /* \"#utility.yul\":44:51   */\n      0x00\n        /* \"#utility.yul\":73:78   */\n      dup2\n        /* \"#utility.yul\":62:78   */\n      swap1\n      pop\n        /* \"#utility.yul\":7:84   */\n      swap2\n      swap1\n      pop\n      jump\t// out\n        /* \"#utility.yul\":90:208   */\n    tag_70:\n        /* \"#utility.yul\":177:201   */\n      tag_96\n        /* \"#utility.yul\":195:200   */\n      dup2\n        /* \"#utility.yul\":177:201   */\n      tag_69\n      jump\t// in\n    tag_96:\n        /* \"#utility.yul\":172:175   */\n      dup3\n        /* \"#utility.yul\":165:202   */\n      mstore\n        /* \"#utility.yul\":90:208   */\n      pop\n      pop\n      jump\t// out\n        /* \"#utility.yul\":214:436   */\n    tag_12:\n        /* \"#utility.yul\":307:311   */\n      0x00\n        /* \"#utility.yul\":345:347   */\n      0x20\n        /* \"#utility.yul\":334:343   */\n      dup3\n        /* \"#utility.yul\":330:348   */\n      add\n        /* \"#utility.yul\":322:348   */\n      swap1\n      pop\n        /* \"#utility.yul\":358:429   */\n      tag_98\n        /* \"#utility.yul\":426:427   */\n      0x00\n        /* \"#utility.yul\":415:424   */\n      dup4\n        /* \"#utility.yul\":411:428   */\n      add\n        /* \"#utility.yul\":402:408   */\n      dup5\n        /* \"#utility.yul\":358:429   */\n      tag_70\n      jump\t// in\n    tag_98:\n        /* \"#utility.yul\":214:436   */\n      swap3\n      swap2\n      pop\n      pop\n      jump\t// out\n        /* \"#utility.yul\":523:640   */\n    tag_72:\n        /* \"#utility.yul\":632:633   */\n      0x00\n        /* \"#utility.yul\":629:630   */\n      dup1\n        /* \"#utility.yul\":622:634   */\n      revert\n        /* \"#utility.yul\":769:895   */\n    tag_74:\n        /* \"#utility.yul\":806:813   */\n      0x00\n        /* \"#utility.yul\":846:888   */\n      0xffffffffffffffffffffffffffffffffffffffff\n        /* \"#utility.yul\":839:844   */\n      dup3\n        /* \"#utility.yul\":835:889   */\n      and\n        /* \"#utility.yul\":824:889   */\n      swap1\n      pop\n        /* \"#utility.yul\":769:895   */\n      swap2\n      swap1\n      pop\n      jump\t// out\n        /* \"#utility.yul\":901:997   */\n    tag_75:\n        /* \"#utility.yul\":938:945   */\n      0x00\n        /* \"#utility.yul\":967:991   */\n      tag_104\n        /* \"#utility.yul\":985:990   */\n      dup3\n        /* \"#utility.yul\":967:991   */\n      tag_74\n      jump\t// in\n    tag_104:\n        /* \"#utility.yul\":956:991   */\n      swap1\n      pop\n        /* \"#utility.yul\":901:997   */\n      swap2\n      swap1\n      pop\n      jump\t// out\n        /* \"#utility.yul\":1003:1125   */\n    tag_76:\n        /* \"#utility.yul\":1076:1100   */\n      tag_106\n        /* \"#utility.yul\":1094:1099   */\n      dup2\n        /* \"#utility.yul\":1076:1100   */\n      tag_75\n      jump\t// in\n    tag_106:\n        /* \"#utility.yul\":1069:1074   */\n      dup2\n        /* \"#utility.yul\":1066:1101   */\n      eq\n        /* \"#utility.yul\":1056:1119   */\n      tag_107\n      jumpi\n        /* \"#utility.yul\":1115:1116   */\n      0x00\n        /* \"#utility.yul\":1112:1113   */\n      dup1\n        /* \"#utility.yul\":1105:1117   */\n      revert\n        /* \"#utility.yul\":1056:1119   */\n    tag_107:\n        /* \"#utility.yul\":1003:1125   */\n      pop\n      jump\t// out\n        /* \"#utility.yul\":1131:1270   */\n    tag_77:\n        /* \"#utility.yul\":1177:1182   */\n      0x00\n        /* \"#utility.yul\":1215:1221   */\n      dup2\n        /* \"#utility.yul\":1202:1222   */\n      calldataload\n        /* \"#utility.yul\":1193:1222   */\n      swap1\n      pop\n        /* \"#utility.yul\":1231:1264   */\n      tag_109\n        /* \"#utility.yul\":1258:1263   */\n      dup2\n        /* \"#utility.yul\":1231:1264   */\n      tag_76\n      jump\t// in\n    tag_109:\n        /* \"#utility.yul\":1131:1270   */\n      swap3\n      swap2\n      pop\n      pop\n      jump\t// out\n        /* \"#utility.yul\":1276:1605   */\n    tag_25:\n        /* \"#utility.yul\":1335:1341   */\n      0x00\n        /* \"#utility.yul\":1384:1386   */\n      0x20\n        /* \"#utility.yul\":1372:1381   */\n      dup3\n        /* \"#utility.yul\":1363:1370   */\n      dup5\n        /* \"#utility.yul\":1359:1382   */\n      sub\n        /* \"#utility.yul\":1355:1387   */\n      slt\n        /* \"#utility.yul\":1352:1471   */\n      iszero\n      tag_111\n      jumpi\n        /* \"#utility.yul\":1390:1469   */\n      tag_112\n      tag_72\n      jump\t// in\n    tag_112:\n        /* \"#utility.yul\":1352:1471   */\n    tag_111:\n        /* \"#utility.yul\":1510:1511   */\n      0x00\n        /* \"#utility.yul\":1535:1588   */\n      tag_113\n        /* \"#utility.yul\":1580:1587   */\n      dup5\n        /* \"#utility.yul\":1571:1577   */\n      dup3\n        /* \"#utility.yul\":1560:1569   */\n      dup6\n        /* \"#utility.yul\":1556:1578   */\n      add\n        /* \"#utility.yul\":1535:1588   */\n      tag_77\n      jump\t// in\n    tag_113:\n        /* \"#utility.yul\":1525:1588   */\n      swap2\n      pop\n        /* \"#utility.yul\":1481:1598   */\n      pop\n        /* \"#utility.yul\":1276:1605   */\n      swap3\n      swap2\n      pop\n      pop\n      jump\t// out\n        /* \"#utility.yul\":1611:1733   */\n    tag_78:\n        /* \"#utility.yul\":1684:1708   */\n      tag_115\n        /* \"#utility.yul\":1702:1707   */\n      dup2\n        /* \"#utility.yul\":1684:1708   */\n      tag_69\n      jump\t// in\n    tag_115:\n        /* \"#utility.yul\":1677:1682   */\n      dup2\n        /* \"#utility.yul\":1674:1709   */\n      eq\n        /* \"#utility.yul\":1664:1727   */\n      tag_116\n      jumpi\n        /* \"#utility.yul\":1723:1724   */\n      0x00\n        /* \"#utility.yul\":1720:1721   */\n      dup1\n        /* \"#utility.yul\":1713:1725   */\n      revert\n        /* \"#utility.yul\":1664:1727   */\n    tag_116:\n        /* \"#utility.yul\":1611:1733   */\n      pop\n      jump\t// out\n        /* \"#utility.yul\":1739:1878   */\n    tag_79:\n        /* \"#utility.yul\":1785:1790   */\n      0x00\n        /* \"#utility.yul\":1823:1829   */\n      dup2\n        /* \"#utility.yul\":1810:1830   */\n      calldataload\n        /* \"#utility.yul\":1801:1830   */\n      swap1\n      pop\n        /* \"#utility.yul\":1839:1872   */\n      tag_118\n        /* \"#utility.yul\":1866:1871   */\n      dup2\n        /* \"#utility.yul\":1839:1872   */\n      tag_78\n      jump\t// in\n    tag_118:\n        /* \"#utility.yul\":1739:1878   */\n      swap3\n      swap2\n      pop\n      pop\n      jump\t// out\n        /* \"#utility.yul\":1884:2213   */\n    tag_31:\n        /* \"#utility.yul\":1943:1949   */\n      0x00\n        /* \"#utility.yul\":1992:1994   */\n      0x20\n        /* \"#utility.yul\":1980:1989   */\n      dup3\n        /* \"#utility.yul\":1971:1978   */\n      dup5\n        /* \"#utility.yul\":1967:1990   */\n      sub\n        /* \"#utility.yul\":1963:1995   */\n      slt\n        /* \"#utility.yul\":1960:2079   */\n      iszero\n      tag_120\n      jumpi\n        /* \"#utility.yul\":1998:2077   */\n      tag_121\n      tag_72\n      jump\t// in\n    tag_121:\n        /* \"#utility.yul\":1960:2079   */\n    tag_120:\n        /* \"#utility.yul\":2118:2119   */\n      0x00\n        /* \"#utility.yul\":2143:2196   */\n      tag_122\n        /* \"#utility.yul\":2188:2195   */\n      dup5\n        /* \"#utility.yul\":2179:2185   */\n      dup3\n        /* \"#utility.yul\":2168:2177   */\n      dup6\n        /* \"#utility.yul\":2164:2186   */\n      add\n        /* \"#utility.yul\":2143:2196   */\n      tag_79\n      jump\t// in\n    tag_122:\n        /* \"#utility.yul\":2133:2196   */\n      swap2\n      pop\n        /* \"#utility.yul\":2089:2206   */\n      pop\n        /* \"#utility.yul\":1884:2213   */\n      swap3\n      swap2\n      pop\n      pop\n      jump\t// out\n        /* \"#utility.yul\":2219:2337   */\n    tag_80:\n        /* \"#utility.yul\":2306:2330   */\n      tag_124\n        /* \"#utility.yul\":2324:2329   */\n      dup2\n        /* \"#utility.yul\":2306:2330   */\n      tag_75\n      jump\t// in\n    tag_124:\n        /* \"#utility.yul\":2301:2304   */\n      dup3\n        /* \"#utility.yul\":2294:2331   */\n      mstore\n        /* \"#utility.yul\":2219:2337   */\n      pop\n      pop\n      jump\t// out\n        /* \"#utility.yul\":2343:2565   */\n    tag_34:\n        /* \"#utility.yul\":2436:2440   */\n      0x00\n        /* \"#utility.yul\":2474:2476   */\n      0x20\n        /* \"#utility.yul\":2463:2472   */\n      dup3\n        /* \"#utility.yul\":2459:2477   */\n      add\n        /* \"#utility.yul\":2451:2477   */\n      swap1\n      pop\n        /* \"#utility.yul\":2487:2558   */\n      tag_126\n        /* \"#utility.yul\":2555:2556   */\n      0x00\n        /* \"#utility.yul\":2544:2553   */\n      dup4\n        /* \"#utility.yul\":2540:2557   */\n      add\n        /* \"#utility.yul\":2531:2537   */\n      dup5\n        /* \"#utility.yul\":2487:2558   */\n      tag_80\n      jump\t// in\n    tag_126:\n        /* \"#utility.yul\":2343:2565   */\n      swap3\n      swap2\n      pop\n      pop\n      jump\t// out\n        /* \"#utility.yul\":2571:2751   */\n    tag_41:\n        /* \"#utility.yul\":2619:2696   */\n      0x4e487b7100000000000000000000000000000000000000000000000000000000\n        /* \"#utility.yul\":2616:2617   */\n      0x00\n        /* \"#utility.yul\":2609:2697   */\n      mstore\n        /* \"#utility.yul\":2716:2720   */\n      0x32\n        /* \"#utility.yul\":2713:2714   */\n      0x04\n        /* \"#utility.yul\":2706:2721   */\n      mstore\n        /* \"#utility.yul\":2740:2744   */\n      0x24\n        /* \"#utility.yul\":2737:2738   */\n      0x00\n        /* \"#utility.yul\":2730:2745   */\n      revert\n        /* \"#utility.yul\":2757:2937   */\n    tag_81:\n        /* \"#utility.yul\":2805:2882   */\n      0x4e487b7100000000000000000000000000000000000000000000000000000000\n        /* \"#utility.yul\":2802:2803   */\n      0x00\n        /* \"#utility.yul\":2795:2883   */\n      mstore\n        /* \"#utility.yul\":2902:2906   */\n      0x11\n        /* \"#utility.yul\":2899:2900   */\n      0x04\n        /* \"#utility.yul\":2892:2907   */\n      mstore\n        /* \"#utility.yul\":2926:2930   */\n      0x24\n        /* \"#utility.yul\":2923:2924   */\n      0x00\n        /* \"#utility.yul\":2916:2931   */\n      revert\n        /* \"#utility.yul\":2943:3134   */\n    tag_45:\n        /* \"#utility.yul\":2983:2986   */\n      0x00\n        /* \"#utility.yul\":3002:3022   */\n      tag_130\n        /* \"#utility.yul\":3020:3021   */\n      dup3\n        /* \"#utility.yul\":3002:3022   */\n      tag_69\n      jump\t// in\n    tag_130:\n        /* \"#utility.yul\":2997:3022   */\n      swap2\n      pop\n        /* \"#utility.yul\":3036:3056   */\n      tag_131\n        /* \"#utility.yul\":3054:3055   */\n      dup4\n        /* \"#utility.yul\":3036:3056   */\n      tag_69\n      jump\t// in\n    tag_131:\n        /* \"#utility.yul\":3031:3056   */\n      swap3\n      pop\n        /* \"#utility.yul\":3079:3080   */\n      dup3\n        /* \"#utility.yul\":3076:3077   */\n      dup3\n        /* \"#utility.yul\":3072:3081   */\n      add\n        /* \"#utility.yul\":3065:3081   */\n      swap1\n      pop\n        /* \"#utility.yul\":3100:3103   */\n      dup1\n        /* \"#utility.yul\":3097:3098   */\n      dup3\n        /* \"#utility.yul\":3094:3104   */\n      gt\n        /* \"#utility.yul\":3091:3127   */\n      iszero\n      tag_132\n      jumpi\n        /* \"#utility.yul\":3107:3125   */\n      tag_133\n      tag_81\n      jump\t// in\n    tag_133:\n        /* \"#utility.yul\":3091:3127   */\n    tag_132:\n        /* \"#utility.yul\":2943:3134   */\n      swap3\n      swap2\n      pop\n      pop\n      jump\t// out\n        /* \"#utility.yul\":3140:3309   */\n    tag_82:\n        /* \"#utility.yul\":3224:3235   */\n      0x00\n        /* \"#utility.yul\":3258:3264   */\n      dup3\n        /* \"#utility.yul\":3253:3256   */\n      dup3\n        /* \"#utility.yul\":3246:3265   */\n      mstore\n        /* \"#utility.yul\":3298:3302   */\n      0x20\n        /* \"#utility.yul\":3293:3296   */\n      dup3\n        /* \"#utility.yul\":3289:3303   */\n      add\n        /* \"#utility.yul\":3274:3303   */\n      swap1\n      pop\n        /* \"#utility.yul\":3140:3309   */\n      swap3\n      swap2\n      pop\n      pop\n      jump\t// out\n        /* \"#utility.yul\":3315:3487   */\n    tag_83:\n        /* \"#utility.yul\":3455:3479   */\n      0x6e6f7420656e6f7567682045544820616d6f756e742100000000000000000000\n        /* \"#utility.yul\":3451:3452   */\n      0x00\n        /* \"#utility.yul\":3443:3449   */\n      dup3\n        /* \"#utility.yul\":3439:3453   */\n      add\n        /* \"#utility.yul\":3432:3480   */\n      mstore\n        /* \"#utility.yul\":3315:3487   */\n      pop\n      jump\t// out\n        /* \"#utility.yul\":3493:3859   */\n    tag_84:\n        /* \"#utility.yul\":3635:3638   */\n      0x00\n        /* \"#utility.yul\":3656:3723   */\n      tag_137\n        /* \"#utility.yul\":3720:3722   */\n      0x16\n        /* \"#utility.yul\":3715:3718   */\n      dup4\n        /* \"#utility.yul\":3656:3723   */\n      tag_82\n      jump\t// in\n    tag_137:\n        /* \"#utility.yul\":3649:3723   */\n      swap2\n      pop\n        /* \"#utility.yul\":3732:3825   */\n      tag_138\n        /* \"#utility.yul\":3821:3824   */\n      dup3\n        /* \"#utility.yul\":3732:3825   */\n      tag_83\n      jump\t// in\n    tag_138:\n        /* \"#utility.yul\":3850:3852   */\n      0x20\n        /* \"#utility.yul\":3845:3848   */\n      dup3\n        /* \"#utility.yul\":3841:3853   */\n      add\n        /* \"#utility.yul\":3834:3853   */\n      swap1\n      pop\n        /* \"#utility.yul\":3493:3859   */\n      swap2\n      swap1\n      pop\n      jump\t// out\n        /* \"#utility.yul\":3865:4284   */\n    tag_50:\n        /* \"#utility.yul\":4031:4035   */\n      0x00\n        /* \"#utility.yul\":4069:4071   */\n      0x20\n        /* \"#utility.yul\":4058:4067   */\n      dup3\n        /* \"#utility.yul\":4054:4072   */\n      add\n        /* \"#utility.yul\":4046:4072   */\n      swap1\n      pop\n        /* \"#utility.yul\":4118:4127   */\n      dup2\n        /* \"#utility.yul\":4112:4116   */\n      dup2\n        /* \"#utility.yul\":4108:4128   */\n      sub\n        /* \"#utility.yul\":4104:4105   */\n      0x00\n        /* \"#utility.yul\":4093:4102   */\n      dup4\n        /* \"#utility.yul\":4089:4106   */\n      add\n        /* \"#utility.yul\":4082:4129   */\n      mstore\n        /* \"#utility.yul\":4146:4277   */\n      tag_140\n        /* \"#utility.yul\":4272:4276   */\n      dup2\n        /* \"#utility.yul\":4146:4277   */\n      tag_84\n      jump\t// in\n    tag_140:\n        /* \"#utility.yul\":4138:4277   */\n      swap1\n      pop\n        /* \"#utility.yul\":3865:4284   */\n      swap2\n      swap1\n      pop\n      jump\t// out\n        /* \"#utility.yul\":4290:4700   */\n    tag_59:\n        /* \"#utility.yul\":4330:4337   */\n      0x00\n        /* \"#utility.yul\":4353:4373   */\n      tag_142\n        /* \"#utility.yul\":4371:4372   */\n      dup3\n        /* \"#utility.yul\":4353:4373   */\n      tag_69\n      jump\t// in\n    tag_142:\n        /* \"#utility.yul\":4348:4373   */\n      swap2\n      pop\n        /* \"#utility.yul\":4387:4407   */\n      tag_143\n        /* \"#utility.yul\":4405:4406   */\n      dup4\n        /* \"#utility.yul\":4387:4407   */\n      tag_69\n      jump\t// in\n    tag_143:\n        /* \"#utility.yul\":4382:4407   */\n      swap3\n      pop\n        /* \"#utility.yul\":4442:4443   */\n      dup3\n        /* \"#utility.yul\":4439:4440   */\n      dup3\n        /* \"#utility.yul\":4435:4444   */\n      mul\n        /* \"#utility.yul\":4464:4494   */\n      tag_144\n        /* \"#utility.yul\":4482:4493   */\n      dup2\n        /* \"#utility.yul\":4464:4494   */\n      tag_69\n      jump\t// in\n    tag_144:\n        /* \"#utility.yul\":4453:4494   */\n      swap2\n      pop\n        /* \"#utility.yul\":4643:4644   */\n      dup3\n        /* \"#utility.yul\":4634:4641   */\n      dup3\n        /* \"#utility.yul\":4630:4645   */\n      div\n        /* \"#utility.yul\":4627:4628   */\n      dup5\n        /* \"#utility.yul\":4624:4646   */\n      eq\n        /* \"#utility.yul\":4604:4605   */\n      dup4\n        /* \"#utility.yul\":4597:4606   */\n      iszero\n        /* \"#utility.yul\":4577:4660   */\n      or\n        /* \"#utility.yul\":4554:4693   */\n      tag_145\n      jumpi\n        /* \"#utility.yul\":4673:4691   */\n      tag_146\n      tag_81\n      jump\t// in\n    tag_146:\n        /* \"#utility.yul\":4554:4693   */\n    tag_145:\n        /* \"#utility.yul\":4338:4700   */\n      pop\n        /* \"#utility.yul\":4290:4700   */\n      swap3\n      swap2\n      pop\n      pop\n      jump\t// out\n        /* \"#utility.yul\":4706:4886   */\n    tag_85:\n        /* \"#utility.yul\":4754:4831   */\n      0x4e487b7100000000000000000000000000000000000000000000000000000000\n        /* \"#utility.yul\":4751:4752   */\n      0x00\n        /* \"#utility.yul\":4744:4832   */\n      mstore\n        /* \"#utility.yul\":4851:4855   */\n      0x12\n        /* \"#utility.yul\":4848:4849   */\n      0x04\n        /* \"#utility.yul\":4841:4856   */\n      mstore\n        /* \"#utility.yul\":4875:4879   */\n      0x24\n        /* \"#utility.yul\":4872:4873   */\n      0x00\n        /* \"#utility.yul\":4865:4880   */\n      revert\n        /* \"#utility.yul\":4892:5077   */\n    tag_61:\n        /* \"#utility.yul\":4932:4933   */\n      0x00\n        /* \"#utility.yul\":4949:4969   */\n      tag_149\n        /* \"#utility.yul\":4967:4968   */\n      dup3\n        /* \"#utility.yul\":4949:4969   */\n      tag_69\n      jump\t// in\n    tag_149:\n        /* \"#utility.yul\":4944:4969   */\n      swap2\n      pop\n        /* \"#utility.yul\":4983:5003   */\n      tag_150\n        /* \"#utility.yul\":5001:5002   */\n      dup4\n        /* \"#utility.yul\":4983:5003   */\n      tag_69\n      jump\t// in\n    tag_150:\n        /* \"#utility.yul\":4978:5003   */\n      swap3\n      pop\n        /* \"#utility.yul\":5022:5023   */\n      dup3\n        /* \"#utility.yul\":5012:5047   */\n      tag_151\n      jumpi\n        /* \"#utility.yul\":5027:5045   */\n      tag_152\n      tag_85\n      jump\t// in\n    tag_152:\n        /* \"#utility.yul\":5012:5047   */\n    tag_151:\n        /* \"#utility.yul\":5069:5070   */\n      dup3\n        /* \"#utility.yul\":5066:5067   */\n      dup3\n        /* \"#utility.yul\":5062:5071   */\n      div\n        /* \"#utility.yul\":5057:5071   */\n      swap1\n      pop\n        /* \"#utility.yul\":4892:5077   */\n      swap3\n      swap2\n      pop\n      pop\n      jump\t// out\n        /* \"#utility.yul\":5083:5188   */\n    tag_86:\n        /* \"#utility.yul\":5119:5126   */\n      0x00\n        /* \"#utility.yul\":5159:5181   */\n      0xffffffffffffffffffff\n        /* \"#utility.yul\":5152:5157   */\n      dup3\n        /* \"#utility.yul\":5148:5182   */\n      and\n        /* \"#utility.yul\":5137:5182   */\n      swap1\n      pop\n        /* \"#utility.yul\":5083:5188   */\n      swap2\n      swap1\n      pop\n      jump\t// out\n        /* \"#utility.yul\":5194:5314   */\n    tag_87:\n        /* \"#utility.yul\":5266:5289   */\n      tag_155\n        /* \"#utility.yul\":5283:5288   */\n      dup2\n        /* \"#utility.yul\":5266:5289   */\n      tag_86\n      jump\t// in\n    tag_155:\n        /* \"#utility.yul\":5259:5264   */\n      dup2\n        /* \"#utility.yul\":5256:5290   */\n      eq\n        /* \"#utility.yul\":5246:5308   */\n      tag_156\n      jumpi\n        /* \"#utility.yul\":5304:5305   */\n      0x00\n        /* \"#utility.yul\":5301:5302   */\n      dup1\n        /* \"#utility.yul\":5294:5306   */\n      revert\n        /* \"#utility.yul\":5246:5308   */\n    tag_156:\n        /* \"#utility.yul\":5194:5314   */\n      pop\n      jump\t// out\n        /* \"#utility.yul\":5320:5461   */\n    tag_88:\n        /* \"#utility.yul\":5376:5381   */\n      0x00\n        /* \"#utility.yul\":5407:5413   */\n      dup2\n        /* \"#utility.yul\":5401:5414   */\n      mload\n        /* \"#utility.yul\":5392:5414   */\n      swap1\n      pop\n        /* \"#utility.yul\":5423:5455   */\n      tag_158\n        /* \"#utility.yul\":5449:5454   */\n      dup2\n        /* \"#utility.yul\":5423:5455   */\n      tag_87\n      jump\t// in\n    tag_158:\n        /* \"#utility.yul\":5320:5461   */\n      swap3\n      swap2\n      pop\n      pop\n      jump\t// out\n        /* \"#utility.yul\":5467:5543   */\n    tag_89:\n        /* \"#utility.yul\":5503:5510   */\n      0x00\n        /* \"#utility.yul\":5532:5537   */\n      dup2\n        /* \"#utility.yul\":5521:5537   */\n      swap1\n      pop\n        /* \"#utility.yul\":5467:5543   */\n      swap2\n      swap1\n      pop\n      jump\t// out\n        /* \"#utility.yul\":5549:5669   */\n    tag_90:\n        /* \"#utility.yul\":5621:5644   */\n      tag_161\n        /* \"#utility.yul\":5638:5643   */\n      dup2\n        /* \"#utility.yul\":5621:5644   */\n      tag_89\n      jump\t// in\n    tag_161:\n        /* \"#utility.yul\":5614:5619   */\n      dup2\n        /* \"#utility.yul\":5611:5645   */\n      eq\n        /* \"#utility.yul\":5601:5663   */\n      tag_162\n      jumpi\n        /* \"#utility.yul\":5659:5660   */\n      0x00\n        /* \"#utility.yul\":5656:5657   */\n      dup1\n        /* \"#utility.yul\":5649:5661   */\n      revert\n        /* \"#utility.yul\":5601:5663   */\n    tag_162:\n        /* \"#utility.yul\":5549:5669   */\n      pop\n      jump\t// out\n        /* \"#utility.yul\":5675:5816   */\n    tag_91:\n        /* \"#utility.yul\":5731:5736   */\n      0x00\n        /* \"#utility.yul\":5762:5768   */\n      dup2\n        /* \"#utility.yul\":5756:5769   */\n      mload\n        /* \"#utility.yul\":5747:5769   */\n      swap1\n      pop\n        /* \"#utility.yul\":5778:5810   */\n      tag_164\n        /* \"#utility.yul\":5804:5809   */\n      dup2\n        /* \"#utility.yul\":5778:5810   */\n      tag_90\n      jump\t// in\n    tag_164:\n        /* \"#utility.yul\":5675:5816   */\n      swap3\n      swap2\n      pop\n      pop\n      jump\t// out\n        /* \"#utility.yul\":5822:5965   */\n    tag_92:\n        /* \"#utility.yul\":5879:5884   */\n      0x00\n        /* \"#utility.yul\":5910:5916   */\n      dup2\n        /* \"#utility.yul\":5904:5917   */\n      mload\n        /* \"#utility.yul\":5895:5917   */\n      swap1\n      pop\n        /* \"#utility.yul\":5926:5959   */\n      tag_166\n        /* \"#utility.yul\":5953:5958   */\n      dup2\n        /* \"#utility.yul\":5926:5959   */\n      tag_78\n      jump\t// in\n    tag_166:\n        /* \"#utility.yul\":5822:5965   */\n      swap3\n      swap2\n      pop\n      pop\n      jump\t// out\n        /* \"#utility.yul\":5971:6942   */\n    tag_66:\n        /* \"#utility.yul\":6074:6080   */\n      0x00\n        /* \"#utility.yul\":6082:6088   */\n      dup1\n        /* \"#utility.yul\":6090:6096   */\n      0x00\n        /* \"#utility.yul\":6098:6104   */\n      dup1\n        /* \"#utility.yul\":6106:6112   */\n      0x00\n        /* \"#utility.yul\":6155:6158   */\n      0xa0\n        /* \"#utility.yul\":6143:6152   */\n      dup7\n        /* \"#utility.yul\":6134:6141   */\n      dup9\n        /* \"#utility.yul\":6130:6153   */\n      sub\n        /* \"#utility.yul\":6126:6159   */\n      slt\n        /* \"#utility.yul\":6123:6243   */\n      iszero\n      tag_168\n      jumpi\n        /* \"#utility.yul\":6162:6241   */\n      tag_169\n      tag_72\n      jump\t// in\n    tag_169:\n        /* \"#utility.yul\":6123:6243   */\n    tag_168:\n        /* \"#utility.yul\":6282:6283   */\n      0x00\n        /* \"#utility.yul\":6307:6370   */\n      tag_170\n        /* \"#utility.yul\":6362:6369   */\n      dup9\n        /* \"#utility.yul\":6353:6359   */\n      dup3\n        /* \"#utility.yul\":6342:6351   */\n      dup10\n        /* \"#utility.yul\":6338:6360   */\n      add\n        /* \"#utility.yul\":6307:6370   */\n      tag_88\n      jump\t// in\n    tag_170:\n        /* \"#utility.yul\":6297:6370   */\n      swap6\n      pop\n        /* \"#utility.yul\":6253:6380   */\n      pop\n        /* \"#utility.yul\":6419:6421   */\n      0x20\n        /* \"#utility.yul\":6445:6508   */\n      tag_171\n        /* \"#utility.yul\":6500:6507   */\n      dup9\n        /* \"#utility.yul\":6491:6497   */\n      dup3\n        /* \"#utility.yul\":6480:6489   */\n      dup10\n        /* \"#utility.yul\":6476:6498   */\n      add\n        /* \"#utility.yul\":6445:6508   */\n      tag_91\n      jump\t// in\n    tag_171:\n        /* \"#utility.yul\":6435:6508   */\n      swap5\n      pop\n        /* \"#utility.yul\":6390:6518   */\n      pop\n        /* \"#utility.yul\":6557:6559   */\n      0x40\n        /* \"#utility.yul\":6583:6647   */\n      tag_172\n        /* \"#utility.yul\":6639:6646   */\n      dup9\n        /* \"#utility.yul\":6630:6636   */\n      dup3\n        /* \"#utility.yul\":6619:6628   */\n      dup10\n        /* \"#utility.yul\":6615:6637   */\n      add\n        /* \"#utility.yul\":6583:6647   */\n      tag_92\n      jump\t// in\n    tag_172:\n        /* \"#utility.yul\":6573:6647   */\n      swap4\n      pop\n        /* \"#utility.yul\":6528:6657   */\n      pop\n        /* \"#utility.yul\":6696:6698   */\n      0x60\n        /* \"#utility.yul\":6722:6786   */\n      tag_173\n        /* \"#utility.yul\":6778:6785   */\n      dup9\n        /* \"#utility.yul\":6769:6775   */\n      dup3\n        /* \"#utility.yul\":6758:6767   */\n      dup10\n        /* \"#utility.yul\":6754:6776   */\n      add\n        /* \"#utility.yul\":6722:6786   */\n      tag_92\n      jump\t// in\n    tag_173:\n        /* \"#utility.yul\":6712:6786   */\n      swap3\n      pop\n        /* \"#utility.yul\":6667:6796   */\n      pop\n        /* \"#utility.yul\":6835:6838   */\n      0x80\n        /* \"#utility.yul\":6862:6925   */\n      tag_174\n        /* \"#utility.yul\":6917:6924   */\n      dup9\n        /* \"#utility.yul\":6908:6914   */\n      dup3\n        /* \"#utility.yul\":6897:6906   */\n      dup10\n        /* \"#utility.yul\":6893:6915   */\n      add\n        /* \"#utility.yul\":6862:6925   */\n      tag_88\n      jump\t// in\n    tag_174:\n        /* \"#utility.yul\":6852:6925   */\n      swap2\n      pop\n        /* \"#utility.yul\":6806:6935   */\n      pop\n        /* \"#utility.yul\":5971:6942   */\n      swap3\n      swap6\n      pop\n      swap3\n      swap6\n      swap1\n      swap4\n      pop\n      jump\t// out\n        /* \"#utility.yul\":6948:7504   */\n    tag_68:\n        /* \"#utility.yul\":6987:6994   */\n      0x00\n        /* \"#utility.yul\":7010:7029   */\n      tag_176\n        /* \"#utility.yul\":7027:7028   */\n      dup3\n        /* \"#utility.yul\":7010:7029   */\n      tag_89\n      jump\t// in\n    tag_176:\n        /* \"#utility.yul\":7005:7029   */\n      swap2\n      pop\n        /* \"#utility.yul\":7043:7062   */\n      tag_177\n        /* \"#utility.yul\":7060:7061   */\n      dup4\n        /* \"#utility.yul\":7043:7062   */\n      tag_89\n      jump\t// in\n    tag_177:\n        /* \"#utility.yul\":7038:7062   */\n      swap3\n      pop\n        /* \"#utility.yul\":7097:7098   */\n      dup3\n        /* \"#utility.yul\":7094:7095   */\n      dup3\n        /* \"#utility.yul\":7090:7099   */\n      mul\n        /* \"#utility.yul\":7119:7148   */\n      tag_178\n        /* \"#utility.yul\":7136:7147   */\n      dup2\n        /* \"#utility.yul\":7119:7148   */\n      tag_89\n      jump\t// in\n    tag_178:\n        /* \"#utility.yul\":7108:7148   */\n      swap2\n      pop\n        /* \"#utility.yul\":7206:7272   */\n      0x8000000000000000000000000000000000000000000000000000000000000000\n        /* \"#utility.yul\":7203:7204   */\n      dup5\n        /* \"#utility.yul\":7200:7273   */\n      eq\n        /* \"#utility.yul\":7196:7197   */\n      0x00\n        /* \"#utility.yul\":7193:7194   */\n      dup5\n        /* \"#utility.yul\":7189:7198   */\n      slt\n        /* \"#utility.yul\":7185:7274   */\n      and\n        /* \"#utility.yul\":7182:7297   */\n      iszero\n      tag_179\n      jumpi\n        /* \"#utility.yul\":7277:7295   */\n      tag_180\n      tag_81\n      jump\t// in\n    tag_180:\n        /* \"#utility.yul\":7182:7297   */\n    tag_179:\n        /* \"#utility.yul\":7447:7448   */\n      dup3\n        /* \"#utility.yul\":7438:7445   */\n      dup3\n        /* \"#utility.yul\":7433:7449   */\n      sdiv\n        /* \"#utility.yul\":7430:7431   */\n      dup5\n        /* \"#utility.yul\":7427:7450   */\n      eq\n        /* \"#utility.yul\":7407:7408   */\n      dup4\n        /* \"#utility.yul\":7400:7409   */\n      iszero\n        /* \"#utility.yul\":7380:7464   */\n      or\n        /* \"#utility.yul\":7357:7497   */\n      tag_181\n      jumpi\n        /* \"#utility.yul\":7477:7495   */\n      tag_182\n      tag_81\n      jump\t// in\n    tag_182:\n        /* \"#utility.yul\":7357:7497   */\n    tag_181:\n        /* \"#utility.yul\":6995:7504   */\n      pop\n        /* \"#utility.yul\":6948:7504   */\n      swap3\n      swap2\n      pop\n      pop\n      jump\t// out\n\n    auxdata: 0xa264697066735822122022d3310d1619a496c8b38fd9a9812fa9fa7dea30f8bacbc4ee3cf3f709a6a2f364736f6c634300081a0033\n}\n",
				"bytecode": {
					"linkReferences": {},
					"object": "608060405260015f55674563918244f40000600155348015601e575f80fd5b506108ec8061002c5f395ff3fe608060405260043610610054575f3560e01c8063098de8201461005857806347f1aae71461008257806357ea89b6146100ac5780636ce1417e146100c2578063b804f81f146100cc578063dc0d3dff14610108575b5f80fd5b348015610063575f80fd5b5061006c610144565b6040516100799190610481565b60405180910390f35b34801561008d575f80fd5b5061009661014a565b6040516100a39190610481565b60405180910390f35b3480156100b7575f80fd5b506100c061014f565b005b6100ca6101f0565b005b3480156100d7575f80fd5b506100f260048036038101906100ed91906104f8565b61033c565b6040516100ff9190610481565b60405180910390f35b348015610113575f80fd5b5061012e6004803603810190610129919061054d565b610351565b60405161013b9190610587565b60405180910390f35b60015481565b5f5481565b5f5b6002805490508110156101ed575f60028281548110610173576101726105a0565b5b905f5260205f20015f9054906101000a900473ffffffffffffffffffffffffffffffffffffffff1690505f60035f8373ffffffffffffffffffffffffffffffffffffffff1673ffffffffffffffffffffffffffffffffffffffff1681526020019081526020015f2081905550508080600101915050610151565b50565b60025f546101fe91906105fa565b5f8190555060015461020f3461038c565b1015610250576040517f08c379a000000000000000000000000000000000000000000000000000000000815260040161024790610687565b60405180910390fd5b600233908060018154018082558091505060019003905f5260205f20015f9091909190916101000a81548173ffffffffffffffffffffffffffffffffffffffff021916908373ffffffffffffffffffffffffffffffffffffffff1602179055503460035f3373ffffffffffffffffffffffffffffffffffffffff1673ffffffffffffffffffffffffffffffffffffffff1681526020019081526020015f20546102f991906105fa565b60035f3373ffffffffffffffffffffffffffffffffffffffff1673ffffffffffffffffffffffffffffffffffffffff1681526020019081526020015f2081905550565b6003602052805f5260405f205f915090505481565b60028181548110610360575f80fd5b905f5260205f20015f915054906101000a900473ffffffffffffffffffffffffffffffffffffffff1681565b5f806103966103c4565b90505f670de0b6b3a764000082856103ae91906106a5565b6103b89190610713565b90508092505050919050565b5f8073694aa1769357215de4fac081bf1f309adc32530690505f8173ffffffffffffffffffffffffffffffffffffffff1663feaf968c6040518163ffffffff1660e01b815260040160a060405180830381865afa158015610427573d5f803e3d5ffd5b505050506040513d601f19601f8201168201806040525081019061044b91906107c9565b5050509150506402540be400816104629190610840565b9250505090565b5f819050919050565b61047b81610469565b82525050565b5f6020820190506104945f830184610472565b92915050565b5f80fd5b5f73ffffffffffffffffffffffffffffffffffffffff82169050919050565b5f6104c78261049e565b9050919050565b6104d7816104bd565b81146104e1575f80fd5b50565b5f813590506104f2816104ce565b92915050565b5f6020828403121561050d5761050c61049a565b5b5f61051a848285016104e4565b91505092915050565b61052c81610469565b8114610536575f80fd5b50565b5f8135905061054781610523565b92915050565b5f602082840312156105625761056161049a565b5b5f61056f84828501610539565b91505092915050565b610581816104bd565b82525050565b5f60208201905061059a5f830184610578565b92915050565b7f4e487b71000000000000000000000000000000000000000000000000000000005f52603260045260245ffd5b7f4e487b71000000000000000000000000000000000000000000000000000000005f52601160045260245ffd5b5f61060482610469565b915061060f83610469565b9250828201905080821115610627576106266105cd565b5b92915050565b5f82825260208201905092915050565b7f6e6f7420656e6f7567682045544820616d6f756e7421000000000000000000005f82015250565b5f61067160168361062d565b915061067c8261063d565b602082019050919050565b5f6020820190508181035f83015261069e81610665565b9050919050565b5f6106af82610469565b91506106ba83610469565b92508282026106c881610469565b915082820484148315176106df576106de6105cd565b5b5092915050565b7f4e487b71000000000000000000000000000000000000000000000000000000005f52601260045260245ffd5b5f61071d82610469565b915061072883610469565b925082610738576107376106e6565b5b828204905092915050565b5f69ffffffffffffffffffff82169050919050565b61076181610743565b811461076b575f80fd5b50565b5f8151905061077c81610758565b92915050565b5f819050919050565b61079481610782565b811461079e575f80fd5b50565b5f815190506107af8161078b565b92915050565b5f815190506107c381610523565b92915050565b5f805f805f60a086880312156107e2576107e161049a565b5b5f6107ef8882890161076e565b9550506020610800888289016107a1565b9450506040610811888289016107b5565b9350506060610822888289016107b5565b92505060806108338882890161076e565b9150509295509295909350565b5f61084a82610782565b915061085583610782565b925082820261086381610782565b91507f800000000000000000000000000000000000000000000000000000000000000084145f8412161561089a576108996105cd565b5b82820584148315176108af576108ae6105cd565b5b509291505056fea264697066735822122022d3310d1619a496c8b38fd9a9812fa9fa7dea30f8bacbc4ee3cf3f709a6a2f364736f6c634300081a0033",
					"opcodes": "PUSH1 0x80 PUSH1 0x40 MSTORE PUSH1 0x1 PUSH0 SSTORE PUSH8 0x4563918244F40000 PUSH1 0x1 SSTORE CALLVALUE DUP1 ISZERO PUSH1 0x1E JUMPI PUSH0 DUP1 REVERT JUMPDEST POP PUSH2 0x8EC DUP1 PUSH2 0x2C PUSH0 CODECOPY PUSH0 RETURN INVALID PUSH1 0x80 PUSH1 0x40 MSTORE PUSH1 0x4 CALLDATASIZE LT PUSH2 0x54 JUMPI PUSH0 CALLDATALOAD PUSH1 0xE0 SHR DUP1 PUSH4 0x98DE820 EQ PUSH2 0x58 JUMPI DUP1 PUSH4 0x47F1AAE7 EQ PUSH2 0x82 JUMPI DUP1 PUSH4 0x57EA89B6 EQ PUSH2 0xAC JUMPI DUP1 PUSH4 0x6CE1417E EQ PUSH2 0xC2 JUMPI DUP1 PUSH4 0xB804F81F EQ PUSH2 0xCC JUMPI DUP1 PUSH4 0xDC0D3DFF EQ PUSH2 0x108 JUMPI JUMPDEST PUSH0 DUP1 REVERT JUMPDEST CALLVALUE DUP1 ISZERO PUSH2 0x63 JUMPI PUSH0 DUP1 REVERT JUMPDEST POP PUSH2 0x6C PUSH2 0x144 JUMP JUMPDEST PUSH1 0x40 MLOAD PUSH2 0x79 SWAP2 SWAP1 PUSH2 0x481 JUMP JUMPDEST PUSH1 0x40 MLOAD DUP1 SWAP2 SUB SWAP1 RETURN JUMPDEST CALLVALUE DUP1 ISZERO PUSH2 0x8D JUMPI PUSH0 DUP1 REVERT JUMPDEST POP PUSH2 0x96 PUSH2 0x14A JUMP JUMPDEST PUSH1 0x40 MLOAD PUSH2 0xA3 SWAP2 SWAP1 PUSH2 0x481 JUMP JUMPDEST PUSH1 0x40 MLOAD DUP1 SWAP2 SUB SWAP1 RETURN JUMPDEST CALLVALUE DUP1 ISZERO PUSH2 0xB7 JUMPI PUSH0 DUP1 REVERT JUMPDEST POP PUSH2 0xC0 PUSH2 0x14F JUMP JUMPDEST STOP JUMPDEST PUSH2 0xCA PUSH2 0x1F0 JUMP JUMPDEST STOP JUMPDEST CALLVALUE DUP1 ISZERO PUSH2 0xD7 JUMPI PUSH0 DUP1 REVERT JUMPDEST POP PUSH2 0xF2 PUSH1 0x4 DUP1 CALLDATASIZE SUB DUP2 ADD SWAP1 PUSH2 0xED SWAP2 SWAP1 PUSH2 0x4F8 JUMP JUMPDEST PUSH2 0x33C JUMP JUMPDEST PUSH1 0x40 MLOAD PUSH2 0xFF SWAP2 SWAP1 PUSH2 0x481 JUMP JUMPDEST PUSH1 0x40 MLOAD DUP1 SWAP2 SUB SWAP1 RETURN JUMPDEST CALLVALUE DUP1 ISZERO PUSH2 0x113 JUMPI PUSH0 DUP1 REVERT JUMPDEST POP PUSH2 0x12E PUSH1 0x4 DUP1 CALLDATASIZE SUB DUP2 ADD SWAP1 PUSH2 0x129 SWAP2 SWAP1 PUSH2 0x54D JUMP JUMPDEST PUSH2 0x351 JUMP JUMPDEST PUSH1 0x40 MLOAD PUSH2 0x13B SWAP2 SWAP1 PUSH2 0x587 JUMP JUMPDEST PUSH1 0x40 MLOAD DUP1 SWAP2 SUB SWAP1 RETURN JUMPDEST PUSH1 0x1 SLOAD DUP2 JUMP JUMPDEST PUSH0 SLOAD DUP2 JUMP JUMPDEST PUSH0 JUMPDEST PUSH1 0x2 DUP1 SLOAD SWAP1 POP DUP2 LT ISZERO PUSH2 0x1ED JUMPI PUSH0 PUSH1 0x2 DUP3 DUP2 SLOAD DUP2 LT PUSH2 0x173 JUMPI PUSH2 0x172 PUSH2 0x5A0 JUMP JUMPDEST JUMPDEST SWAP1 PUSH0 MSTORE PUSH1 0x20 PUSH0 KECCAK256 ADD PUSH0 SWAP1 SLOAD SWAP1 PUSH2 0x100 EXP SWAP1 DIV PUSH20 0xFFFFFFFFFFFFFFFFFFFFFFFFFFFFFFFFFFFFFFFF AND SWAP1 POP PUSH0 PUSH1 0x3 PUSH0 DUP4 PUSH20 0xFFFFFFFFFFFFFFFFFFFFFFFFFFFFFFFFFFFFFFFF AND PUSH20 0xFFFFFFFFFFFFFFFFFFFFFFFFFFFFFFFFFFFFFFFF AND DUP2 MSTORE PUSH1 0x20 ADD SWAP1 DUP2 MSTORE PUSH1 0x20 ADD PUSH0 KECCAK256 DUP2 SWAP1 SSTORE POP POP DUP1 DUP1 PUSH1 0x1 ADD SWAP2 POP POP PUSH2 0x151 JUMP JUMPDEST POP JUMP JUMPDEST PUSH1 0x2 PUSH0 SLOAD PUSH2 0x1FE SWAP2 SWAP1 PUSH2 0x5FA JUMP JUMPDEST PUSH0 DUP2 SWAP1 SSTORE POP PUSH1 0x1 SLOAD PUSH2 0x20F CALLVALUE PUSH2 0x38C JUMP JUMPDEST LT ISZERO PUSH2 0x250 JUMPI PUSH1 0x40 MLOAD PUSH32 0x8C379A000000000000000000000000000000000000000000000000000000000 DUP2 MSTORE PUSH1 0x4 ADD PUSH2 0x247 SWAP1 PUSH2 0x687 JUMP JUMPDEST PUSH1 0x40 MLOAD DUP1 SWAP2 SUB SWAP1 REVERT JUMPDEST PUSH1 0x2 CALLER SWAP1 DUP1 PUSH1 0x1 DUP2 SLOAD ADD DUP1 DUP3 SSTORE DUP1 SWAP2 POP POP PUSH1 0x1 SWAP1 SUB SWAP1 PUSH0 MSTORE PUSH1 0x20 PUSH0 KECCAK256 ADD PUSH0 SWAP1 SWAP2 SWAP1 SWAP2 SWAP1 SWAP2 PUSH2 0x100 EXP DUP2 SLOAD DUP2 PUSH20 0xFFFFFFFFFFFFFFFFFFFFFFFFFFFFFFFFFFFFFFFF MUL NOT AND SWAP1 DUP4 PUSH20 0xFFFFFFFFFFFFFFFFFFFFFFFFFFFFFFFFFFFFFFFF AND MUL OR SWAP1 SSTORE POP CALLVALUE PUSH1 0x3 PUSH0 CALLER PUSH20 0xFFFFFFFFFFFFFFFFFFFFFFFFFFFFFFFFFFFFFFFF AND PUSH20 0xFFFFFFFFFFFFFFFFFFFFFFFFFFFFFFFFFFFFFFFF AND DUP2 MSTORE PUSH1 0x20 ADD SWAP1 DUP2 MSTORE PUSH1 0x20 ADD PUSH0 KECCAK256 SLOAD PUSH2 0x2F9 SWAP2 SWAP1 PUSH2 0x5FA JUMP JUMPDEST PUSH1 0x3 PUSH0 CALLER PUSH20 0xFFFFFFFFFFFFFFFFFFFFFFFFFFFFFFFFFFFFFFFF AND PUSH20 0xFFFFFFFFFFFFFFFFFFFFFFFFFFFFFFFFFFFFFFFF AND DUP2 MSTORE PUSH1 0x20 ADD SWAP1 DUP2 MSTORE PUSH1 0x20 ADD PUSH0 KECCAK256 DUP2 SWAP1 SSTORE POP JUMP JUMPDEST PUSH1 0x3 PUSH1 0x20 MSTORE DUP1 PUSH0 MSTORE PUSH1 0x40 PUSH0 KECCAK256 PUSH0 SWAP2 POP SWAP1 POP SLOAD DUP2 JUMP JUMPDEST PUSH1 0x2 DUP2 DUP2 SLOAD DUP2 LT PUSH2 0x360 JUMPI PUSH0 DUP1 REVERT JUMPDEST SWAP1 PUSH0 MSTORE PUSH1 0x20 PUSH0 KECCAK256 ADD PUSH0 SWAP2 POP SLOAD SWAP1 PUSH2 0x100 EXP SWAP1 DIV PUSH20 0xFFFFFFFFFFFFFFFFFFFFFFFFFFFFFFFFFFFFFFFF AND DUP2 JUMP JUMPDEST PUSH0 DUP1 PUSH2 0x396 PUSH2 0x3C4 JUMP JUMPDEST SWAP1 POP PUSH0 PUSH8 0xDE0B6B3A7640000 DUP3 DUP6 PUSH2 0x3AE SWAP2 SWAP1 PUSH2 0x6A5 JUMP JUMPDEST PUSH2 0x3B8 SWAP2 SWAP1 PUSH2 0x713 JUMP JUMPDEST SWAP1 POP DUP1 SWAP3 POP POP POP SWAP2 SWAP1 POP JUMP JUMPDEST PUSH0 DUP1 PUSH20 0x694AA1769357215DE4FAC081BF1F309ADC325306 SWAP1 POP PUSH0 DUP2 PUSH20 0xFFFFFFFFFFFFFFFFFFFFFFFFFFFFFFFFFFFFFFFF AND PUSH4 0xFEAF968C PUSH1 0x40 MLOAD DUP2 PUSH4 0xFFFFFFFF AND PUSH1 0xE0 SHL DUP2 MSTORE PUSH1 0x4 ADD PUSH1 0xA0 PUSH1 0x40 MLOAD DUP1 DUP4 SUB DUP2 DUP7 GAS STATICCALL ISZERO DUP1 ISZERO PUSH2 0x427 JUMPI RETURNDATASIZE PUSH0 DUP1 RETURNDATACOPY RETURNDATASIZE PUSH0 REVERT JUMPDEST POP POP POP POP PUSH1 0x40 MLOAD RETURNDATASIZE PUSH1 0x1F NOT PUSH1 0x1F DUP3 ADD AND DUP3 ADD DUP1 PUSH1 0x40 MSTORE POP DUP2 ADD SWAP1 PUSH2 0x44B SWAP2 SWAP1 PUSH2 0x7C9 JUMP JUMPDEST POP POP POP SWAP2 POP POP PUSH5 0x2540BE400 DUP2 PUSH2 0x462 SWAP2 SWAP1 PUSH2 0x840 JUMP JUMPDEST SWAP3 POP POP POP SWAP1 JUMP JUMPDEST PUSH0 DUP2 SWAP1 POP SWAP2 SWAP1 POP JUMP JUMPDEST PUSH2 0x47B DUP2 PUSH2 0x469 JUMP JUMPDEST DUP3 MSTORE POP POP JUMP JUMPDEST PUSH0 PUSH1 0x20 DUP3 ADD SWAP1 POP PUSH2 0x494 PUSH0 DUP4 ADD DUP5 PUSH2 0x472 JUMP JUMPDEST SWAP3 SWAP2 POP POP JUMP JUMPDEST PUSH0 DUP1 REVERT JUMPDEST PUSH0 PUSH20 0xFFFFFFFFFFFFFFFFFFFFFFFFFFFFFFFFFFFFFFFF DUP3 AND SWAP1 POP SWAP2 SWAP1 POP JUMP JUMPDEST PUSH0 PUSH2 0x4C7 DUP3 PUSH2 0x49E JUMP JUMPDEST SWAP1 POP SWAP2 SWAP1 POP JUMP JUMPDEST PUSH2 0x4D7 DUP2 PUSH2 0x4BD JUMP JUMPDEST DUP2 EQ PUSH2 0x4E1 JUMPI PUSH0 DUP1 REVERT JUMPDEST POP JUMP JUMPDEST PUSH0 DUP2 CALLDATALOAD SWAP1 POP PUSH2 0x4F2 DUP2 PUSH2 0x4CE JUMP JUMPDEST SWAP3 SWAP2 POP POP JUMP JUMPDEST PUSH0 PUSH1 0x20 DUP3 DUP5 SUB SLT ISZERO PUSH2 0x50D JUMPI PUSH2 0x50C PUSH2 0x49A JUMP JUMPDEST JUMPDEST PUSH0 PUSH2 0x51A DUP5 DUP3 DUP6 ADD PUSH2 0x4E4 JUMP JUMPDEST SWAP2 POP POP SWAP3 SWAP2 POP POP JUMP JUMPDEST PUSH2 0x52C DUP2 PUSH2 0x469 JUMP JUMPDEST DUP2 EQ PUSH2 0x536 JUMPI PUSH0 DUP1 REVERT JUMPDEST POP JUMP JUMPDEST PUSH0 DUP2 CALLDATALOAD SWAP1 POP PUSH2 0x547 DUP2 PUSH2 0x523 JUMP JUMPDEST SWAP3 SWAP2 POP POP JUMP JUMPDEST PUSH0 PUSH1 0x20 DUP3 DUP5 SUB SLT ISZERO PUSH2 0x562 JUMPI PUSH2 0x561 PUSH2 0x49A JUMP JUMPDEST JUMPDEST PUSH0 PUSH2 0x56F DUP5 DUP3 DUP6 ADD PUSH2 0x539 JUMP JUMPDEST SWAP2 POP POP SWAP3 SWAP2 POP POP JUMP JUMPDEST PUSH2 0x581 DUP2 PUSH2 0x4BD JUMP JUMPDEST DUP3 MSTORE POP POP JUMP JUMPDEST PUSH0 PUSH1 0x20 DUP3 ADD SWAP1 POP PUSH2 0x59A PUSH0 DUP4 ADD DUP5 PUSH2 0x578 JUMP JUMPDEST SWAP3 SWAP2 POP POP JUMP JUMPDEST PUSH32 0x4E487B7100000000000000000000000000000000000000000000000000000000 PUSH0 MSTORE PUSH1 0x32 PUSH1 0x4 MSTORE PUSH1 0x24 PUSH0 REVERT JUMPDEST PUSH32 0x4E487B7100000000000000000000000000000000000000000000000000000000 PUSH0 MSTORE PUSH1 0x11 PUSH1 0x4 MSTORE PUSH1 0x24 PUSH0 REVERT JUMPDEST PUSH0 PUSH2 0x604 DUP3 PUSH2 0x469 JUMP JUMPDEST SWAP2 POP PUSH2 0x60F DUP4 PUSH2 0x469 JUMP JUMPDEST SWAP3 POP DUP3 DUP3 ADD SWAP1 POP DUP1 DUP3 GT ISZERO PUSH2 0x627 JUMPI PUSH2 0x626 PUSH2 0x5CD JUMP JUMPDEST JUMPDEST SWAP3 SWAP2 POP POP JUMP JUMPDEST PUSH0 DUP3 DUP3 MSTORE PUSH1 0x20 DUP3 ADD SWAP1 POP SWAP3 SWAP2 POP POP JUMP JUMPDEST PUSH32 0x6E6F7420656E6F7567682045544820616D6F756E742100000000000000000000 PUSH0 DUP3 ADD MSTORE POP JUMP JUMPDEST PUSH0 PUSH2 0x671 PUSH1 0x16 DUP4 PUSH2 0x62D JUMP JUMPDEST SWAP2 POP PUSH2 0x67C DUP3 PUSH2 0x63D JUMP JUMPDEST PUSH1 0x20 DUP3 ADD SWAP1 POP SWAP2 SWAP1 POP JUMP JUMPDEST PUSH0 PUSH1 0x20 DUP3 ADD SWAP1 POP DUP2 DUP2 SUB PUSH0 DUP4 ADD MSTORE PUSH2 0x69E DUP2 PUSH2 0x665 JUMP JUMPDEST SWAP1 POP SWAP2 SWAP1 POP JUMP JUMPDEST PUSH0 PUSH2 0x6AF DUP3 PUSH2 0x469 JUMP JUMPDEST SWAP2 POP PUSH2 0x6BA DUP4 PUSH2 0x469 JUMP JUMPDEST SWAP3 POP DUP3 DUP3 MUL PUSH2 0x6C8 DUP2 PUSH2 0x469 JUMP JUMPDEST SWAP2 POP DUP3 DUP3 DIV DUP5 EQ DUP4 ISZERO OR PUSH2 0x6DF JUMPI PUSH2 0x6DE PUSH2 0x5CD JUMP JUMPDEST JUMPDEST POP SWAP3 SWAP2 POP POP JUMP JUMPDEST PUSH32 0x4E487B7100000000000000000000000000000000000000000000000000000000 PUSH0 MSTORE PUSH1 0x12 PUSH1 0x4 MSTORE PUSH1 0x24 PUSH0 REVERT JUMPDEST PUSH0 PUSH2 0x71D DUP3 PUSH2 0x469 JUMP JUMPDEST SWAP2 POP PUSH2 0x728 DUP4 PUSH2 0x469 JUMP JUMPDEST SWAP3 POP DUP3 PUSH2 0x738 JUMPI PUSH2 0x737 PUSH2 0x6E6 JUMP JUMPDEST JUMPDEST DUP3 DUP3 DIV SWAP1 POP SWAP3 SWAP2 POP POP JUMP JUMPDEST PUSH0 PUSH10 0xFFFFFFFFFFFFFFFFFFFF DUP3 AND SWAP1 POP SWAP2 SWAP1 POP JUMP JUMPDEST PUSH2 0x761 DUP2 PUSH2 0x743 JUMP JUMPDEST DUP2 EQ PUSH2 0x76B JUMPI PUSH0 DUP1 REVERT JUMPDEST POP JUMP JUMPDEST PUSH0 DUP2 MLOAD SWAP1 POP PUSH2 0x77C DUP2 PUSH2 0x758 JUMP JUMPDEST SWAP3 SWAP2 POP POP JUMP JUMPDEST PUSH0 DUP2 SWAP1 POP SWAP2 SWAP1 POP JUMP JUMPDEST PUSH2 0x794 DUP2 PUSH2 0x782 JUMP JUMPDEST DUP2 EQ PUSH2 0x79E JUMPI PUSH0 DUP1 REVERT JUMPDEST POP JUMP JUMPDEST PUSH0 DUP2 MLOAD SWAP1 POP PUSH2 0x7AF DUP2 PUSH2 0x78B JUMP JUMPDEST SWAP3 SWAP2 POP POP JUMP JUMPDEST PUSH0 DUP2 MLOAD SWAP1 POP PUSH2 0x7C3 DUP2 PUSH2 0x523 JUMP JUMPDEST SWAP3 SWAP2 POP POP JUMP JUMPDEST PUSH0 DUP1 PUSH0 DUP1 PUSH0 PUSH1 0xA0 DUP7 DUP9 SUB SLT ISZERO PUSH2 0x7E2 JUMPI PUSH2 0x7E1 PUSH2 0x49A JUMP JUMPDEST JUMPDEST PUSH0 PUSH2 0x7EF DUP9 DUP3 DUP10 ADD PUSH2 0x76E JUMP JUMPDEST SWAP6 POP POP PUSH1 0x20 PUSH2 0x800 DUP9 DUP3 DUP10 ADD PUSH2 0x7A1 JUMP JUMPDEST SWAP5 POP POP PUSH1 0x40 PUSH2 0x811 DUP9 DUP3 DUP10 ADD PUSH2 0x7B5 JUMP JUMPDEST SWAP4 POP POP PUSH1 0x60 PUSH2 0x822 DUP9 DUP3 DUP10 ADD PUSH2 0x7B5 JUMP JUMPDEST SWAP3 POP POP PUSH1 0x80 PUSH2 0x833 DUP9 DUP3 DUP10 ADD PUSH2 0x76E JUMP JUMPDEST SWAP2 POP POP SWAP3 SWAP6 POP SWAP3 SWAP6 SWAP1 SWAP4 POP JUMP JUMPDEST PUSH0 PUSH2 0x84A DUP3 PUSH2 0x782 JUMP JUMPDEST SWAP2 POP PUSH2 0x855 DUP4 PUSH2 0x782 JUMP JUMPDEST SWAP3 POP DUP3 DUP3 MUL PUSH2 0x863 DUP2 PUSH2 0x782 JUMP JUMPDEST SWAP2 POP PUSH32 0x8000000000000000000000000000000000000000000000000000000000000000 DUP5 EQ PUSH0 DUP5 SLT AND ISZERO PUSH2 0x89A JUMPI PUSH2 0x899 PUSH2 0x5CD JUMP JUMPDEST JUMPDEST DUP3 DUP3 SDIV DUP5 EQ DUP4 ISZERO OR PUSH2 0x8AF JUMPI PUSH2 0x8AE PUSH2 0x5CD JUMP JUMPDEST JUMPDEST POP SWAP3 SWAP2 POP POP JUMP INVALID LOG2 PUSH5 0x6970667358 0x22 SLT KECCAK256 0x22 0xD3 BALANCE 0xD AND NOT LOG4 SWAP7 0xC8 0xB3 DUP16 0xD9 0xA9 DUP2 0x2F 0xA9 STATICCALL PUSH30 0xEA30F8BACBC4EE3CF3F709A6A2F364736F6C634300081A00330000000000 "
				},
				"gasEstimates": {
					"creation": {
						"codeDepositCost": "456800",
						"executionCost": "44702",
						"totalCost": "501502"
					},
					"external": {
						"Fund()": "infinite",
						"Withdraw()": "infinite",
						"funders(uint256)": "5032",
						"fundsRaisedByAddress(address)": "2868",
						"minimumUsd()": "2403",
						"myValue()": "2424"
					}
				},
				"methodIdentifiers": {
					"Fund()": "6ce1417e",
					"Withdraw()": "57ea89b6",
					"funders(uint256)": "dc0d3dff",
					"fundsRaisedByAddress(address)": "b804f81f",
					"minimumUsd()": "098de820",
					"myValue()": "47f1aae7"
				}
			},
			"storageLayout": {
				"storage": [
					{
						"astId": 55,
						"contract": "FundMe.sol:FundMe",
						"label": "myValue",
						"offset": 0,
						"slot": "0",
						"type": "t_uint256"
					},
					{
						"astId": 58,
						"contract": "FundMe.sol:FundMe",
						"label": "minimumUsd",
						"offset": 0,
						"slot": "1",
						"type": "t_uint256"
					},
					{
						"astId": 61,
						"contract": "FundMe.sol:FundMe",
						"label": "funders",
						"offset": 0,
						"slot": "2",
						"type": "t_array(t_address)dyn_storage"
					},
					{
						"astId": 65,
						"contract": "FundMe.sol:FundMe",
						"label": "fundsRaisedByAddress",
						"offset": 0,
						"slot": "3",
						"type": "t_mapping(t_address,t_uint256)"
					}
				],
				"types": {
					"t_address": {
						"encoding": "inplace",
						"label": "address",
						"numberOfBytes": "20"
					},
					"t_array(t_address)dyn_storage": {
						"base": "t_address",
						"encoding": "dynamic_array",
						"label": "address[]",
						"numberOfBytes": "32"
					},
					"t_mapping(t_address,t_uint256)": {
						"encoding": "mapping",
						"key": "t_address",
						"label": "mapping(address => uint256)",
						"numberOfBytes": "32",
						"value": "t_uint256"
					},
					"t_uint256": {
						"encoding": "inplace",
						"label": "uint256",
						"numberOfBytes": "32"
					}
				}
			},
			"userdoc": {
				"kind": "user",
				"methods": {},
				"version": 1
			}
		}
	}
}